{
  "contractName": "ASInfo",
  "abi": [
    {
      "inputs": [
        {
          "internalType": "address",
          "name": "_owner",
          "type": "address"
        },
        {
          "internalType": "bytes20",
          "name": "_id",
          "type": "bytes20"
        },
        {
          "internalType": "uint256",
          "name": "_asn",
          "type": "uint256"
        }
      ],
      "payable": false,
      "stateMutability": "nonpayable",
      "type": "constructor"
    },
    {
      "constant": true,
      "inputs": [],
      "name": "asn",
      "outputs": [
        {
          "internalType": "uint256",
          "name": "",
          "type": "uint256"
        }
      ],
      "payable": false,
      "stateMutability": "view",
      "type": "function"
    },
    {
      "constant": true,
      "inputs": [],
      "name": "id",
      "outputs": [
        {
          "internalType": "bytes20",
          "name": "",
          "type": "bytes20"
        }
      ],
      "payable": false,
      "stateMutability": "view",
      "type": "function"
    },
    {
      "constant": true,
      "inputs": [],
      "name": "owner",
      "outputs": [
        {
          "internalType": "address",
          "name": "",
          "type": "address"
        }
      ],
      "payable": false,
      "stateMutability": "view",
      "type": "function"
    },
    {
      "constant": true,
      "inputs": [
        {
          "internalType": "uint256",
          "name": "time",
          "type": "uint256"
        }
      ],
      "name": "getCurrentACS",
      "outputs": [
        {
          "internalType": "string",
          "name": "",
          "type": "string"
        }
      ],
      "payable": false,
      "stateMutability": "view",
      "type": "function"
    },
    {
      "constant": false,
      "inputs": [
        {
          "internalType": "string",
          "name": "acs",
          "type": "string"
        },
        {
          "internalType": "uint256",
          "name": "time",
          "type": "uint256"
        }
      ],
      "name": "updateACS",
      "outputs": [],
      "payable": false,
      "stateMutability": "nonpayable",
      "type": "function"
    }
  ],
  "bytecode": "0x608060405234801561001057600080fd5b506040516108b83803806108b88339818101604052606081101561003357600080fd5b81019080805190602001909291908051906020019092919080519060200190929190505050826000806101000a81548173ffffffffffffffffffffffffffffffffffffffff021916908373ffffffffffffffffffffffffffffffffffffffff16021790555081600160006101000a81548173ffffffffffffffffffffffffffffffffffffffff021916908360601c0217905550806002819055505050506107d9806100df6000396000f3fe608060405234801561001057600080fd5b50600436106100575760003560e01c80630d82502b1461005c5780638da5cb5b14610103578063a72249f81461014d578063af640d0f14610212578063bb412a081461024e575b600080fd5b6100886004803603602081101561007257600080fd5b810190808035906020019092919050505061026c565b6040518080602001828103825283818151815260200191508051906020019080838360005b838110156100c85780820151818401526020810190506100ad565b50505050905090810190601f1680156100f55780820380516001836020036101000a031916815260200191505b509250505060405180910390f35b61010b6104b8565b604051808273ffffffffffffffffffffffffffffffffffffffff1673ffffffffffffffffffffffffffffffffffffffff16815260200191505060405180910390f35b6102106004803603604081101561016357600080fd5b810190808035906020019064010000000081111561018057600080fd5b82018360208201111561019257600080fd5b803590602001918460018302840111640100000000831117156101b457600080fd5b91908080601f016020809104026020016040519081016040528093929190818152602001838380828437600081840152601f19601f820116905080830192505050505050509192919290803590602001909291905050506104dd565b005b61021a61069e565b60405180826bffffffffffffffffffffffff19166bffffffffffffffffffffffff1916815260200191505060405180910390f35b6102566106b1565b6040518082815260200191505060405180910390f35b6060600060038054905014806102a05750600360008154811061028b57fe5b90600052602060002090600202016001015482105b156102bc576040518060200160405280600081525090506104b3565b6000600190505b6003805490508110156103f05782600360018303815481106102e157fe5b9060005260206000209060020201600101541115801561031e5750826003828154811061030a57fe5b906000526020600020906002020160010154115b156103e5576003600182038154811061033357fe5b90600052602060002090600202016000018054600181600116156101000203166002900480601f0160208091040260200160405190810160405280929190818152602001828054600181600116156101000203166002900480156103d85780601f106103ad576101008083540402835291602001916103d8565b820191906000526020600020905b8154815290600101906020018083116103bb57829003601f168201915b50505050509150506104b3565b8060010190506102c3565b5060036001600380549050038154811061040657fe5b90600052602060002090600202016000018054600181600116156101000203166002900480601f0160208091040260200160405190810160405280929190818152602001828054600181600116156101000203166002900480156104ab5780601f10610480576101008083540402835291602001916104ab565b820191906000526020600020905b81548152906001019060200180831161048e57829003601f168201915b505050505090505b919050565b6000809054906101000a900473ffffffffffffffffffffffffffffffffffffffff1681565b6000809054906101000a900473ffffffffffffffffffffffffffffffffffffffff1673ffffffffffffffffffffffffffffffffffffffff163373ffffffffffffffffffffffffffffffffffffffff161461059f576040517f08c379a00000000000000000000000000000000000000000000000000000000081526004018080602001828103825260198152602001807f4f6e6c79206f776e65722063616e2063616c6c20746869732e0000000000000081525060200191505060405180910390fd5b600060038054905090505b81600382815481106105b857fe5b906000526020600020906002020160010154106105db57806001900390506105aa565b5b60018101600380549050111561062d5760038054806105f757fe5b60019003818190600052602060002090600202016000808201600061061c91906106b7565b6001820160009055505090556105dc565b600360405180604001604052808581526020018481525090806001815401808255809150509060018203906000526020600020906002020160009091929091909150600082015181600001908051906020019061068b9291906106ff565b5060208201518160010155505050505050565b600160009054906101000a900460601b81565b60025481565b50805460018160011615610100020316600290046000825580601f106106dd57506106fc565b601f0160209004906000526020600020908101906106fb919061077f565b5b50565b828054600181600116156101000203166002900490600052602060002090601f016020900481019282601f1061074057805160ff191683800117855561076e565b8280016001018555821561076e579182015b8281111561076d578251825591602001919060010190610752565b5b50905061077b919061077f565b5090565b6107a191905b8082111561079d576000816000905550600101610785565b5090565b9056fea265627a7a723158207de06a1eea64405549f8dbf79ec13b664e0d9559d351acda90930694e3896cbb64736f6c63430005100032",
  "source": "pragma solidity >=0.4.21 <0.7.0;\n\ncontract ASInfo {\n    struct AcsTime {\n        string acs;\n        uint256 time;\n    }\n\n    modifier onlyOwner {\n        require(\n            msg.sender == owner,\n            \"Only owner can call this.\"\n        );\n        _;\n    }\n\n    address public owner;\n    bytes20 public id;\n    uint256 public asn;\n    AcsTime[] private _acses;\n\n    constructor(\n        address _owner,\n        bytes20 _id,\n        uint256 _asn\n    )\n        public\n    {\n        owner = _owner;\n        id = _id;\n        asn = _asn;\n    }\n\n    function getCurrentACS(uint256 time) public view returns(string memory) {\n        if (_acses.length == 0 || time < _acses[0].time) {\n            return \"\";\n        }\n        for (uint256 i = 1; i < _acses.length; ++i) {\n            if (_acses[i - 1].time <= time && _acses[i].time > time) {\n                return _acses[i - 1].acs;\n            }\n        }\n        return _acses[_acses.length - 1].acs;\n    }\n\n    function updateACS(string memory acs, uint256 time) public onlyOwner {\n        uint256 index = _acses.length;\n        while (_acses[index].time >= time) {\n            --index;\n        }\n        while (_acses.length > index + 1) {\n            _acses.pop();\n        }\n        _acses.push(AcsTime(acs, time));\n    }\n}\n",
  "sourcePath": "/Users/bragcat/Code/RegChain/contracts/ASInfo.sol",
  "compiler": {
    "name": "solc",
    "version": "0.5.16+commit.9c3226ce.Emscripten.clang"
  },
  "schemaVersion": "3.0.23",
  "updatedAt": "2020-05-12T06:51:15.860Z",
  "devdoc": {
    "methods": {}
  },
  "userdoc": {
    "methods": {}
  }
}