{
  "contractName": "ASInfo",
  "abi": [
    {
      "inputs": [
        {
          "internalType": "address",
          "name": "_id",
          "type": "address"
        },
        {
          "internalType": "uint256",
          "name": "_asn",
          "type": "uint256"
        }
      ],
      "payable": false,
      "stateMutability": "nonpayable",
      "type": "constructor"
    },
    {
      "constant": true,
      "inputs": [],
      "name": "asn",
      "outputs": [
        {
          "internalType": "uint256",
          "name": "",
          "type": "uint256"
        }
      ],
      "payable": false,
      "stateMutability": "view",
      "type": "function"
    },
    {
      "constant": true,
      "inputs": [],
      "name": "id",
      "outputs": [
        {
          "internalType": "address",
          "name": "",
          "type": "address"
        }
      ],
      "payable": false,
      "stateMutability": "view",
      "type": "function"
    },
    {
      "constant": true,
      "inputs": [
        {
          "internalType": "uint256",
          "name": "time",
          "type": "uint256"
        }
      ],
      "name": "getCurrentACS",
      "outputs": [
        {
          "internalType": "uint256",
          "name": "",
          "type": "uint256"
        }
      ],
      "payable": false,
      "stateMutability": "view",
      "type": "function"
    },
    {
      "constant": false,
      "inputs": [
        {
          "internalType": "uint256",
          "name": "acs",
          "type": "uint256"
        },
        {
          "internalType": "uint256",
          "name": "time",
          "type": "uint256"
        }
      ],
      "name": "updateACS",
      "outputs": [],
      "payable": false,
      "stateMutability": "nonpayable",
      "type": "function"
    }
  ],
  "bytecode": "0x608060405234801561001057600080fd5b506040516104ec3803806104ec8339818101604052604081101561003357600080fd5b810190808051906020019092919080519060200190929190505050816000806101000a81548173ffffffffffffffffffffffffffffffffffffffff021916908373ffffffffffffffffffffffffffffffffffffffff160217905550806001819055505050610446806100a66000396000f3fe608060405234801561001057600080fd5b506004361061004c5760003560e01c80630d82502b14610051578063af640d0f14610093578063bb412a08146100dd578063e9c44c5e146100fb575b600080fd5b61007d6004803603602081101561006757600080fd5b8101908080359060200190929190505050610133565b6040518082815260200191505060405180910390f35b61009b610240565b604051808273ffffffffffffffffffffffffffffffffffffffff1673ffffffffffffffffffffffffffffffffffffffff16815260200191505060405180910390f35b6100e5610265565b6040518082815260200191505060405180910390f35b6101316004803603604081101561011157600080fd5b81019080803590602001909291908035906020019092919050505061026b565b005b60008060028054905014806101665750600260008154811061015157fe5b90600052602060002090600202016001015482105b15610174576000905061023b565b6000600190505b60028054905081101561021057826002600183038154811061019957fe5b906000526020600020906002020160010154111580156101d6575082600282815481106101c257fe5b906000526020600020906002020160010154115b1561020557600260018203815481106101eb57fe5b90600052602060002090600202016000015491505061023b565b80600101905061017b565b5060026001600280549050038154811061022657fe5b90600052602060002090600202016000015490505b919050565b6000809054906101000a900473ffffffffffffffffffffffffffffffffffffffff1681565b60015481565b6000809054906101000a900473ffffffffffffffffffffffffffffffffffffffff1673ffffffffffffffffffffffffffffffffffffffff163373ffffffffffffffffffffffffffffffffffffffff161461032d576040517f08c379a00000000000000000000000000000000000000000000000000000000081526004018080602001828103825260198152602001807f4f6e6c79206f776e65722063616e2063616c6c20746869732e0000000000000081525060200191505060405180910390fd5b600060028054905090505b816002828154811061034657fe5b906000526020600020906002020160010154106103695780600190039050610338565b5b6001810160028054905011156103b357600280548061038557fe5b600190038181906000526020600020906002020160008082016000905560018201600090555050905561036a565b600260405180604001604052808581526020018481525090806001815401808255809150509060018203906000526020600020906002020160009091929091909150600082015181600001556020820151816001015550505050505056fea265627a7a72315820387f59733e5b98afff0ef1e88ba1a864f67fe59b32020a7159351b3b3706d16564736f6c63430005100032",
  "source": "pragma solidity >=0.4.21 <0.7.0;\n\ncontract ASInfo {\n    struct AcsTime {\n        uint256 acs;\n        uint256 time;\n    }\n\n    modifier onlyOwner {\n        require(\n            msg.sender == id,\n            \"Only owner can call this.\"\n        );\n        _;\n    }\n\n    address public id;\n    uint256 public asn;\n    AcsTime[] private _acses;\n\n    constructor(\n        address _id,\n        uint256 _asn\n    )\n        public\n    {\n        id = _id;\n        asn = _asn;\n    }\n\n    function getCurrentACS(uint256 time) public view returns(uint256) {\n        if (_acses.length == 0 || time < _acses[0].time) {\n            return 0;\n        }\n        for (uint256 i = 1; i < _acses.length; ++i) {\n            if (_acses[i - 1].time <= time && _acses[i].time > time) {\n                return _acses[i - 1].acs;\n            }\n        }\n        return _acses[_acses.length - 1].acs;\n    }\n\n    function updateACS(uint256 acs, uint256 time) public onlyOwner {\n        uint256 index = _acses.length;\n        while (_acses[index].time >= time) {\n            --index;\n        }\n        while (_acses.length > index + 1) {\n            _acses.pop();\n        }\n        _acses.push(AcsTime(acs, time));\n    }\n}\n",
  "sourcePath": "/Users/bragcat/Code/RegChain/contracts/ASInfo.sol",
  "compiler": {
    "name": "solc",
    "version": "0.5.16+commit.9c3226ce.Emscripten.clang"
  },
  "schemaVersion": "3.0.23",
  "updatedAt": "2020-05-11T09:04:54.623Z",
  "devdoc": {
    "methods": {}
  },
  "userdoc": {
    "methods": {}
  }
}