{
  "contractName": "ASInfo",
  "abi": [
    {
      "inputs": [
        {
          "internalType": "address",
          "name": "_owner",
          "type": "address"
        },
        {
          "internalType": "bytes20",
          "name": "_id",
          "type": "bytes20"
        },
        {
          "internalType": "uint256",
          "name": "_asn",
          "type": "uint256"
        },
        {
          "internalType": "string",
          "name": "_name",
          "type": "string"
        },
        {
          "internalType": "string",
          "name": "_description",
          "type": "string"
        }
      ],
      "payable": false,
      "stateMutability": "nonpayable",
      "type": "constructor"
    },
    {
      "anonymous": false,
      "inputs": [
        {
          "indexed": true,
          "internalType": "string",
          "name": "acsAddr",
          "type": "string"
        },
        {
          "indexed": true,
          "internalType": "uint256",
          "name": "effectTime",
          "type": "uint256"
        },
        {
          "indexed": true,
          "internalType": "address",
          "name": "account",
          "type": "address"
        }
      ],
      "name": "ACSUpdated",
      "type": "event"
    },
    {
      "constant": true,
      "inputs": [],
      "name": "asn",
      "outputs": [
        {
          "internalType": "uint256",
          "name": "",
          "type": "uint256"
        }
      ],
      "payable": false,
      "stateMutability": "view",
      "type": "function"
    },
    {
      "constant": true,
      "inputs": [],
      "name": "description",
      "outputs": [
        {
          "internalType": "string",
          "name": "",
          "type": "string"
        }
      ],
      "payable": false,
      "stateMutability": "view",
      "type": "function"
    },
    {
      "constant": true,
      "inputs": [],
      "name": "id",
      "outputs": [
        {
          "internalType": "bytes20",
          "name": "",
          "type": "bytes20"
        }
      ],
      "payable": false,
      "stateMutability": "view",
      "type": "function"
    },
    {
      "constant": true,
      "inputs": [],
      "name": "name",
      "outputs": [
        {
          "internalType": "string",
          "name": "",
          "type": "string"
        }
      ],
      "payable": false,
      "stateMutability": "view",
      "type": "function"
    },
    {
      "constant": true,
      "inputs": [],
      "name": "owner",
      "outputs": [
        {
          "internalType": "address",
          "name": "",
          "type": "address"
        }
      ],
      "payable": false,
      "stateMutability": "view",
      "type": "function"
    },
    {
      "constant": true,
      "inputs": [
        {
          "internalType": "uint256",
          "name": "time",
          "type": "uint256"
        }
      ],
      "name": "getCurrentACS",
      "outputs": [
        {
          "internalType": "string",
          "name": "",
          "type": "string"
        }
      ],
      "payable": false,
      "stateMutability": "view",
      "type": "function"
    },
    {
      "constant": false,
      "inputs": [
        {
          "internalType": "string",
          "name": "acs",
          "type": "string"
        },
        {
          "internalType": "uint256",
          "name": "time",
          "type": "uint256"
        }
      ],
      "name": "updateACS",
      "outputs": [],
      "payable": false,
      "stateMutability": "nonpayable",
      "type": "function"
    }
  ],
  "bytecode": "0x60806040523480156200001157600080fd5b5060405162000e3838038062000e38833981810160405260a08110156200003757600080fd5b81019080805190602001909291908051906020019092919080519060200190929190805160405193929190846401000000008211156200007657600080fd5b838201915060208201858111156200008d57600080fd5b8251866001820283011164010000000082111715620000ab57600080fd5b8083526020830192505050908051906020019080838360005b83811015620000e1578082015181840152602081019050620000c4565b50505050905090810190601f1680156200010f5780820380516001836020036101000a031916815260200191505b50604052602001805160405193929190846401000000008211156200013357600080fd5b838201915060208201858111156200014a57600080fd5b82518660018202830111640100000000821117156200016857600080fd5b8083526020830192505050908051906020019080838360005b838110156200019e57808201518184015260208101905062000181565b50505050905090810190601f168015620001cc5780820380516001836020036101000a031916815260200191505b50604052505050846000806101000a81548173ffffffffffffffffffffffffffffffffffffffff021916908373ffffffffffffffffffffffffffffffffffffffff16021790555083600160006101000a81548173ffffffffffffffffffffffffffffffffffffffff021916908360601c02179055508260028190555081600390805190602001906200026092919062000285565b5080600490805190602001906200027992919062000285565b50505050505062000334565b828054600181600116156101000203166002900490600052602060002090601f016020900481019282601f10620002c857805160ff1916838001178555620002f9565b82800160010185558215620002f9579182015b82811115620002f8578251825591602001919060010190620002db565b5b5090506200030891906200030c565b5090565b6200033191905b808211156200032d57600081600090555060010162000313565b5090565b90565b610af480620003446000396000f3fe608060405234801561001057600080fd5b506004361061007d5760003560e01c80638da5cb5b1161005b5780638da5cb5b1461022f578063a72249f814610279578063af640d0f1461033e578063bb412a081461037a5761007d565b806306fdde03146100825780630d82502b146101055780637284e416146101ac575b600080fd5b61008a610398565b6040518080602001828103825283818151815260200191508051906020019080838360005b838110156100ca5780820151818401526020810190506100af565b50505050905090810190601f1680156100f75780820380516001836020036101000a031916815260200191505b509250505060405180910390f35b6101316004803603602081101561011b57600080fd5b8101908080359060200190929190505050610436565b6040518080602001828103825283818151815260200191508051906020019080838360005b83811015610171578082015181840152602081019050610156565b50505050905090810190601f16801561019e5780820380516001836020036101000a031916815260200191505b509250505060405180910390f35b6101b4610682565b6040518080602001828103825283818151815260200191508051906020019080838360005b838110156101f45780820151818401526020810190506101d9565b50505050905090810190601f1680156102215780820380516001836020036101000a031916815260200191505b509250505060405180910390f35b610237610720565b604051808273ffffffffffffffffffffffffffffffffffffffff1673ffffffffffffffffffffffffffffffffffffffff16815260200191505060405180910390f35b61033c6004803603604081101561028f57600080fd5b81019080803590602001906401000000008111156102ac57600080fd5b8201836020820111156102be57600080fd5b803590602001918460018302840111640100000000831117156102e057600080fd5b91908080601f016020809104026020016040519081016040528093929190818152602001838380828437600081840152601f19601f82011690508083019250505050505050919291929080359060200190929190505050610745565b005b6103466109b9565b60405180826bffffffffffffffffffffffff19166bffffffffffffffffffffffff1916815260200191505060405180910390f35b6103826109cc565b6040518082815260200191505060405180910390f35b60038054600181600116156101000203166002900480601f01602080910402602001604051908101604052809291908181526020018280546001816001161561010002031660029004801561042e5780601f106104035761010080835404028352916020019161042e565b820191906000526020600020905b81548152906001019060200180831161041157829003601f168201915b505050505081565b60606000600580549050148061046a5750600560008154811061045557fe5b90600052602060002090600202016001015482105b156104865760405180602001604052806000815250905061067d565b6000600190505b6005805490508110156105ba5782600560018303815481106104ab57fe5b906000526020600020906002020160010154111580156104e8575082600582815481106104d457fe5b906000526020600020906002020160010154115b156105af57600560018203815481106104fd57fe5b90600052602060002090600202016000018054600181600116156101000203166002900480601f0160208091040260200160405190810160405280929190818152602001828054600181600116156101000203166002900480156105a25780601f10610577576101008083540402835291602001916105a2565b820191906000526020600020905b81548152906001019060200180831161058557829003601f168201915b505050505091505061067d565b80600101905061048d565b506005600160058054905003815481106105d057fe5b90600052602060002090600202016000018054600181600116156101000203166002900480601f0160208091040260200160405190810160405280929190818152602001828054600181600116156101000203166002900480156106755780601f1061064a57610100808354040283529160200191610675565b820191906000526020600020905b81548152906001019060200180831161065857829003601f168201915b505050505090505b919050565b60048054600181600116156101000203166002900480601f0160208091040260200160405190810160405280929190818152602001828054600181600116156101000203166002900480156107185780601f106106ed57610100808354040283529160200191610718565b820191906000526020600020905b8154815290600101906020018083116106fb57829003601f168201915b505050505081565b6000809054906101000a900473ffffffffffffffffffffffffffffffffffffffff1681565b6000809054906101000a900473ffffffffffffffffffffffffffffffffffffffff1673ffffffffffffffffffffffffffffffffffffffff163373ffffffffffffffffffffffffffffffffffffffff1614610807576040517f08c379a00000000000000000000000000000000000000000000000000000000081526004018080602001828103825260198152602001807f4f6e6c79206f776e65722063616e2063616c6c20746869732e0000000000000081525060200191505060405180910390fd5b600060058054905090505b6000811180156108435750816005600183038154811061082e57fe5b90600052602060002090600202016001015410155b156108545780600190039050610812565b5b8060058054905011156108a357600580548061086d57fe5b60019003818190600052602060002090600202016000808201600061089291906109d2565b600182016000905550509055610855565b6005604051806040016040528085815260200184815250908060018154018082558091505090600182039060005260206000209060020201600090919290919091506000820151816000019080519060200190610901929190610a1a565b50602082015181600101555050503373ffffffffffffffffffffffffffffffffffffffff1682846040518082805190602001908083835b6020831061095b5780518252602082019150602081019050602083039250610938565b6001836020036101000a03801982511681845116808217855250505050505090500191505060405180910390207fa042dd93f2e8923582a6fa05904c2792e245b0134f521ff64add5d358175f6b060405160405180910390a4505050565b600160009054906101000a900460601b81565b60025481565b50805460018160011615610100020316600290046000825580601f106109f85750610a17565b601f016020900490600052602060002090810190610a169190610a9a565b5b50565b828054600181600116156101000203166002900490600052602060002090601f016020900481019282601f10610a5b57805160ff1916838001178555610a89565b82800160010185558215610a89579182015b82811115610a88578251825591602001919060010190610a6d565b5b509050610a969190610a9a565b5090565b610abc91905b80821115610ab8576000816000905550600101610aa0565b5090565b9056fea265627a7a723158205d27719909d4993223b94e1bb9634ac1fd4bd37878ea4072a2ca80a72ba0dc1564736f6c63430005100032",
  "source": "pragma solidity >=0.4.21 <0.7.0;\n\ncontract ASInfo {\n    struct AcsTime {\n        string acs;\n        uint256 time;\n    }\n\n    modifier onlyOwner {\n        require(\n            msg.sender == owner,\n            \"Only owner can call this.\"\n        );\n        _;\n    }\n\n    event ACSUpdated(string indexed acsAddr, uint256 indexed effectTime, address indexed account);\n\n    address public owner;\n    bytes20 public id;\n    uint256 public asn;\n    string public name;\n    string public description;\n    AcsTime[] private _acses;\n\n    constructor(\n        address _owner,\n        bytes20 _id,\n        uint256 _asn,\n        string memory _name,\n        string memory _description\n    )\n        public\n    {\n        owner = _owner;\n        id = _id;\n        asn = _asn;\n        name = _name;\n        description = _description;\n    }\n\n    function getCurrentACS(uint256 time) public view returns(string memory) {\n        if (_acses.length == 0 || time < _acses[0].time) {\n            return \"\";\n        }\n        for (uint256 i = 1; i < _acses.length; ++i) {\n            if (_acses[i - 1].time <= time && _acses[i].time > time) {\n                return _acses[i - 1].acs;\n            }\n        }\n        return _acses[_acses.length - 1].acs;\n    }\n\n    function updateACS(string memory acs, uint256 time) public onlyOwner {\n        uint256 index = _acses.length;\n        while (index > 0 && _acses[index - 1].time >= time) {\n            --index;\n        }\n        while (_acses.length > index) {\n            _acses.pop();\n        }\n        _acses.push(AcsTime(acs, time));\n        emit ACSUpdated(acs, time, msg.sender);\n    }\n}\n",
  "sourcePath": "/Users/bragcat/Code/RegChain/contracts/ASInfo.sol",
  "compiler": {
    "name": "solc",
    "version": "0.5.16+commit.9c3226ce.Emscripten.clang"
  },
  "schemaVersion": "3.0.23",
  "updatedAt": "2020-05-21T02:36:13.592Z",
  "devdoc": {
    "methods": {}
  },
  "userdoc": {
    "methods": {}
  }
}