{
  "contractName": "ASRequest",
  "abi": [
    {
      "inputs": [
        {
          "internalType": "address",
          "name": "_id",
          "type": "address"
        },
        {
          "internalType": "uint256",
          "name": "_reqType",
          "type": "uint256"
        },
        {
          "internalType": "uint256",
          "name": "_asn",
          "type": "uint256"
        }
      ],
      "payable": false,
      "stateMutability": "nonpayable",
      "type": "constructor"
    },
    {
      "constant": true,
      "inputs": [],
      "name": "asn",
      "outputs": [
        {
          "internalType": "uint256",
          "name": "",
          "type": "uint256"
        }
      ],
      "payable": false,
      "stateMutability": "view",
      "type": "function"
    },
    {
      "constant": true,
      "inputs": [],
      "name": "id",
      "outputs": [
        {
          "internalType": "address",
          "name": "",
          "type": "address"
        }
      ],
      "payable": false,
      "stateMutability": "view",
      "type": "function"
    },
    {
      "constant": true,
      "inputs": [],
      "name": "reqType",
      "outputs": [
        {
          "internalType": "uint256",
          "name": "",
          "type": "uint256"
        }
      ],
      "payable": false,
      "stateMutability": "view",
      "type": "function"
    }
  ],
  "bytecode": "0x608060405234801561001057600080fd5b506040516101df3803806101df8339818101604052606081101561003357600080fd5b81019080805190602001909291908051906020019092919080519060200190929190505050826000806101000a81548173ffffffffffffffffffffffffffffffffffffffff021916908373ffffffffffffffffffffffffffffffffffffffff1602179055508160018190555080600281905550505050610127806100b86000396000f3fe6080604052348015600f57600080fd5b5060043610603c5760003560e01c8063af640d0f146041578063bb412a08146089578063e1c8ca881460a5575b600080fd5b604760c1565b604051808273ffffffffffffffffffffffffffffffffffffffff1673ffffffffffffffffffffffffffffffffffffffff16815260200191505060405180910390f35b608f60e6565b6040518082815260200191505060405180910390f35b60ab60ec565b6040518082815260200191505060405180910390f35b6000809054906101000a900473ffffffffffffffffffffffffffffffffffffffff1681565b60025481565b6001548156fea265627a7a72315820da445315caea6eea02e7f090cd0a42c9e62a52c863658abe706aaf1c96b9aeba64736f6c63430005100032",
  "source": "pragma solidity >=0.4.21 <0.7.0;\n\ncontract ASRequest {\n    address public id;\n    uint256 public reqType;\n    uint256 public asn;\n\n    constructor(\n        address _id,\n        uint256 _reqType,\n        uint256 _asn\n    )\n        public\n    {\n        id = _id;\n        reqType = _reqType;\n        asn = _asn;\n    }\n}",
  "sourcePath": "/Users/bragcat/Code/RegChain/contracts/ASRequest.sol",
  "compiler": {
    "name": "solc",
    "version": "0.5.16+commit.9c3226ce.Emscripten.clang"
  },
  "schemaVersion": "3.0.23",
  "updatedAt": "2020-05-09T12:27:56.599Z",
  "devdoc": {
    "methods": {}
  },
  "userdoc": {
    "methods": {}
  }
}