{
  "contractName": "SMARegister",
  "abi": [
    {
      "inputs": [],
      "payable": false,
      "stateMutability": "nonpayable",
      "type": "constructor"
    },
    {
      "anonymous": false,
      "inputs": [
        {
          "indexed": true,
          "internalType": "contract ASInfo",
          "name": "asInfo",
          "type": "address"
        },
        {
          "indexed": true,
          "internalType": "address",
          "name": "id",
          "type": "address"
        }
      ],
      "name": "ASCreated",
      "type": "event"
    },
    {
      "anonymous": false,
      "inputs": [
        {
          "indexed": true,
          "internalType": "contract ASInfo",
          "name": "asInfo",
          "type": "address"
        },
        {
          "indexed": true,
          "internalType": "address",
          "name": "id",
          "type": "address"
        }
      ],
      "name": "ASDeleted",
      "type": "event"
    },
    {
      "anonymous": false,
      "inputs": [
        {
          "indexed": true,
          "internalType": "uint256",
          "name": "reqType",
          "type": "uint256"
        },
        {
          "indexed": true,
          "internalType": "uint256",
          "name": "asn",
          "type": "uint256"
        },
        {
          "indexed": true,
          "internalType": "address",
          "name": "id",
          "type": "address"
        }
      ],
      "name": "ASRequestApproved",
      "type": "event"
    },
    {
      "anonymous": false,
      "inputs": [
        {
          "indexed": true,
          "internalType": "uint256",
          "name": "reqType",
          "type": "uint256"
        },
        {
          "indexed": true,
          "internalType": "uint256",
          "name": "asn",
          "type": "uint256"
        },
        {
          "indexed": true,
          "internalType": "address",
          "name": "id",
          "type": "address"
        }
      ],
      "name": "ASRequestCreated",
      "type": "event"
    },
    {
      "anonymous": false,
      "inputs": [
        {
          "indexed": true,
          "internalType": "uint256",
          "name": "reqType",
          "type": "uint256"
        },
        {
          "indexed": true,
          "internalType": "uint256",
          "name": "asn",
          "type": "uint256"
        },
        {
          "indexed": true,
          "internalType": "address",
          "name": "id",
          "type": "address"
        }
      ],
      "name": "ASRequestRejected",
      "type": "event"
    },
    {
      "constant": true,
      "inputs": [],
      "name": "owner",
      "outputs": [
        {
          "internalType": "address",
          "name": "",
          "type": "address"
        }
      ],
      "payable": false,
      "stateMutability": "view",
      "type": "function"
    },
    {
      "constant": false,
      "inputs": [
        {
          "internalType": "uint256",
          "name": "_reqType",
          "type": "uint256"
        },
        {
          "internalType": "uint256",
          "name": "_asn",
          "type": "uint256"
        }
      ],
      "name": "createASRequest",
      "outputs": [],
      "payable": false,
      "stateMutability": "nonpayable",
      "type": "function"
    },
    {
      "constant": true,
      "inputs": [],
      "name": "requestQuery",
      "outputs": [
        {
          "internalType": "address[]",
          "name": "ids",
          "type": "address[]"
        },
        {
          "internalType": "uint256[]",
          "name": "reqTypes",
          "type": "uint256[]"
        },
        {
          "internalType": "uint256[]",
          "name": "asns",
          "type": "uint256[]"
        }
      ],
      "payable": false,
      "stateMutability": "view",
      "type": "function"
    },
    {
      "constant": true,
      "inputs": [],
      "name": "requestCount",
      "outputs": [
        {
          "internalType": "uint256",
          "name": "",
          "type": "uint256"
        }
      ],
      "payable": false,
      "stateMutability": "view",
      "type": "function"
    },
    {
      "constant": true,
      "inputs": [],
      "name": "asQuery",
      "outputs": [
        {
          "internalType": "contract ASInfo[]",
          "name": "",
          "type": "address[]"
        }
      ],
      "payable": false,
      "stateMutability": "view",
      "type": "function"
    },
    {
      "constant": true,
      "inputs": [],
      "name": "asCount",
      "outputs": [
        {
          "internalType": "uint256",
          "name": "",
          "type": "uint256"
        }
      ],
      "payable": false,
      "stateMutability": "view",
      "type": "function"
    },
    {
      "constant": false,
      "inputs": [
        {
          "internalType": "address",
          "name": "id",
          "type": "address"
        }
      ],
      "name": "requestApprove",
      "outputs": [],
      "payable": false,
      "stateMutability": "nonpayable",
      "type": "function"
    },
    {
      "constant": false,
      "inputs": [
        {
          "internalType": "address",
          "name": "id",
          "type": "address"
        }
      ],
      "name": "requestReject",
      "outputs": [],
      "payable": false,
      "stateMutability": "nonpayable",
      "type": "function"
    },
    {
      "constant": true,
      "inputs": [
        {
          "internalType": "uint256",
          "name": "asn",
          "type": "uint256"
        },
        {
          "internalType": "uint256",
          "name": "time",
          "type": "uint256"
        }
      ],
      "name": "singleACSQuery",
      "outputs": [
        {
          "internalType": "uint256",
          "name": "",
          "type": "uint256"
        }
      ],
      "payable": false,
      "stateMutability": "view",
      "type": "function"
    },
    {
      "constant": true,
      "inputs": [
        {
          "internalType": "uint256",
          "name": "time",
          "type": "uint256"
        }
      ],
      "name": "allACSQuery",
      "outputs": [
        {
          "internalType": "uint256[]",
          "name": "asns",
          "type": "uint256[]"
        },
        {
          "internalType": "uint256[]",
          "name": "addrs",
          "type": "uint256[]"
        }
      ],
      "payable": false,
      "stateMutability": "view",
      "type": "function"
    }
  ],
  "bytecode": "0x608060405234801561001057600080fd5b50336000806101000a81548173ffffffffffffffffffffffffffffffffffffffff021916908373ffffffffffffffffffffffffffffffffffffffff160217905550611ae2806100606000396000f3fe608060405234801561001057600080fd5b506004361061009e5760003560e01c8063a33729a711610066578063a33729a7146101b9578063e1a6f499146101f1578063ed9ff0e0146102e0578063eddbe4a914610324578063f79d197f146103835761009e565b806339eb375e146100a35780633c6625d9146100ef5780635badbe4c146101335780638da5cb5b14610151578063a0e818b01461019b575b600080fd5b6100d9600480360360408110156100b957600080fd5b81019080803590602001909291908035906020019092919050505061044e565b6040518082815260200191505060405180910390f35b6101316004803603602081101561010557600080fd5b81019080803573ffffffffffffffffffffffffffffffffffffffff169060200190929190505050610608565b005b61013b6107d0565b6040518082815260200191505060405180910390f35b6101596107dd565b604051808273ffffffffffffffffffffffffffffffffffffffff1673ffffffffffffffffffffffffffffffffffffffff16815260200191505060405180910390f35b6101a3610802565b6040518082815260200191505060405180910390f35b6101ef600480360360408110156101cf57600080fd5b81019080803590602001909291908035906020019092919050505061080f565b005b6101f9610920565b60405180806020018060200180602001848103845287818151815260200191508051906020019060200280838360005b83811015610244578082015181840152602081019050610229565b50505050905001848103835286818151815260200191508051906020019060200280838360005b8381101561028657808201518184015260208101905061026b565b50505050905001848103825285818151815260200191508051906020019060200280838360005b838110156102c85780820151818401526020810190506102ad565b50505050905001965050505050505060405180910390f35b610322600480360360208110156102f657600080fd5b81019080803573ffffffffffffffffffffffffffffffffffffffff169060200190929190505050610aea565b005b61032c610eb1565b6040518080602001828103825283818151815260200191508051906020019060200280838360005b8381101561036f578082015181840152602081019050610354565b505050509050019250505060405180910390f35b6103af6004803603602081101561039957600080fd5b8101908080359060200190929190505050610f3f565b604051808060200180602001838103835285818151815260200191508051906020019060200280838360005b838110156103f65780820151818401526020810190506103db565b50505050905001838103825284818151815260200191508051906020019060200280838360005b8381101561043857808201518184015260208101905061041d565b5050505090500194505050505060405180910390f35b600080600090505b6002805490508110156105f857836002828154811061047157fe5b9060005260206000200160009054906101000a900473ffffffffffffffffffffffffffffffffffffffff1673ffffffffffffffffffffffffffffffffffffffff1663bb412a086040518163ffffffff1660e01b815260040160206040518083038186803b1580156104e157600080fd5b505afa1580156104f5573d6000803e3d6000fd5b505050506040513d602081101561050b57600080fd5b810190808051906020019092919050505014156105ed576002818154811061052f57fe5b9060005260206000200160009054906101000a900473ffffffffffffffffffffffffffffffffffffffff1673ffffffffffffffffffffffffffffffffffffffff16630d82502b846040518263ffffffff1660e01b81526004018082815260200191505060206040518083038186803b1580156105aa57600080fd5b505afa1580156105be573d6000803e3d6000fd5b505050506040513d60208110156105d457600080fd5b8101908080519060200190929190505050915050610602565b806001019050610456565b50600061060157fe5b5b92915050565b6000809054906101000a900473ffffffffffffffffffffffffffffffffffffffff1673ffffffffffffffffffffffffffffffffffffffff163373ffffffffffffffffffffffffffffffffffffffff16146106ca576040517f08c379a00000000000000000000000000000000000000000000000000000000081526004018080602001828103825260198152602001807f4f6e6c79206f776e65722063616e2063616c6c20746869732e0000000000000081525060200191505060405180910390fd5b60006106d582611185565b90506106df61157d565b600182815481106106ec57fe5b90600052602060002090600302016040518060600160405290816000820160009054906101000a900473ffffffffffffffffffffffffffffffffffffffff1673ffffffffffffffffffffffffffffffffffffffff1673ffffffffffffffffffffffffffffffffffffffff16815260200160018201548152602001600282015481525050905061077a8261122f565b806000015173ffffffffffffffffffffffffffffffffffffffff16816040015182602001517faa2121944425e43f2297f381f23a092fed43a5488ef0fecd53e14c50aba19db460405160405180910390a4505050565b6000600180549050905090565b6000809054906101000a900473ffffffffffffffffffffffffffffffffffffffff1681565b6000600280549050905090565b61081761157d565b60405180606001604052803373ffffffffffffffffffffffffffffffffffffffff1681526020018481526020018381525090506001819080600181540180825580915050906001820390600052602060002090600302016000909192909190915060008201518160000160006101000a81548173ffffffffffffffffffffffffffffffffffffffff021916908373ffffffffffffffffffffffffffffffffffffffff16021790555060208201518160010155604082015181600201555050503373ffffffffffffffffffffffffffffffffffffffff1682847f43bb7eef0105b618dfc311160f1de537bd2d6492736f334a26a29d6a50d8fea860405160405180910390a4505050565b60608060606001805490506040519080825280602002602001820160405280156109595781602001602082028038833980820191505090505b5092506001805490506040519080825280602002602001820160405280156109905781602001602082028038833980820191505090505b5091506001805490506040519080825280602002602001820160405280156109c75781602001602082028038833980820191505090505b50905060008090505b600180549050811015610adb57600181815481106109ea57fe5b906000526020600020906003020160000160009054906101000a900473ffffffffffffffffffffffffffffffffffffffff16848281518110610a2857fe5b602002602001019073ffffffffffffffffffffffffffffffffffffffff16908173ffffffffffffffffffffffffffffffffffffffff168152505060018181548110610a6f57fe5b906000526020600020906003020160010154838281518110610a8d57fe5b60200260200101818152505060018181548110610aa657fe5b906000526020600020906003020160020154828281518110610ac457fe5b6020026020010181815250508060010190506109d0565b50828282925092509250909192565b6000809054906101000a900473ffffffffffffffffffffffffffffffffffffffff1673ffffffffffffffffffffffffffffffffffffffff163373ffffffffffffffffffffffffffffffffffffffff1614610bac576040517f08c379a00000000000000000000000000000000000000000000000000000000081526004018080602001828103825260198152602001807f4f6e6c79206f776e65722063616e2063616c6c20746869732e0000000000000081525060200191505060405180910390fd5b6000610bb782611185565b9050610bc161157d565b60018281548110610bce57fe5b90600052602060002090600302016040518060600160405290816000820160009054906101000a900473ffffffffffffffffffffffffffffffffffffffff1673ffffffffffffffffffffffffffffffffffffffff1673ffffffffffffffffffffffffffffffffffffffff168152602001600182015481526020016002820154815250509050610c5c8261122f565b600081602001511415610da757600081600001518260400151604051610c81906115b4565b808373ffffffffffffffffffffffffffffffffffffffff1673ffffffffffffffffffffffffffffffffffffffff16815260200182815260200192505050604051809103906000f080158015610cda573d6000803e3d6000fd5b50905060028190806001815401808255809150509060018203906000526020600020016000909192909190916101000a81548173ffffffffffffffffffffffffffffffffffffffff021916908373ffffffffffffffffffffffffffffffffffffffff16021790555050816000015173ffffffffffffffffffffffffffffffffffffffff168173ffffffffffffffffffffffffffffffffffffffff167f729054d7aa2466aaa5a9f8c236074bbead8f217ee02b07119436c3df0dc1790f60405160405180910390a350610e5b565b610db48160000151611365565b9150600060028381548110610dc557fe5b9060005260206000200160009054906101000a900473ffffffffffffffffffffffffffffffffffffffff169050610dfb83611488565b816000015173ffffffffffffffffffffffffffffffffffffffff168173ffffffffffffffffffffffffffffffffffffffff167fa5c2d2029cb3c60daac6e0e95ec341a4e00cd215d8dfac371740a7eb38600d5960405160405180910390a3505b806000015173ffffffffffffffffffffffffffffffffffffffff16816040015182602001517fef2a3e5a146b6e39b044d3cf7f592f464a0e9cf2d11762172e87e7333edcae9f60405160405180910390a4505050565b60606002805480602002602001604051908101604052809291908181526020018280548015610f3557602002820191906000526020600020905b8160009054906101000a900473ffffffffffffffffffffffffffffffffffffffff1673ffffffffffffffffffffffffffffffffffffffff1681526020019060010190808311610eeb575b5050505050905090565b606080600280549050604051908082528060200260200182016040528015610f765781602001602082028038833980820191505090505b509150600280549050604051908082528060200260200182016040528015610fad5781602001602082028038833980820191505090505b50905060008090505b6002805490508110156111795760028181548110610fd057fe5b9060005260206000200160009054906101000a900473ffffffffffffffffffffffffffffffffffffffff1673ffffffffffffffffffffffffffffffffffffffff1663bb412a086040518163ffffffff1660e01b815260040160206040518083038186803b15801561104057600080fd5b505afa158015611054573d6000803e3d6000fd5b505050506040513d602081101561106a57600080fd5b810190808051906020019092919050505083828151811061108757fe5b602002602001018181525050600281815481106110a057fe5b9060005260206000200160009054906101000a900473ffffffffffffffffffffffffffffffffffffffff1673ffffffffffffffffffffffffffffffffffffffff16630d82502b856040518263ffffffff1660e01b81526004018082815260200191505060206040518083038186803b15801561111b57600080fd5b505afa15801561112f573d6000803e3d6000fd5b505050506040513d602081101561114557600080fd5b810190808051906020019092919050505082828151811061116257fe5b602002602001018181525050806001019050610fb6565b50818191509150915091565b600080600090505b600180549050811015611220578273ffffffffffffffffffffffffffffffffffffffff16600182815481106111be57fe5b906000526020600020906003020160000160009054906101000a900473ffffffffffffffffffffffffffffffffffffffff1673ffffffffffffffffffffffffffffffffffffffff161415611215578091505061122a565b80600101905061118d565b50600061122957fe5b5b919050565b60008190505b6001805490506001820110156113065760018082018154811061125457fe5b90600052602060002090600302016001828154811061126f57fe5b90600052602060002090600302016000820160009054906101000a900473ffffffffffffffffffffffffffffffffffffffff168160000160006101000a81548173ffffffffffffffffffffffffffffffffffffffff021916908373ffffffffffffffffffffffffffffffffffffffff1602179055506001820154816001015560028201548160020155905050806001019050611235565b50600180548061131257fe5b6001900381819060005260206000209060030201600080820160006101000a81549073ffffffffffffffffffffffffffffffffffffffff0219169055600182016000905560028201600090555050905550565b600080600090505b600280549050811015611479578273ffffffffffffffffffffffffffffffffffffffff166002828154811061139e57fe5b9060005260206000200160009054906101000a900473ffffffffffffffffffffffffffffffffffffffff1673ffffffffffffffffffffffffffffffffffffffff1663af640d0f6040518163ffffffff1660e01b815260040160206040518083038186803b15801561140e57600080fd5b505afa158015611422573d6000803e3d6000fd5b505050506040513d602081101561143857600080fd5b810190808051906020019092919050505073ffffffffffffffffffffffffffffffffffffffff16141561146e5780915050611483565b80600101905061136d565b50600061148257fe5b5b919050565b60008190505b60028054905060018201101561153957600260018201815481106114ae57fe5b9060005260206000200160009054906101000a900473ffffffffffffffffffffffffffffffffffffffff16600282815481106114e657fe5b9060005260206000200160006101000a81548173ffffffffffffffffffffffffffffffffffffffff021916908373ffffffffffffffffffffffffffffffffffffffff16021790555080600101905061148e565b50600280548061154557fe5b6001900381819060005260206000200160006101000a81549073ffffffffffffffffffffffffffffffffffffffff0219169055905550565b6040518060600160405280600073ffffffffffffffffffffffffffffffffffffffff16815260200160008152602001600081525090565b6104ec806115c28339019056fe608060405234801561001057600080fd5b506040516104ec3803806104ec8339818101604052604081101561003357600080fd5b810190808051906020019092919080519060200190929190505050816000806101000a81548173ffffffffffffffffffffffffffffffffffffffff021916908373ffffffffffffffffffffffffffffffffffffffff160217905550806001819055505050610446806100a66000396000f3fe608060405234801561001057600080fd5b506004361061004c5760003560e01c80630d82502b14610051578063af640d0f14610093578063bb412a08146100dd578063e9c44c5e146100fb575b600080fd5b61007d6004803603602081101561006757600080fd5b8101908080359060200190929190505050610133565b6040518082815260200191505060405180910390f35b61009b610240565b604051808273ffffffffffffffffffffffffffffffffffffffff1673ffffffffffffffffffffffffffffffffffffffff16815260200191505060405180910390f35b6100e5610265565b6040518082815260200191505060405180910390f35b6101316004803603604081101561011157600080fd5b81019080803590602001909291908035906020019092919050505061026b565b005b60008060028054905014806101665750600260008154811061015157fe5b90600052602060002090600202016001015482105b15610174576000905061023b565b6000600190505b60028054905081101561021057826002600183038154811061019957fe5b906000526020600020906002020160010154111580156101d6575082600282815481106101c257fe5b906000526020600020906002020160010154115b1561020557600260018203815481106101eb57fe5b90600052602060002090600202016000015491505061023b565b80600101905061017b565b5060026001600280549050038154811061022657fe5b90600052602060002090600202016000015490505b919050565b6000809054906101000a900473ffffffffffffffffffffffffffffffffffffffff1681565b60015481565b6000809054906101000a900473ffffffffffffffffffffffffffffffffffffffff1673ffffffffffffffffffffffffffffffffffffffff163373ffffffffffffffffffffffffffffffffffffffff161461032d576040517f08c379a00000000000000000000000000000000000000000000000000000000081526004018080602001828103825260198152602001807f4f6e6c79206f776e65722063616e2063616c6c20746869732e0000000000000081525060200191505060405180910390fd5b600060028054905090505b816002828154811061034657fe5b906000526020600020906002020160010154106103695780600190039050610338565b5b6001810160028054905011156103b357600280548061038557fe5b600190038181906000526020600020906002020160008082016000905560018201600090555050905561036a565b600260405180604001604052808581526020018481525090806001815401808255809150509060018203906000526020600020906002020160009091929091909150600082015181600001556020820151816001015550505050505056fea265627a7a72315820b7a47dcc3bb6be67799dce21e84f4bfbbbf7e418c66c3f83a51324231e911f3f64736f6c63430005100032a265627a7a723158203899bef7c2fd5970d9c53429f38744b94854d1f9a5b53e78194608cb9dc79e2a64736f6c63430005100032",
  "source": "pragma solidity >=0.4.21 <0.7.0;\n\nimport \"./ASInfo.sol\";\n\ncontract SMARegister {\n\n    modifier onlyOwner {\n        require(\n            msg.sender == owner,\n            \"Only owner can call this.\"\n        );\n        _;\n    }\n\n    struct ASRequest {\n        address id;\n        uint256 reqType;\n        uint256 asn;\n    }\n\n    // administrator address of security aliance\n    address public owner;\n\n    // AS join request queue\n    ASRequest[] private _reqs;\n\n    // AS queue\n    ASInfo[] private _ases;\n\n\n    // events\n    event ASRequestCreated(uint256 indexed reqType, uint256 indexed asn, address indexed id);\n    event ASRequestApproved(uint256 indexed reqType, uint256 indexed asn, address indexed id);\n    event ASRequestRejected(uint256 indexed reqType, uint256 indexed asn, address indexed id);\n    event ASCreated(ASInfo indexed asInfo, address indexed id);\n    event ASDeleted(ASInfo indexed asInfo, address indexed id);\n\n    constructor() public {\n        owner = msg.sender;\n    }\n\n    function createASRequest(\n        uint256 _reqType,\n        uint256 _asn\n    )\n        public\n    {\n        ASRequest memory req = ASRequest(\n            msg.sender,\n            _reqType,\n            _asn\n        );\n        _reqs.push(req);\n        emit ASRequestCreated(_reqType, _asn, msg.sender);\n    }\n\n    function requestQuery() public view returns (\n        address[] memory ids,\n        uint256[] memory reqTypes,\n        uint256[] memory asns)\n    {\n        ids = new address[](_reqs.length);\n        reqTypes = new uint256[](_reqs.length);\n        asns = new uint256[](_reqs.length);\n        for (uint256 i = 0; i < _reqs.length; ++i) {\n            ids[i] = _reqs[i].id;\n            reqTypes[i] = _reqs[i].reqType;\n            asns[i] = _reqs[i].asn;\n        }\n        return (ids, reqTypes, asns);\n    }\n\n    function requestCount() public view returns (uint256) {\n        return _reqs.length;\n    }\n\n    function asQuery() public view returns (ASInfo[] memory) {\n        return _ases;\n    }\n\n    function asCount() public view returns (uint256) {\n        return _ases.length;\n    }\n\n    function findIndexFromReqs(address id) private view returns (uint256){\n        for (uint256 i = 0; i < _reqs.length; ++i) {\n            if (_reqs[i].id == id) {\n                return i;\n            }\n        }\n        assert(false);\n    }\n\n    function removeFromReqs(uint256 index) private {\n        for (uint256 i = index; i + 1 < _reqs.length; ++i) {\n            _reqs[i] = _reqs[i + 1];\n        }\n        _reqs.pop();\n    }\n\n    function findIndexFromAses(address id) private view returns (uint256){\n        for (uint256 i = 0; i < _ases.length; ++i) {\n            if (_ases[i].id() == id) {\n                return i;\n            }\n        }\n        assert(false);\n    }\n\n    function removeFromAses(uint256 index) private {\n        for (uint256 i = index; i + 1 < _ases.length; ++i) {\n            _ases[i] = _ases[i + 1];\n        }\n        _ases.pop();\n    }\n\n    function requestApprove(address id) public onlyOwner {\n        uint256 index = findIndexFromReqs(id);\n        ASRequest memory req = _reqs[index];\n        removeFromReqs(index);\n        if (req.reqType == 0) {\n            ASInfo asInfo = new ASInfo(\n                req.id,\n                req.asn\n            );\n            _ases.push(asInfo);\n            emit ASCreated(asInfo, req.id);\n        } else {\n            index = findIndexFromAses(req.id);\n            ASInfo asInfo = _ases[index];\n            removeFromAses(index);\n            emit ASDeleted(asInfo, req.id);\n        }\n        emit ASRequestApproved(req.reqType, req.asn, req.id);\n    }\n\n    function requestReject(address id) public onlyOwner {\n        uint256 index = findIndexFromReqs(id);\n        ASRequest memory req = _reqs[index];\n        removeFromReqs(index);\n        emit ASRequestRejected(req.reqType, req.asn, req.id);\n    }\n\n    function singleACSQuery(uint256 asn, uint256 time) public view returns(uint256) {\n        for (uint256 i = 0; i < _ases.length; ++i) {\n            if (_ases[i].asn() == asn) {\n                return _ases[i].getCurrentACS(time);\n            }\n        }\n        assert(false);\n    }\n\n    function allACSQuery(uint256 time) public view returns(uint256[] memory asns, uint256[] memory addrs) {\n        asns = new uint256[](_ases.length);\n        addrs = new uint256[](_ases.length);\n        for (uint256 i = 0; i < _ases.length; ++i) {\n            asns[i] = _ases[i].asn();\n            addrs[i] = _ases[i].getCurrentACS(time);\n        }\n        return (asns, addrs);\n    }\n}",
  "sourcePath": "/Users/bragcat/Code/RegChain/contracts/SMARegister.sol",
  "compiler": {
    "name": "solc",
    "version": "0.5.16+commit.9c3226ce.Emscripten.clang"
  },
  "schemaVersion": "3.0.23",
  "updatedAt": "2020-05-09T12:39:56.607Z",
  "devdoc": {
    "methods": {}
  },
  "userdoc": {
    "methods": {}
  }
}