{
  "contractName": "SMARegister",
  "abi": [
    {
      "inputs": [],
      "payable": false,
      "stateMutability": "nonpayable",
      "type": "constructor"
    },
    {
      "anonymous": false,
      "inputs": [
        {
          "indexed": true,
          "internalType": "contract ASInfo",
          "name": "asInfo",
          "type": "address"
        },
        {
          "indexed": true,
          "internalType": "address",
          "name": "account",
          "type": "address"
        }
      ],
      "name": "ASCreated",
      "type": "event"
    },
    {
      "anonymous": false,
      "inputs": [
        {
          "indexed": true,
          "internalType": "contract ASInfo",
          "name": "asInfo",
          "type": "address"
        },
        {
          "indexed": true,
          "internalType": "address",
          "name": "account",
          "type": "address"
        }
      ],
      "name": "ASDeleted",
      "type": "event"
    },
    {
      "anonymous": false,
      "inputs": [
        {
          "indexed": true,
          "internalType": "uint256",
          "name": "reqType",
          "type": "uint256"
        },
        {
          "indexed": true,
          "internalType": "uint256",
          "name": "asn",
          "type": "uint256"
        },
        {
          "indexed": true,
          "internalType": "address",
          "name": "account",
          "type": "address"
        }
      ],
      "name": "ASRequestApproved",
      "type": "event"
    },
    {
      "anonymous": false,
      "inputs": [
        {
          "indexed": true,
          "internalType": "uint256",
          "name": "reqType",
          "type": "uint256"
        },
        {
          "indexed": true,
          "internalType": "uint256",
          "name": "asn",
          "type": "uint256"
        },
        {
          "indexed": true,
          "internalType": "address",
          "name": "account",
          "type": "address"
        }
      ],
      "name": "ASRequestRejected",
      "type": "event"
    },
    {
      "anonymous": false,
      "inputs": [
        {
          "indexed": true,
          "internalType": "uint256",
          "name": "reqType",
          "type": "uint256"
        },
        {
          "indexed": true,
          "internalType": "uint256",
          "name": "asn",
          "type": "uint256"
        },
        {
          "indexed": true,
          "internalType": "address",
          "name": "account",
          "type": "address"
        }
      ],
      "name": "ASRequestSubmitted",
      "type": "event"
    },
    {
      "constant": true,
      "inputs": [],
      "name": "owner",
      "outputs": [
        {
          "internalType": "address",
          "name": "",
          "type": "address"
        }
      ],
      "payable": false,
      "stateMutability": "view",
      "type": "function"
    },
    {
      "constant": true,
      "inputs": [
        {
          "internalType": "address",
          "name": "x",
          "type": "address"
        }
      ],
      "name": "toBytes",
      "outputs": [
        {
          "internalType": "bytes20",
          "name": "",
          "type": "bytes20"
        }
      ],
      "payable": false,
      "stateMutability": "pure",
      "type": "function"
    },
    {
      "constant": false,
      "inputs": [
        {
          "internalType": "uint256",
          "name": "_reqType",
          "type": "uint256"
        },
        {
          "internalType": "uint256",
          "name": "_asn",
          "type": "uint256"
        },
        {
          "internalType": "string",
          "name": "_name",
          "type": "string"
        },
        {
          "internalType": "string",
          "name": "_description",
          "type": "string"
        }
      ],
      "name": "createASRequest",
      "outputs": [],
      "payable": false,
      "stateMutability": "nonpayable",
      "type": "function"
    },
    {
      "constant": true,
      "inputs": [
        {
          "internalType": "bytes20",
          "name": "id",
          "type": "bytes20"
        }
      ],
      "name": "requestDetailQuery",
      "outputs": [
        {
          "internalType": "uint256",
          "name": "reqType",
          "type": "uint256"
        },
        {
          "internalType": "uint256",
          "name": "asn",
          "type": "uint256"
        },
        {
          "internalType": "string",
          "name": "name",
          "type": "string"
        },
        {
          "internalType": "string",
          "name": "description",
          "type": "string"
        }
      ],
      "payable": false,
      "stateMutability": "view",
      "type": "function"
    },
    {
      "constant": true,
      "inputs": [],
      "name": "requestIdQuery",
      "outputs": [
        {
          "internalType": "bytes20[]",
          "name": "ids",
          "type": "bytes20[]"
        }
      ],
      "payable": false,
      "stateMutability": "view",
      "type": "function"
    },
    {
      "constant": true,
      "inputs": [],
      "name": "requestCount",
      "outputs": [
        {
          "internalType": "uint256",
          "name": "",
          "type": "uint256"
        }
      ],
      "payable": false,
      "stateMutability": "view",
      "type": "function"
    },
    {
      "constant": true,
      "inputs": [],
      "name": "asQuery",
      "outputs": [
        {
          "internalType": "contract ASInfo[]",
          "name": "",
          "type": "address[]"
        }
      ],
      "payable": false,
      "stateMutability": "view",
      "type": "function"
    },
    {
      "constant": true,
      "inputs": [],
      "name": "asCount",
      "outputs": [
        {
          "internalType": "uint256",
          "name": "",
          "type": "uint256"
        }
      ],
      "payable": false,
      "stateMutability": "view",
      "type": "function"
    },
    {
      "constant": false,
      "inputs": [
        {
          "internalType": "bytes20",
          "name": "id",
          "type": "bytes20"
        }
      ],
      "name": "requestApprove",
      "outputs": [],
      "payable": false,
      "stateMutability": "nonpayable",
      "type": "function"
    },
    {
      "constant": false,
      "inputs": [
        {
          "internalType": "bytes20",
          "name": "id",
          "type": "bytes20"
        }
      ],
      "name": "requestReject",
      "outputs": [],
      "payable": false,
      "stateMutability": "nonpayable",
      "type": "function"
    },
    {
      "constant": true,
      "inputs": [
        {
          "internalType": "uint256",
          "name": "asn",
          "type": "uint256"
        },
        {
          "internalType": "uint256",
          "name": "time",
          "type": "uint256"
        }
      ],
      "name": "singleACSQuery",
      "outputs": [
        {
          "internalType": "string",
          "name": "",
          "type": "string"
        }
      ],
      "payable": false,
      "stateMutability": "view",
      "type": "function"
    }
  ],
  "bytecode": "0x608060405234801561001057600080fd5b50336000806101000a81548173ffffffffffffffffffffffffffffffffffffffff021916908373ffffffffffffffffffffffffffffffffffffffff160217905550613197806100606000396000f3fe60806040523480156200001157600080fd5b5060043610620000b85760003560e01c806368829a33116200007b57806368829a3314620003bc5780638da5cb5b14620003fc578063a0e818b01462000448578063e47837b41462000468578063eddbe4a914620004cb578063f79e6d27146200052e57620000b8565b80630905003114620000bd578063276a8f31146200022c57806339eb375e146200026c578063593b79fe14620003235780635badbe4c146200039c575b600080fd5b6200022a60048036036080811015620000d557600080fd5b810190808035906020019092919080359060200190929190803590602001906401000000008111156200010757600080fd5b8201836020820111156200011a57600080fd5b803590602001918460018302840111640100000000831117156200013d57600080fd5b91908080601f016020809104026020016040519081016040528093929190818152602001838380828437600081840152601f19601f82011690508083019250505050505050919291929080359060200190640100000000811115620001a157600080fd5b820183602082011115620001b457600080fd5b80359060200191846001830284011164010000000083111715620001d757600080fd5b91908080601f016020809104026020016040519081016040528093929190818152602001838380828437600081840152601f19601f82011690508083019250505050505050919291929050505062000667565b005b6200026a600480360360208110156200024457600080fd5b8101908080356bffffffffffffffffffffffff1916906020019092919050505062000a89565b005b620002a5600480360360408110156200028457600080fd5b810190808035906020019092919080359060200190929190505050620010f5565b6040518080602001828103825283818151815260200191508051906020019080838360005b83811015620002e7578082015181840152602081019050620002ca565b50505050905090810190601f168015620003155780820380516001836020036101000a031916815260200191505b509250505060405180910390f35b62000368600480360360208110156200033b57600080fd5b81019080803573ffffffffffffffffffffffffffffffffffffffff16906020019092919050505062001380565b60405180826bffffffffffffffffffffffff19166bffffffffffffffffffffffff1916815260200191505060405180910390f35b620003a662001419565b6040518082815260200191505060405180910390f35b620003fa60048036036020811015620003d457600080fd5b8101908080356bffffffffffffffffffffffff1916906020019092919050505062001426565b005b6200040662001777565b604051808273ffffffffffffffffffffffffffffffffffffffff1673ffffffffffffffffffffffffffffffffffffffff16815260200191505060405180910390f35b620004526200179c565b6040518082815260200191505060405180910390f35b62000472620017a9565b6040518080602001828103825283818151815260200191508051906020019060200280838360005b83811015620004b75780820151818401526020810190506200049a565b505050509050019250505060405180910390f35b620004d562001870565b6040518080602001828103825283818151815260200191508051906020019060200280838360005b838110156200051a578082015181840152602081019050620004fd565b505050509050019250505060405180910390f35b6200056c600480360360208110156200054657600080fd5b8101908080356bffffffffffffffffffffffff1916906020019092919050505062001900565b604051808581526020018481526020018060200180602001838103835285818151815260200191508051906020019080838360005b83811015620005be578082015181840152602081019050620005a1565b50505050905090810190601f168015620005ec5780820380516001836020036101000a031916815260200191505b50838103825284818151815260200191508051906020019080838360005b83811015620006275780820151818401526020810190506200060a565b50505050905090810190601f168015620006555780820380516001836020036101000a031916815260200191505b50965050505050505060405180910390f35b6000620006743362001380565b90506000851415620006e9576200068b8462001b58565b15620006e3576040517f08c379a0000000000000000000000000000000000000000000000000000000008152600401808060200182810382526022815260200180620031416022913960400191505060405180910390fd5b62000768565b620006f48462001b58565b62000767576040517f08c379a000000000000000000000000000000000000000000000000000000000815260040180806020018281038252601c8152602001807f546865204153206e756d62657220776173206e6f7420666f756e642e0000000081525060200191505060405180910390fd5b5b6200077262002116565b6040518060c001604052803373ffffffffffffffffffffffffffffffffffffffff168152602001836bffffffffffffffffffffffff19168152602001878152602001868152602001858152602001848152509050600080905060008090505b6001805490508110156200093557836bffffffffffffffffffffffff191660018281548110620007fd57fe5b906000526020600020906006020160010160009054906101000a900460601b6bffffffffffffffffffffffff19161415620009295782600182815481106200084157fe5b906000526020600020906006020160008201518160000160006101000a81548173ffffffffffffffffffffffffffffffffffffffff021916908373ffffffffffffffffffffffffffffffffffffffff16021790555060208201518160010160006101000a81548173ffffffffffffffffffffffffffffffffffffffff021916908360601c021790555060408201518160020155606082015181600301556080820151816004019080519060200190620008fc92919062002171565b5060a08201518160050190805190602001906200091b92919062002171565b509050506001915062000935565b806001019050620007d1565b508062000a3b576001829080600181540180825580915050906001820390600052602060002090600602016000909192909190915060008201518160000160006101000a81548173ffffffffffffffffffffffffffffffffffffffff021916908373ffffffffffffffffffffffffffffffffffffffff16021790555060208201518160010160006101000a81548173ffffffffffffffffffffffffffffffffffffffff021916908360601c02179055506040820151816002015560608201518160030155608082015181600401908051906020019062000a1792919062002171565b5060a082015181600501908051906020019062000a3692919062002171565b505050505b3373ffffffffffffffffffffffffffffffffffffffff1686887f25b07fd4d2a78120b73b482d708bc282c483d65ce51ddb0d1de7012be5619a5c60405160405180910390a450505050505050565b6000809054906101000a900473ffffffffffffffffffffffffffffffffffffffff1673ffffffffffffffffffffffffffffffffffffffff163373ffffffffffffffffffffffffffffffffffffffff161462000b4c576040517f08c379a00000000000000000000000000000000000000000000000000000000081526004018080602001828103825260198152602001807f4f6e6c79206f776e65722063616e2063616c6c20746869732e0000000000000081525060200191505060405180910390fd5b600062000b598262001c54565b905062000b6562002116565b6001828154811062000b7357fe5b90600052602060002090600602016040518060c00160405290816000820160009054906101000a900473ffffffffffffffffffffffffffffffffffffffff1673ffffffffffffffffffffffffffffffffffffffff1673ffffffffffffffffffffffffffffffffffffffff1681526020016001820160009054906101000a900460601b6bffffffffffffffffffffffff19166bffffffffffffffffffffffff191681526020016002820154815260200160038201548152602001600482018054600181600116156101000203166002900480601f01602080910402602001604051908101604052809291908181526020018280546001816001161561010002031660029004801562000cc85780601f1062000c9c5761010080835404028352916020019162000cc8565b820191906000526020600020905b81548152906001019060200180831162000caa57829003601f168201915b50505050508152602001600582018054600181600116156101000203166002900480601f01602080910402602001604051908101604052809291908181526020018280546001816001161561010002031660029004801562000d6e5780601f1062000d425761010080835404028352916020019162000d6e565b820191906000526020600020905b81548152906001019060200180831162000d5057829003601f168201915b505050505081525050905062000d848262001ce3565b60008160400151141562000fe657600081600001518260200151836060015184608001518560a0015160405162000dbb90620021f8565b808673ffffffffffffffffffffffffffffffffffffffff1673ffffffffffffffffffffffffffffffffffffffff168152602001856bffffffffffffffffffffffff19166bffffffffffffffffffffffff191681526020018481526020018060200180602001838103835285818151815260200191508051906020019080838360005b8381101562000e5a57808201518184015260208101905062000e3d565b50505050905090810190601f16801562000e885780820380516001836020036101000a031916815260200191505b50838103825284818151815260200191508051906020019080838360005b8381101562000ec357808201518184015260208101905062000ea6565b50505050905090810190601f16801562000ef15780820380516001836020036101000a031916815260200191505b50975050505050505050604051809103906000f08015801562000f18573d6000803e3d6000fd5b50905060028190806001815401808255809150509060018203906000526020600020016000909192909190916101000a81548173ffffffffffffffffffffffffffffffffffffffff021916908373ffffffffffffffffffffffffffffffffffffffff16021790555050816000015173ffffffffffffffffffffffffffffffffffffffff168173ffffffffffffffffffffffffffffffffffffffff167f729054d7aa2466aaa5a9f8c236074bbead8f217ee02b07119436c3df0dc1790f60405160405180910390a3506200109f565b62000ff5816020015162001efe565b91506000600283815481106200100757fe5b9060005260206000200160009054906101000a900473ffffffffffffffffffffffffffffffffffffffff1690506200103f836200201c565b816000015173ffffffffffffffffffffffffffffffffffffffff168173ffffffffffffffffffffffffffffffffffffffff167fa5c2d2029cb3c60daac6e0e95ec341a4e00cd215d8dfac371740a7eb38600d5960405160405180910390a3505b806000015173ffffffffffffffffffffffffffffffffffffffff16816060015182604001517fef2a3e5a146b6e39b044d3cf7f592f464a0e9cf2d11762172e87e7333edcae9f60405160405180910390a4505050565b606060008090505b6002805490508110156200136f5783600282815481106200111a57fe5b9060005260206000200160009054906101000a900473ffffffffffffffffffffffffffffffffffffffff1673ffffffffffffffffffffffffffffffffffffffff1663bb412a086040518163ffffffff1660e01b815260040160206040518083038186803b1580156200118b57600080fd5b505afa158015620011a0573d6000803e3d6000fd5b505050506040513d6020811015620011b757600080fd5b81019080805190602001909291905050501415620013635760028181548110620011dd57fe5b9060005260206000200160009054906101000a900473ffffffffffffffffffffffffffffffffffffffff1673ffffffffffffffffffffffffffffffffffffffff16630d82502b846040518263ffffffff1660e01b81526004018082815260200191505060006040518083038186803b1580156200125957600080fd5b505afa1580156200126e573d6000803e3d6000fd5b505050506040513d6000823e3d601f19601f8201168201806040525060208110156200129957600080fd5b8101908080516040519392919084640100000000821115620012ba57600080fd5b83820191506020820185811115620012d157600080fd5b8251866001820283011164010000000082111715620012ef57600080fd5b8083526020830192505050908051906020019080838360005b838110156200132557808201518184015260208101905062001308565b50505050905090810190601f168015620013535780820380516001836020036101000a031916815260200191505b506040525050509150506200137a565b806001019050620010fd565b5060006200137957fe5b5b92915050565b60008060008090505b60148110156200140f576008810260ff60f81b8260130360080260020a8673ffffffffffffffffffffffffffffffffffffffff1681620013c557fe5b0460f81b167effffffffffffffffffffffffffffffffffffffffffffffffffffffffffffff19166bffffffffffffffffffffffff1916901c82179150808060010191505062001389565b5080915050919050565b6000600180549050905090565b6000809054906101000a900473ffffffffffffffffffffffffffffffffffffffff1673ffffffffffffffffffffffffffffffffffffffff163373ffffffffffffffffffffffffffffffffffffffff1614620014e9576040517f08c379a00000000000000000000000000000000000000000000000000000000081526004018080602001828103825260198152602001807f4f6e6c79206f776e65722063616e2063616c6c20746869732e0000000000000081525060200191505060405180910390fd5b6000620014f68262001c54565b90506200150262002116565b600182815481106200151057fe5b90600052602060002090600602016040518060c00160405290816000820160009054906101000a900473ffffffffffffffffffffffffffffffffffffffff1673ffffffffffffffffffffffffffffffffffffffff1673ffffffffffffffffffffffffffffffffffffffff1681526020016001820160009054906101000a900460601b6bffffffffffffffffffffffff19166bffffffffffffffffffffffff191681526020016002820154815260200160038201548152602001600482018054600181600116156101000203166002900480601f016020809104026020016040519081016040528092919081815260200182805460018160011615610100020316600290048015620016655780601f10620016395761010080835404028352916020019162001665565b820191906000526020600020905b8154815290600101906020018083116200164757829003601f168201915b50505050508152602001600582018054600181600116156101000203166002900480601f0160208091040260200160405190810160405280929190818152602001828054600181600116156101000203166002900480156200170b5780601f10620016df576101008083540402835291602001916200170b565b820191906000526020600020905b815481529060010190602001808311620016ed57829003601f168201915b5050505050815250509050620017218262001ce3565b806000015173ffffffffffffffffffffffffffffffffffffffff16816060015182604001517faa2121944425e43f2297f381f23a092fed43a5488ef0fecd53e14c50aba19db460405160405180910390a4505050565b6000809054906101000a900473ffffffffffffffffffffffffffffffffffffffff1681565b6000600280549050905090565b6060600180549050604051908082528060200260200182016040528015620017e05781602001602082028038833980820191505090505b50905060008090505b6001805490508110156200186957600181815481106200180557fe5b906000526020600020906006020160010160009054906101000a900460601b8282815181106200183157fe5b60200260200101906bffffffffffffffffffffffff191690816bffffffffffffffffffffffff191681525050806001019050620017e9565b5080905090565b60606002805480602002602001604051908101604052809291908181526020018280548015620018f657602002820191906000526020600020905b8160009054906101000a900473ffffffffffffffffffffffffffffffffffffffff1673ffffffffffffffffffffffffffffffffffffffff1681526020019060010190808311620018ab575b5050505050905090565b60008060608060008090505b60018054905081101562001b4657856bffffffffffffffffffffffff1916600182815481106200193857fe5b906000526020600020906006020160010160009054906101000a900460601b6bffffffffffffffffffffffff1916141562001b3a57600181815481106200197b57fe5b906000526020600020906006020160020154600182815481106200199b57fe5b90600052602060002090600602016003015460018381548110620019bb57fe5b906000526020600020906006020160040160018481548110620019da57fe5b9060005260206000209060060201600501818054600181600116156101000203166002900480601f01602080910402602001604051908101604052809291908181526020018280546001816001161561010002031660029004801562001a845780601f1062001a585761010080835404028352916020019162001a84565b820191906000526020600020905b81548152906001019060200180831162001a6657829003601f168201915b50505050509150808054600181600116156101000203166002900480601f01602080910402602001604051908101604052809291908181526020018280546001816001161561010002031660029004801562001b245780601f1062001af85761010080835404028352916020019162001b24565b820191906000526020600020905b81548152906001019060200180831162001b0657829003601f168201915b5050505050905094509450945094505062001b51565b8060010190506200190c565b50600062001b5057fe5b5b9193509193565b600080600090505b60028054905081101562001c4957826002828154811062001b7d57fe5b9060005260206000200160009054906101000a900473ffffffffffffffffffffffffffffffffffffffff1673ffffffffffffffffffffffffffffffffffffffff1663bb412a086040518163ffffffff1660e01b815260040160206040518083038186803b15801562001bee57600080fd5b505afa15801562001c03573d6000803e3d6000fd5b505050506040513d602081101562001c1a57600080fd5b8101908080519060200190929190505050141562001c3d57600191505062001c4f565b80600101905062001b60565b50600090505b919050565b600080600090505b60018054905081101562001cd357826bffffffffffffffffffffffff19166001828154811062001c8857fe5b906000526020600020906006020160010160009054906101000a900460601b6bffffffffffffffffffffffff1916141562001cc7578091505062001cde565b80600101905062001c5c565b50600062001cdd57fe5b5b919050565b60008190505b60018054905060018201101562001e535760018082018154811062001d0a57fe5b90600052602060002090600602016001828154811062001d2657fe5b90600052602060002090600602016000820160009054906101000a900473ffffffffffffffffffffffffffffffffffffffff168160000160006101000a81548173ffffffffffffffffffffffffffffffffffffffff021916908373ffffffffffffffffffffffffffffffffffffffff1602179055506001820160009054906101000a900460601b8160010160006101000a81548173ffffffffffffffffffffffffffffffffffffffff021916908360601c021790555060028201548160020155600382015481600301556004820181600401908054600181600116156101000203166002900462001e1992919062002206565b506005820181600501908054600181600116156101000203166002900462001e4392919062002206565b5090505080600101905062001ce9565b50600180548062001e6057fe5b6001900381819060005260206000209060060201600080820160006101000a81549073ffffffffffffffffffffffffffffffffffffffff02191690556001820160006101000a81549073ffffffffffffffffffffffffffffffffffffffff02191690556002820160009055600382016000905560048201600062001ee5919062002294565b60058201600062001ef7919062002294565b5050905550565b600080600090505b6002805490508110156200200c57826bffffffffffffffffffffffff19166002828154811062001f3257fe5b9060005260206000200160009054906101000a900473ffffffffffffffffffffffffffffffffffffffff1673ffffffffffffffffffffffffffffffffffffffff1663af640d0f6040518163ffffffff1660e01b815260040160206040518083038186803b15801562001fa357600080fd5b505afa15801562001fb8573d6000803e3d6000fd5b505050506040513d602081101562001fcf57600080fd5b81019080805190602001909291905050506bffffffffffffffffffffffff1916141562002000578091505062002017565b80600101905062001f06565b5060006200201657fe5b5b919050565b60008190505b600280549050600182011015620020d157600260018201815481106200204457fe5b9060005260206000200160009054906101000a900473ffffffffffffffffffffffffffffffffffffffff16600282815481106200207d57fe5b9060005260206000200160006101000a81548173ffffffffffffffffffffffffffffffffffffffff021916908373ffffffffffffffffffffffffffffffffffffffff16021790555080600101905062002022565b506002805480620020de57fe5b6001900381819060005260206000200160006101000a81549073ffffffffffffffffffffffffffffffffffffffff0219169055905550565b6040518060c00160405280600073ffffffffffffffffffffffffffffffffffffffff16815260200160006bffffffffffffffffffffffff19168152602001600081526020016000815260200160608152602001606081525090565b828054600181600116156101000203166002900490600052602060002090601f016020900481019282601f10620021b457805160ff1916838001178555620021e5565b82800160010185558215620021e5579182015b82811115620021e4578251825591602001919060010190620021c7565b5b509050620021f49190620022e0565b5090565b610e38806200230983390190565b828054600181600116156101000203166002900490600052602060002090601f016020900481019282601f1062002241578054855562002281565b828001600101855582156200228157600052602060002091601f016020900482015b828111156200228057825482559160010191906001019062002263565b5b509050620022909190620022e0565b5090565b50805460018160011615610100020316600290046000825580601f10620022bc5750620022dd565b601f016020900490600052602060002090810190620022dc9190620022e0565b5b50565b6200230591905b8082111562002301576000816000905550600101620022e7565b5090565b9056fe60806040523480156200001157600080fd5b5060405162000e3838038062000e38833981810160405260a08110156200003757600080fd5b81019080805190602001909291908051906020019092919080519060200190929190805160405193929190846401000000008211156200007657600080fd5b838201915060208201858111156200008d57600080fd5b8251866001820283011164010000000082111715620000ab57600080fd5b8083526020830192505050908051906020019080838360005b83811015620000e1578082015181840152602081019050620000c4565b50505050905090810190601f1680156200010f5780820380516001836020036101000a031916815260200191505b50604052602001805160405193929190846401000000008211156200013357600080fd5b838201915060208201858111156200014a57600080fd5b82518660018202830111640100000000821117156200016857600080fd5b8083526020830192505050908051906020019080838360005b838110156200019e57808201518184015260208101905062000181565b50505050905090810190601f168015620001cc5780820380516001836020036101000a031916815260200191505b50604052505050846000806101000a81548173ffffffffffffffffffffffffffffffffffffffff021916908373ffffffffffffffffffffffffffffffffffffffff16021790555083600160006101000a81548173ffffffffffffffffffffffffffffffffffffffff021916908360601c02179055508260028190555081600390805190602001906200026092919062000285565b5080600490805190602001906200027992919062000285565b50505050505062000334565b828054600181600116156101000203166002900490600052602060002090601f016020900481019282601f10620002c857805160ff1916838001178555620002f9565b82800160010185558215620002f9579182015b82811115620002f8578251825591602001919060010190620002db565b5b5090506200030891906200030c565b5090565b6200033191905b808211156200032d57600081600090555060010162000313565b5090565b90565b610af480620003446000396000f3fe608060405234801561001057600080fd5b506004361061007d5760003560e01c80638da5cb5b1161005b5780638da5cb5b1461022f578063a72249f814610279578063af640d0f1461033e578063bb412a081461037a5761007d565b806306fdde03146100825780630d82502b146101055780637284e416146101ac575b600080fd5b61008a610398565b6040518080602001828103825283818151815260200191508051906020019080838360005b838110156100ca5780820151818401526020810190506100af565b50505050905090810190601f1680156100f75780820380516001836020036101000a031916815260200191505b509250505060405180910390f35b6101316004803603602081101561011b57600080fd5b8101908080359060200190929190505050610436565b6040518080602001828103825283818151815260200191508051906020019080838360005b83811015610171578082015181840152602081019050610156565b50505050905090810190601f16801561019e5780820380516001836020036101000a031916815260200191505b509250505060405180910390f35b6101b4610682565b6040518080602001828103825283818151815260200191508051906020019080838360005b838110156101f45780820151818401526020810190506101d9565b50505050905090810190601f1680156102215780820380516001836020036101000a031916815260200191505b509250505060405180910390f35b610237610720565b604051808273ffffffffffffffffffffffffffffffffffffffff1673ffffffffffffffffffffffffffffffffffffffff16815260200191505060405180910390f35b61033c6004803603604081101561028f57600080fd5b81019080803590602001906401000000008111156102ac57600080fd5b8201836020820111156102be57600080fd5b803590602001918460018302840111640100000000831117156102e057600080fd5b91908080601f016020809104026020016040519081016040528093929190818152602001838380828437600081840152601f19601f82011690508083019250505050505050919291929080359060200190929190505050610745565b005b6103466109b9565b60405180826bffffffffffffffffffffffff19166bffffffffffffffffffffffff1916815260200191505060405180910390f35b6103826109cc565b6040518082815260200191505060405180910390f35b60038054600181600116156101000203166002900480601f01602080910402602001604051908101604052809291908181526020018280546001816001161561010002031660029004801561042e5780601f106104035761010080835404028352916020019161042e565b820191906000526020600020905b81548152906001019060200180831161041157829003601f168201915b505050505081565b60606000600580549050148061046a5750600560008154811061045557fe5b90600052602060002090600202016001015482105b156104865760405180602001604052806000815250905061067d565b6000600190505b6005805490508110156105ba5782600560018303815481106104ab57fe5b906000526020600020906002020160010154111580156104e8575082600582815481106104d457fe5b906000526020600020906002020160010154115b156105af57600560018203815481106104fd57fe5b90600052602060002090600202016000018054600181600116156101000203166002900480601f0160208091040260200160405190810160405280929190818152602001828054600181600116156101000203166002900480156105a25780601f10610577576101008083540402835291602001916105a2565b820191906000526020600020905b81548152906001019060200180831161058557829003601f168201915b505050505091505061067d565b80600101905061048d565b506005600160058054905003815481106105d057fe5b90600052602060002090600202016000018054600181600116156101000203166002900480601f0160208091040260200160405190810160405280929190818152602001828054600181600116156101000203166002900480156106755780601f1061064a57610100808354040283529160200191610675565b820191906000526020600020905b81548152906001019060200180831161065857829003601f168201915b505050505090505b919050565b60048054600181600116156101000203166002900480601f0160208091040260200160405190810160405280929190818152602001828054600181600116156101000203166002900480156107185780601f106106ed57610100808354040283529160200191610718565b820191906000526020600020905b8154815290600101906020018083116106fb57829003601f168201915b505050505081565b6000809054906101000a900473ffffffffffffffffffffffffffffffffffffffff1681565b6000809054906101000a900473ffffffffffffffffffffffffffffffffffffffff1673ffffffffffffffffffffffffffffffffffffffff163373ffffffffffffffffffffffffffffffffffffffff1614610807576040517f08c379a00000000000000000000000000000000000000000000000000000000081526004018080602001828103825260198152602001807f4f6e6c79206f776e65722063616e2063616c6c20746869732e0000000000000081525060200191505060405180910390fd5b600060058054905090505b6000811180156108435750816005600183038154811061082e57fe5b90600052602060002090600202016001015410155b156108545780600190039050610812565b5b8060058054905011156108a357600580548061086d57fe5b60019003818190600052602060002090600202016000808201600061089291906109d2565b600182016000905550509055610855565b6005604051806040016040528085815260200184815250908060018154018082558091505090600182039060005260206000209060020201600090919290919091506000820151816000019080519060200190610901929190610a1a565b50602082015181600101555050503373ffffffffffffffffffffffffffffffffffffffff1682846040518082805190602001908083835b6020831061095b5780518252602082019150602081019050602083039250610938565b6001836020036101000a03801982511681845116808217855250505050505090500191505060405180910390207fa042dd93f2e8923582a6fa05904c2792e245b0134f521ff64add5d358175f6b060405160405180910390a4505050565b600160009054906101000a900460601b81565b60025481565b50805460018160011615610100020316600290046000825580601f106109f85750610a17565b601f016020900490600052602060002090810190610a169190610a9a565b5b50565b828054600181600116156101000203166002900490600052602060002090601f016020900481019282601f10610a5b57805160ff1916838001178555610a89565b82800160010185558215610a89579182015b82811115610a88578251825591602001919060010190610a6d565b5b509050610a969190610a9a565b5090565b610abc91905b80821115610ab8576000816000905550600101610aa0565b5090565b9056fea265627a7a723158205d27719909d4993223b94e1bb9634ac1fd4bd37878ea4072a2ca80a72ba0dc1564736f6c63430005100032546865204153206e756d62657220686173206265656e20726567697374657265642ea265627a7a72315820bc5e72c4273306dafbed9bbeda353ee9b7cc7be3bb70d2a9db324249c6aefd2e64736f6c63430005100032",
  "source": "pragma solidity >=0.4.21 <0.7.0;\n\nimport \"./ASInfo.sol\";\n\ncontract SMARegister {\n\n    modifier onlyOwner {\n        require(\n            msg.sender == owner,\n            \"Only owner can call this.\"\n        );\n        _;\n    }\n\n    struct ASRequest {\n        address owner;\n        bytes20 id;\n        uint256 reqType;\n        uint256 asn;\n        string name;\n        string description;\n    }\n\n    // administrator address of security aliance\n    address public owner;\n\n    // AS join request queue\n    ASRequest[] private _reqs;\n\n    // AS queue\n    ASInfo[] private _ases;\n\n\n    // events\n    event ASRequestSubmitted(uint256 indexed reqType, uint256 indexed asn, address indexed account);\n    event ASRequestApproved(uint256 indexed reqType, uint256 indexed asn, address indexed account);\n    event ASRequestRejected(uint256 indexed reqType, uint256 indexed asn, address indexed account);\n    event ASCreated(ASInfo indexed asInfo, address indexed account);\n    event ASDeleted(ASInfo indexed asInfo, address indexed account);\n\n    constructor() public {\n        owner = msg.sender;\n    }\n\n    function toBytes(address x) public pure returns (bytes20) {\n        bytes20 b;\n        for (uint i = 0; i < 20; i++) {\n            b |= bytes20(byte(uint8(uint256(x) / (2 ** (8 * (19 - i))))) & 0xFF) >> (i * 8);\n        }\n        return b;\n    }\n\n    function checkASNRegistered(uint256 asn) private view returns (bool) {\n        for (uint256 i = 0; i < _ases.length; ++i) {\n            if (_ases[i].asn() == asn) {\n                return true;\n            }\n        }\n        return false;\n    }\n\n    function createASRequest(\n        uint256 _reqType,\n        uint256 _asn,\n        string memory _name,\n        string memory _description\n    )\n        public\n    {\n        bytes20 id = toBytes(msg.sender);\n        if (_reqType == 0) {\n            require(!checkASNRegistered(_asn), \"The AS number has been registered.\");\n        } else {\n            require(checkASNRegistered(_asn), \"The AS number was not found.\");\n        }\n        ASRequest memory req = ASRequest(\n            msg.sender,\n            id,\n            _reqType,\n            _asn,\n            _name,\n            _description\n        );\n        bool applied = false;\n        for (uint256 i = 0; i < _reqs.length; ++i) {\n            if (_reqs[i].id == id) {\n                _reqs[i] = req;\n                applied = true;\n                break;\n            }\n        }\n        if (!applied) {\n            _reqs.push(req);\n        }\n        emit ASRequestSubmitted(_reqType, _asn, msg.sender);\n    }\n\n    function requestDetailQuery(bytes20 id) public view returns (\n        uint256 reqType,\n        uint256 asn,\n        string memory name,\n        string memory description\n    ) {\n        for (uint256 i = 0; i < _reqs.length; ++i) {\n            if (_reqs[i].id == id) {\n                return (\n                    _reqs[i].reqType,\n                    _reqs[i].asn,\n                    _reqs[i].name,\n                    _reqs[i].description\n                );\n            }\n        }\n        assert(false);\n    }\n\n    function requestIdQuery() public view returns (bytes20[] memory ids) {\n        ids = new bytes20[](_reqs.length);\n        for (uint256 i = 0; i < _reqs.length; ++i) {\n            ids[i] = _reqs[i].id;\n        }\n        return ids;\n    }\n\n    function requestCount() public view returns (uint256) {\n        return _reqs.length;\n    }\n\n    function asQuery() public view returns (ASInfo[] memory) {\n        return _ases;\n    }\n\n    function asCount() public view returns (uint256) {\n        return _ases.length;\n    }\n\n    function findIndexFromReqs(bytes20 id) private view returns (uint256){\n        for (uint256 i = 0; i < _reqs.length; ++i) {\n            if (_reqs[i].id == id) {\n                return i;\n            }\n        }\n        assert(false);\n    }\n\n    function removeFromReqs(uint256 index) private {\n        for (uint256 i = index; i + 1 < _reqs.length; ++i) {\n            _reqs[i] = _reqs[i + 1];\n        }\n        _reqs.pop();\n    }\n\n    function findIndexFromAses(bytes20 id) private view returns (uint256){\n        for (uint256 i = 0; i < _ases.length; ++i) {\n            if (_ases[i].id() == id) {\n                return i;\n            }\n        }\n        assert(false);\n    }\n\n    function removeFromAses(uint256 index) private {\n        for (uint256 i = index; i + 1 < _ases.length; ++i) {\n            _ases[i] = _ases[i + 1];\n        }\n        _ases.pop();\n    }\n\n    function requestApprove(bytes20 id) public onlyOwner {\n        uint256 index = findIndexFromReqs(id);\n        ASRequest memory req = _reqs[index];\n        removeFromReqs(index);\n        if (req.reqType == 0) {\n            ASInfo asInfo = new ASInfo(\n                req.owner,\n                req.id,\n                req.asn,\n                req.name,\n                req.description\n            );\n            _ases.push(asInfo);\n            emit ASCreated(asInfo, req.owner);\n        } else {\n            index = findIndexFromAses(req.id);\n            ASInfo asInfo = _ases[index];\n            removeFromAses(index);\n            emit ASDeleted(asInfo, req.owner);\n        }\n        emit ASRequestApproved(req.reqType, req.asn, req.owner);\n    }\n\n    function requestReject(bytes20 id) public onlyOwner {\n        uint256 index = findIndexFromReqs(id);\n        ASRequest memory req = _reqs[index];\n        removeFromReqs(index);\n        emit ASRequestRejected(req.reqType, req.asn, req.owner);\n    }\n\n    function singleACSQuery(uint256 asn, uint256 time) public view returns(string memory) {\n        for (uint256 i = 0; i < _ases.length; ++i) {\n            if (_ases[i].asn() == asn) {\n                return _ases[i].getCurrentACS(time);\n            }\n        }\n        assert(false);\n    }\n\n    /*\n    function allACSQuery(uint256 time) public view returns(uint256[] memory asns, string[] memory addrs) {\n        asns = new uint256[](_ases.length);\n        addrs = new string[](_ases.length);\n        for (uint256 i = 0; i < _ases.length; ++i) {\n            asns[i] = _ases[i].asn();\n            addrs[i] = _ases[i].getCurrentACS(time);\n        }\n        return (asns, addrs);\n    }\n    */\n}\n",
  "sourcePath": "/Users/bragcat/Code/RegChain/contracts/SMARegister.sol",
  "compiler": {
    "name": "solc",
    "version": "0.5.16+commit.9c3226ce.Emscripten.clang"
  },
  "schemaVersion": "3.0.23",
  "updatedAt": "2020-05-21T02:36:13.605Z",
  "devdoc": {
    "methods": {}
  },
  "userdoc": {
    "methods": {}
  }
}