{
  "contractName": "SMARegister",
  "abi": [
    {
      "inputs": [],
      "payable": false,
      "stateMutability": "nonpayable",
      "type": "constructor"
    },
    {
      "anonymous": false,
      "inputs": [
        {
          "indexed": true,
          "internalType": "contract ASInfo",
          "name": "asInfo",
          "type": "address"
        },
        {
          "indexed": true,
          "internalType": "address",
          "name": "id",
          "type": "address"
        }
      ],
      "name": "ASCreated",
      "type": "event"
    },
    {
      "anonymous": false,
      "inputs": [
        {
          "indexed": true,
          "internalType": "contract ASInfo",
          "name": "asInfo",
          "type": "address"
        },
        {
          "indexed": true,
          "internalType": "address",
          "name": "id",
          "type": "address"
        }
      ],
      "name": "ASDeleted",
      "type": "event"
    },
    {
      "anonymous": false,
      "inputs": [
        {
          "indexed": true,
          "internalType": "uint256",
          "name": "reqType",
          "type": "uint256"
        },
        {
          "indexed": true,
          "internalType": "uint256",
          "name": "asn",
          "type": "uint256"
        },
        {
          "indexed": true,
          "internalType": "address",
          "name": "id",
          "type": "address"
        }
      ],
      "name": "ASRequestApproved",
      "type": "event"
    },
    {
      "anonymous": false,
      "inputs": [
        {
          "indexed": true,
          "internalType": "uint256",
          "name": "reqType",
          "type": "uint256"
        },
        {
          "indexed": true,
          "internalType": "uint256",
          "name": "asn",
          "type": "uint256"
        },
        {
          "indexed": true,
          "internalType": "address",
          "name": "id",
          "type": "address"
        }
      ],
      "name": "ASRequestCreated",
      "type": "event"
    },
    {
      "anonymous": false,
      "inputs": [
        {
          "indexed": true,
          "internalType": "uint256",
          "name": "reqType",
          "type": "uint256"
        },
        {
          "indexed": true,
          "internalType": "uint256",
          "name": "asn",
          "type": "uint256"
        },
        {
          "indexed": true,
          "internalType": "address",
          "name": "id",
          "type": "address"
        }
      ],
      "name": "ASRequestRejected",
      "type": "event"
    },
    {
      "constant": true,
      "inputs": [],
      "name": "owner",
      "outputs": [
        {
          "internalType": "address",
          "name": "",
          "type": "address"
        }
      ],
      "payable": false,
      "stateMutability": "view",
      "type": "function"
    },
    {
      "constant": true,
      "inputs": [
        {
          "internalType": "address",
          "name": "x",
          "type": "address"
        }
      ],
      "name": "toBytes",
      "outputs": [
        {
          "internalType": "bytes20",
          "name": "",
          "type": "bytes20"
        }
      ],
      "payable": false,
      "stateMutability": "pure",
      "type": "function"
    },
    {
      "constant": false,
      "inputs": [
        {
          "internalType": "uint256",
          "name": "_reqType",
          "type": "uint256"
        },
        {
          "internalType": "uint256",
          "name": "_asn",
          "type": "uint256"
        }
      ],
      "name": "createASRequest",
      "outputs": [],
      "payable": false,
      "stateMutability": "nonpayable",
      "type": "function"
    },
    {
      "constant": true,
      "inputs": [],
      "name": "requestQuery",
      "outputs": [
        {
          "internalType": "bytes20[]",
          "name": "ids",
          "type": "bytes20[]"
        },
        {
          "internalType": "uint256[]",
          "name": "reqTypes",
          "type": "uint256[]"
        },
        {
          "internalType": "uint256[]",
          "name": "asns",
          "type": "uint256[]"
        }
      ],
      "payable": false,
      "stateMutability": "view",
      "type": "function"
    },
    {
      "constant": true,
      "inputs": [],
      "name": "requestCount",
      "outputs": [
        {
          "internalType": "uint256",
          "name": "",
          "type": "uint256"
        }
      ],
      "payable": false,
      "stateMutability": "view",
      "type": "function"
    },
    {
      "constant": true,
      "inputs": [],
      "name": "asQuery",
      "outputs": [
        {
          "internalType": "contract ASInfo[]",
          "name": "",
          "type": "address[]"
        }
      ],
      "payable": false,
      "stateMutability": "view",
      "type": "function"
    },
    {
      "constant": true,
      "inputs": [],
      "name": "asCount",
      "outputs": [
        {
          "internalType": "uint256",
          "name": "",
          "type": "uint256"
        }
      ],
      "payable": false,
      "stateMutability": "view",
      "type": "function"
    },
    {
      "constant": false,
      "inputs": [
        {
          "internalType": "bytes20",
          "name": "id",
          "type": "bytes20"
        }
      ],
      "name": "requestApprove",
      "outputs": [],
      "payable": false,
      "stateMutability": "nonpayable",
      "type": "function"
    },
    {
      "constant": false,
      "inputs": [
        {
          "internalType": "bytes20",
          "name": "id",
          "type": "bytes20"
        }
      ],
      "name": "requestReject",
      "outputs": [],
      "payable": false,
      "stateMutability": "nonpayable",
      "type": "function"
    },
    {
      "constant": true,
      "inputs": [
        {
          "internalType": "uint256",
          "name": "asn",
          "type": "uint256"
        },
        {
          "internalType": "uint256",
          "name": "time",
          "type": "uint256"
        }
      ],
      "name": "singleACSQuery",
      "outputs": [
        {
          "internalType": "string",
          "name": "",
          "type": "string"
        }
      ],
      "payable": false,
      "stateMutability": "view",
      "type": "function"
    }
  ],
  "bytecode": "0x608060405234801561001057600080fd5b50336000806101000a81548173ffffffffffffffffffffffffffffffffffffffff021916908373ffffffffffffffffffffffffffffffffffffffff160217905550611ed1806100606000396000f3fe608060405234801561001057600080fd5b506004361061009e5760003560e01c80638da5cb5b116100665780638da5cb5b14610262578063a0e818b0146102ac578063a33729a7146102ca578063e1a6f49914610302578063eddbe4a9146103f15761009e565b8063276a8f31146100a357806339eb375e146100e0578063593b79fe146101915780635badbe4c1461020757806368829a3314610225575b600080fd5b6100de600480360360208110156100b957600080fd5b8101908080356bffffffffffffffffffffffff19169060200190929190505050610450565b005b610116600480360360408110156100f657600080fd5b810190808035906020019092919080359060200190929190505050610876565b6040518080602001828103825283818151815260200191508051906020019080838360005b8381101561015657808201518184015260208101905061013b565b50505050905090810190601f1680156101835780820380516001836020036101000a031916815260200191505b509250505060405180910390f35b6101d3600480360360208110156101a757600080fd5b81019080803573ffffffffffffffffffffffffffffffffffffffff169060200190929190505050610aee565b60405180826bffffffffffffffffffffffff19166bffffffffffffffffffffffff1916815260200191505060405180910390f35b61020f610b84565b6040518082815260200191505060405180910390f35b6102606004803603602081101561023b57600080fd5b8101908080356bffffffffffffffffffffffff19169060200190929190505050610b91565b005b61026a610d8e565b604051808273ffffffffffffffffffffffffffffffffffffffff1673ffffffffffffffffffffffffffffffffffffffff16815260200191505060405180910390f35b6102b4610db3565b6040518082815260200191505060405180910390f35b610300600480360360408110156102e057600080fd5b810190808035906020019092919080359060200190929190505050610dc0565b005b61030a610f22565b60405180806020018060200180602001848103845287818151815260200191508051906020019060200280838360005b8381101561035557808201518184015260208101905061033a565b50505050905001848103835286818151815260200191508051906020019060200280838360005b8381101561039757808201518184015260208101905061037c565b50505050905001848103825285818151815260200191508051906020019060200280838360005b838110156103d95780820151818401526020810190506103be565b50505050905001965050505050505060405180910390f35b6103f96110cb565b6040518080602001828103825283818151815260200191508051906020019060200280838360005b8381101561043c578082015181840152602081019050610421565b505050509050019250505060405180910390f35b6000809054906101000a900473ffffffffffffffffffffffffffffffffffffffff1673ffffffffffffffffffffffffffffffffffffffff163373ffffffffffffffffffffffffffffffffffffffff1614610512576040517f08c379a00000000000000000000000000000000000000000000000000000000081526004018080602001828103825260198152602001807f4f6e6c79206f776e65722063616e2063616c6c20746869732e0000000000000081525060200191505060405180910390fd5b600061051d82611159565b905061052761158a565b6001828154811061053457fe5b90600052602060002090600402016040518060800160405290816000820160009054906101000a900473ffffffffffffffffffffffffffffffffffffffff1673ffffffffffffffffffffffffffffffffffffffff1673ffffffffffffffffffffffffffffffffffffffff1681526020016001820160009054906101000a900460601b6bffffffffffffffffffffffff19166bffffffffffffffffffffffff191681526020016002820154815260200160038201548152505090506105f7826111e2565b60008160400151141561076c576000816000015182602001518360600151604051610621906115d7565b808473ffffffffffffffffffffffffffffffffffffffff1673ffffffffffffffffffffffffffffffffffffffff168152602001836bffffffffffffffffffffffff19166bffffffffffffffffffffffff191681526020018281526020019350505050604051809103906000f08015801561069f573d6000803e3d6000fd5b50905060028190806001815401808255809150509060018203906000526020600020016000909192909190916101000a81548173ffffffffffffffffffffffffffffffffffffffff021916908373ffffffffffffffffffffffffffffffffffffffff16021790555050816000015173ffffffffffffffffffffffffffffffffffffffff168173ffffffffffffffffffffffffffffffffffffffff167f729054d7aa2466aaa5a9f8c236074bbead8f217ee02b07119436c3df0dc1790f60405160405180910390a350610820565b6107798160200151611380565b915060006002838154811061078a57fe5b9060005260206000200160009054906101000a900473ffffffffffffffffffffffffffffffffffffffff1690506107c083611495565b816000015173ffffffffffffffffffffffffffffffffffffffff168173ffffffffffffffffffffffffffffffffffffffff167fa5c2d2029cb3c60daac6e0e95ec341a4e00cd215d8dfac371740a7eb38600d5960405160405180910390a3505b806000015173ffffffffffffffffffffffffffffffffffffffff16816060015182604001517fef2a3e5a146b6e39b044d3cf7f592f464a0e9cf2d11762172e87e7333edcae9f60405160405180910390a4505050565b606060008090505b600280549050811015610ade57836002828154811061089957fe5b9060005260206000200160009054906101000a900473ffffffffffffffffffffffffffffffffffffffff1673ffffffffffffffffffffffffffffffffffffffff1663bb412a086040518163ffffffff1660e01b815260040160206040518083038186803b15801561090957600080fd5b505afa15801561091d573d6000803e3d6000fd5b505050506040513d602081101561093357600080fd5b81019080805190602001909291905050501415610ad3576002818154811061095757fe5b9060005260206000200160009054906101000a900473ffffffffffffffffffffffffffffffffffffffff1673ffffffffffffffffffffffffffffffffffffffff16630d82502b846040518263ffffffff1660e01b81526004018082815260200191505060006040518083038186803b1580156109d257600080fd5b505afa1580156109e6573d6000803e3d6000fd5b505050506040513d6000823e3d601f19601f820116820180604052506020811015610a1057600080fd5b8101908080516040519392919084640100000000821115610a3057600080fd5b83820191506020820185811115610a4657600080fd5b8251866001820283011164010000000082111715610a6357600080fd5b8083526020830192505050908051906020019080838360005b83811015610a97578082015181840152602081019050610a7c565b50505050905090810190601f168015610ac45780820380516001836020036101000a031916815260200191505b50604052505050915050610ae8565b80600101905061087e565b506000610ae757fe5b5b92915050565b60008060008090505b6014811015610b7a576008810260ff60f81b8260130360080260020a8673ffffffffffffffffffffffffffffffffffffffff1681610b3157fe5b0460f81b167effffffffffffffffffffffffffffffffffffffffffffffffffffffffffffff19166bffffffffffffffffffffffff1916901c821791508080600101915050610af7565b5080915050919050565b6000600180549050905090565b6000809054906101000a900473ffffffffffffffffffffffffffffffffffffffff1673ffffffffffffffffffffffffffffffffffffffff163373ffffffffffffffffffffffffffffffffffffffff1614610c53576040517f08c379a00000000000000000000000000000000000000000000000000000000081526004018080602001828103825260198152602001807f4f6e6c79206f776e65722063616e2063616c6c20746869732e0000000000000081525060200191505060405180910390fd5b6000610c5e82611159565b9050610c6861158a565b60018281548110610c7557fe5b90600052602060002090600402016040518060800160405290816000820160009054906101000a900473ffffffffffffffffffffffffffffffffffffffff1673ffffffffffffffffffffffffffffffffffffffff1673ffffffffffffffffffffffffffffffffffffffff1681526020016001820160009054906101000a900460601b6bffffffffffffffffffffffff19166bffffffffffffffffffffffff19168152602001600282015481526020016003820154815250509050610d38826111e2565b806000015173ffffffffffffffffffffffffffffffffffffffff16816060015182604001517faa2121944425e43f2297f381f23a092fed43a5488ef0fecd53e14c50aba19db460405160405180910390a4505050565b6000809054906101000a900473ffffffffffffffffffffffffffffffffffffffff1681565b6000600280549050905090565b610dc861158a565b60405180608001604052803373ffffffffffffffffffffffffffffffffffffffff168152602001610df833610aee565b6bffffffffffffffffffffffff191681526020018481526020018381525090506001819080600181540180825580915050906001820390600052602060002090600402016000909192909190915060008201518160000160006101000a81548173ffffffffffffffffffffffffffffffffffffffff021916908373ffffffffffffffffffffffffffffffffffffffff16021790555060208201518160010160006101000a81548173ffffffffffffffffffffffffffffffffffffffff021916908360601c021790555060408201518160020155606082015181600301555050503373ffffffffffffffffffffffffffffffffffffffff1682847f43bb7eef0105b618dfc311160f1de537bd2d6492736f334a26a29d6a50d8fea860405160405180910390a4505050565b6060806060600180549050604051908082528060200260200182016040528015610f5b5781602001602082028038833980820191505090505b509250600180549050604051908082528060200260200182016040528015610f925781602001602082028038833980820191505090505b509150600180549050604051908082528060200260200182016040528015610fc95781602001602082028038833980820191505090505b50905060008090505b6001805490508110156110bc5760018181548110610fec57fe5b906000526020600020906004020160010160009054906101000a900460601b84828151811061101757fe5b60200260200101906bffffffffffffffffffffffff191690816bffffffffffffffffffffffff1916815250506001818154811061105057fe5b90600052602060002090600402016002015483828151811061106e57fe5b6020026020010181815250506001818154811061108757fe5b9060005260206000209060040201600301548282815181106110a557fe5b602002602001018181525050806001019050610fd2565b50828282925092509250909192565b6060600280548060200260200160405190810160405280929190818152602001828054801561114f57602002820191906000526020600020905b8160009054906101000a900473ffffffffffffffffffffffffffffffffffffffff1673ffffffffffffffffffffffffffffffffffffffff1681526020019060010190808311611105575b5050505050905090565b600080600090505b6001805490508110156111d357826bffffffffffffffffffffffff19166001828154811061118b57fe5b906000526020600020906004020160010160009054906101000a900460601b6bffffffffffffffffffffffff191614156111c857809150506111dd565b806001019050611161565b5060006111dc57fe5b5b919050565b60008190505b6001805490506001820110156112fa5760018082018154811061120757fe5b90600052602060002090600402016001828154811061122257fe5b90600052602060002090600402016000820160009054906101000a900473ffffffffffffffffffffffffffffffffffffffff168160000160006101000a81548173ffffffffffffffffffffffffffffffffffffffff021916908373ffffffffffffffffffffffffffffffffffffffff1602179055506001820160009054906101000a900460601b8160010160006101000a81548173ffffffffffffffffffffffffffffffffffffffff021916908360601c021790555060028201548160020155600382015481600301559050508060010190506111e8565b50600180548061130657fe5b6001900381819060005260206000209060040201600080820160006101000a81549073ffffffffffffffffffffffffffffffffffffffff02191690556001820160006101000a81549073ffffffffffffffffffffffffffffffffffffffff0219169055600282016000905560038201600090555050905550565b600080600090505b60028054905081101561148657826bffffffffffffffffffffffff1916600282815481106113b257fe5b9060005260206000200160009054906101000a900473ffffffffffffffffffffffffffffffffffffffff1673ffffffffffffffffffffffffffffffffffffffff1663af640d0f6040518163ffffffff1660e01b815260040160206040518083038186803b15801561142257600080fd5b505afa158015611436573d6000803e3d6000fd5b505050506040513d602081101561144c57600080fd5b81019080805190602001909291905050506bffffffffffffffffffffffff1916141561147b5780915050611490565b806001019050611388565b50600061148f57fe5b5b919050565b60008190505b60028054905060018201101561154657600260018201815481106114bb57fe5b9060005260206000200160009054906101000a900473ffffffffffffffffffffffffffffffffffffffff16600282815481106114f357fe5b9060005260206000200160006101000a81548173ffffffffffffffffffffffffffffffffffffffff021916908373ffffffffffffffffffffffffffffffffffffffff16021790555080600101905061149b565b50600280548061155257fe5b6001900381819060005260206000200160006101000a81549073ffffffffffffffffffffffffffffffffffffffff0219169055905550565b6040518060800160405280600073ffffffffffffffffffffffffffffffffffffffff16815260200160006bffffffffffffffffffffffff1916815260200160008152602001600081525090565b6108b8806115e58339019056fe608060405234801561001057600080fd5b506040516108b83803806108b88339818101604052606081101561003357600080fd5b81019080805190602001909291908051906020019092919080519060200190929190505050826000806101000a81548173ffffffffffffffffffffffffffffffffffffffff021916908373ffffffffffffffffffffffffffffffffffffffff16021790555081600160006101000a81548173ffffffffffffffffffffffffffffffffffffffff021916908360601c0217905550806002819055505050506107d9806100df6000396000f3fe608060405234801561001057600080fd5b50600436106100575760003560e01c80630d82502b1461005c5780638da5cb5b14610103578063a72249f81461014d578063af640d0f14610212578063bb412a081461024e575b600080fd5b6100886004803603602081101561007257600080fd5b810190808035906020019092919050505061026c565b6040518080602001828103825283818151815260200191508051906020019080838360005b838110156100c85780820151818401526020810190506100ad565b50505050905090810190601f1680156100f55780820380516001836020036101000a031916815260200191505b509250505060405180910390f35b61010b6104b8565b604051808273ffffffffffffffffffffffffffffffffffffffff1673ffffffffffffffffffffffffffffffffffffffff16815260200191505060405180910390f35b6102106004803603604081101561016357600080fd5b810190808035906020019064010000000081111561018057600080fd5b82018360208201111561019257600080fd5b803590602001918460018302840111640100000000831117156101b457600080fd5b91908080601f016020809104026020016040519081016040528093929190818152602001838380828437600081840152601f19601f820116905080830192505050505050509192919290803590602001909291905050506104dd565b005b61021a61069e565b60405180826bffffffffffffffffffffffff19166bffffffffffffffffffffffff1916815260200191505060405180910390f35b6102566106b1565b6040518082815260200191505060405180910390f35b6060600060038054905014806102a05750600360008154811061028b57fe5b90600052602060002090600202016001015482105b156102bc576040518060200160405280600081525090506104b3565b6000600190505b6003805490508110156103f05782600360018303815481106102e157fe5b9060005260206000209060020201600101541115801561031e5750826003828154811061030a57fe5b906000526020600020906002020160010154115b156103e5576003600182038154811061033357fe5b90600052602060002090600202016000018054600181600116156101000203166002900480601f0160208091040260200160405190810160405280929190818152602001828054600181600116156101000203166002900480156103d85780601f106103ad576101008083540402835291602001916103d8565b820191906000526020600020905b8154815290600101906020018083116103bb57829003601f168201915b50505050509150506104b3565b8060010190506102c3565b5060036001600380549050038154811061040657fe5b90600052602060002090600202016000018054600181600116156101000203166002900480601f0160208091040260200160405190810160405280929190818152602001828054600181600116156101000203166002900480156104ab5780601f10610480576101008083540402835291602001916104ab565b820191906000526020600020905b81548152906001019060200180831161048e57829003601f168201915b505050505090505b919050565b6000809054906101000a900473ffffffffffffffffffffffffffffffffffffffff1681565b6000809054906101000a900473ffffffffffffffffffffffffffffffffffffffff1673ffffffffffffffffffffffffffffffffffffffff163373ffffffffffffffffffffffffffffffffffffffff161461059f576040517f08c379a00000000000000000000000000000000000000000000000000000000081526004018080602001828103825260198152602001807f4f6e6c79206f776e65722063616e2063616c6c20746869732e0000000000000081525060200191505060405180910390fd5b600060038054905090505b81600382815481106105b857fe5b906000526020600020906002020160010154106105db57806001900390506105aa565b5b60018101600380549050111561062d5760038054806105f757fe5b60019003818190600052602060002090600202016000808201600061061c91906106b7565b6001820160009055505090556105dc565b600360405180604001604052808581526020018481525090806001815401808255809150509060018203906000526020600020906002020160009091929091909150600082015181600001908051906020019061068b9291906106ff565b5060208201518160010155505050505050565b600160009054906101000a900460601b81565b60025481565b50805460018160011615610100020316600290046000825580601f106106dd57506106fc565b601f0160209004906000526020600020908101906106fb919061077f565b5b50565b828054600181600116156101000203166002900490600052602060002090601f016020900481019282601f1061074057805160ff191683800117855561076e565b8280016001018555821561076e579182015b8281111561076d578251825591602001919060010190610752565b5b50905061077b919061077f565b5090565b6107a191905b8082111561079d576000816000905550600101610785565b5090565b9056fea265627a7a723158207de06a1eea64405549f8dbf79ec13b664e0d9559d351acda90930694e3896cbb64736f6c63430005100032a265627a7a723158205491577ff05c182ce0f3c18891b50cd9cf4a65c6a08118dee0b539327a7950c064736f6c63430005100032",
  "source": "pragma solidity >=0.4.21 <0.7.0;\n\nimport \"./ASInfo.sol\";\n\ncontract SMARegister {\n\n    modifier onlyOwner {\n        require(\n            msg.sender == owner,\n            \"Only owner can call this.\"\n        );\n        _;\n    }\n\n    struct ASRequest {\n        address owner;\n        bytes20 id;\n        uint256 reqType;\n        uint256 asn;\n    }\n\n    // administrator address of security aliance\n    address public owner;\n\n    // AS join request queue\n    ASRequest[] private _reqs;\n\n    // AS queue\n    ASInfo[] private _ases;\n\n\n    // events\n    event ASRequestCreated(uint256 indexed reqType, uint256 indexed asn, address indexed id);\n    event ASRequestApproved(uint256 indexed reqType, uint256 indexed asn, address indexed id);\n    event ASRequestRejected(uint256 indexed reqType, uint256 indexed asn, address indexed id);\n    event ASCreated(ASInfo indexed asInfo, address indexed id);\n    event ASDeleted(ASInfo indexed asInfo, address indexed id);\n\n    constructor() public {\n        owner = msg.sender;\n    }\n\n    function toBytes(address x) public pure returns (bytes20) {\n        bytes20 b;\n        for (uint i = 0; i < 20; i++) {\n            b |= bytes20(byte(uint8(uint256(x) / (2 ** (8 * (19 - i))))) & 0xFF) >> (i * 8);\n        }\n        return b;\n    }\n\n    function createASRequest(\n        uint256 _reqType,\n        uint256 _asn\n    )\n        public\n    {\n        ASRequest memory req = ASRequest(\n            msg.sender,\n            toBytes(msg.sender),\n            _reqType,\n            _asn\n        );\n        _reqs.push(req);\n        emit ASRequestCreated(_reqType, _asn, msg.sender);\n    }\n\n    function requestQuery() public view returns (\n        bytes20[] memory ids,\n        uint256[] memory reqTypes,\n        uint256[] memory asns)\n    {\n        ids = new bytes20[](_reqs.length);\n        reqTypes = new uint256[](_reqs.length);\n        asns = new uint256[](_reqs.length);\n        for (uint256 i = 0; i < _reqs.length; ++i) {\n            ids[i] = _reqs[i].id;\n            reqTypes[i] = _reqs[i].reqType;\n            asns[i] = _reqs[i].asn;\n        }\n        return (ids, reqTypes, asns);\n    }\n\n    function requestCount() public view returns (uint256) {\n        return _reqs.length;\n    }\n\n    function asQuery() public view returns (ASInfo[] memory) {\n        return _ases;\n    }\n\n    function asCount() public view returns (uint256) {\n        return _ases.length;\n    }\n\n    function findIndexFromReqs(bytes20 id) private view returns (uint256){\n        for (uint256 i = 0; i < _reqs.length; ++i) {\n            if (_reqs[i].id == id) {\n                return i;\n            }\n        }\n        assert(false);\n    }\n\n    function removeFromReqs(uint256 index) private {\n        for (uint256 i = index; i + 1 < _reqs.length; ++i) {\n            _reqs[i] = _reqs[i + 1];\n        }\n        _reqs.pop();\n    }\n\n    function findIndexFromAses(bytes20 id) private view returns (uint256){\n        for (uint256 i = 0; i < _ases.length; ++i) {\n            if (_ases[i].id() == id) {\n                return i;\n            }\n        }\n        assert(false);\n    }\n\n    function removeFromAses(uint256 index) private {\n        for (uint256 i = index; i + 1 < _ases.length; ++i) {\n            _ases[i] = _ases[i + 1];\n        }\n        _ases.pop();\n    }\n\n    function requestApprove(bytes20 id) public onlyOwner {\n        uint256 index = findIndexFromReqs(id);\n        ASRequest memory req = _reqs[index];\n        removeFromReqs(index);\n        if (req.reqType == 0) {\n            ASInfo asInfo = new ASInfo(\n                req.owner,\n                req.id,\n                req.asn\n            );\n            _ases.push(asInfo);\n            emit ASCreated(asInfo, req.owner);\n        } else {\n            index = findIndexFromAses(req.id);\n            ASInfo asInfo = _ases[index];\n            removeFromAses(index);\n            emit ASDeleted(asInfo, req.owner);\n        }\n        emit ASRequestApproved(req.reqType, req.asn, req.owner);\n    }\n\n    function requestReject(bytes20 id) public onlyOwner {\n        uint256 index = findIndexFromReqs(id);\n        ASRequest memory req = _reqs[index];\n        removeFromReqs(index);\n        emit ASRequestRejected(req.reqType, req.asn, req.owner);\n    }\n\n    function singleACSQuery(uint256 asn, uint256 time) public view returns(string memory) {\n        for (uint256 i = 0; i < _ases.length; ++i) {\n            if (_ases[i].asn() == asn) {\n                return _ases[i].getCurrentACS(time);\n            }\n        }\n        assert(false);\n    }\n\n    /*\n    function allACSQuery(uint256 time) public view returns(uint256[] memory asns, string[] memory addrs) {\n        asns = new uint256[](_ases.length);\n        addrs = new string[](_ases.length);\n        for (uint256 i = 0; i < _ases.length; ++i) {\n            asns[i] = _ases[i].asn();\n            addrs[i] = _ases[i].getCurrentACS(time);\n        }\n        return (asns, addrs);\n    }\n    */\n}\n",
  "sourcePath": "/Users/bragcat/Code/RegChain/contracts/SMARegister.sol",
  "compiler": {
    "name": "solc",
    "version": "0.5.16+commit.9c3226ce.Emscripten.clang"
  },
  "schemaVersion": "3.0.23",
  "updatedAt": "2020-05-12T06:54:42.912Z",
  "networkType": "ethereum",
  "devdoc": {
    "methods": {}
  },
  "userdoc": {
    "methods": {}
  }
}