{
  "contractName": "SMARegister",
  "abi": [
    {
      "inputs": [],
      "payable": false,
      "stateMutability": "nonpayable",
      "type": "constructor"
    },
    {
      "constant": true,
      "inputs": [],
      "name": "owner",
      "outputs": [
        {
          "internalType": "address",
          "name": "",
          "type": "address"
        }
      ],
      "payable": false,
      "stateMutability": "view",
      "type": "function"
    },
    {
      "constant": false,
      "inputs": [
        {
          "internalType": "enum SMARegister.UpdateType",
          "name": "_update_type",
          "type": "uint8"
        },
        {
          "internalType": "uint256",
          "name": "_asn",
          "type": "uint256"
        },
        {
          "internalType": "string",
          "name": "_acs_addr",
          "type": "string"
        },
        {
          "internalType": "uint256",
          "name": "_effect_time",
          "type": "uint256"
        }
      ],
      "name": "ASUpdate",
      "outputs": [],
      "payable": false,
      "stateMutability": "nonpayable",
      "type": "function"
    },
    {
      "constant": true,
      "inputs": [],
      "name": "UpdateQuery",
      "outputs": [
        {
          "components": [
            {
              "internalType": "address",
              "name": "id",
              "type": "address"
            },
            {
              "internalType": "enum SMARegister.UpdateType",
              "name": "update_type",
              "type": "uint8"
            },
            {
              "internalType": "uint256",
              "name": "asn",
              "type": "uint256"
            },
            {
              "internalType": "string",
              "name": "acs_addr",
              "type": "string"
            },
            {
              "internalType": "uint256",
              "name": "effect_time",
              "type": "uint256"
            }
          ],
          "internalType": "struct SMARegister.ASUpdateMsg[]",
          "name": "apps",
          "type": "tuple[]"
        }
      ],
      "payable": false,
      "stateMutability": "view",
      "type": "function"
    },
    {
      "constant": false,
      "inputs": [
        {
          "internalType": "address",
          "name": "id",
          "type": "address"
        }
      ],
      "name": "UpdateApprove",
      "outputs": [],
      "payable": false,
      "stateMutability": "nonpayable",
      "type": "function"
    },
    {
      "constant": false,
      "inputs": [
        {
          "internalType": "address",
          "name": "id",
          "type": "address"
        }
      ],
      "name": "UpdateReject",
      "outputs": [],
      "payable": false,
      "stateMutability": "nonpayable",
      "type": "function"
    },
    {
      "constant": true,
      "inputs": [
        {
          "internalType": "uint256",
          "name": "asn",
          "type": "uint256"
        },
        {
          "internalType": "uint256",
          "name": "time",
          "type": "uint256"
        }
      ],
      "name": "SingleACSQuery",
      "outputs": [
        {
          "internalType": "string",
          "name": "",
          "type": "string"
        }
      ],
      "payable": false,
      "stateMutability": "view",
      "type": "function"
    },
    {
      "constant": true,
      "inputs": [
        {
          "internalType": "uint256",
          "name": "time",
          "type": "uint256"
        }
      ],
      "name": "AllACSQuery",
      "outputs": [
        {
          "components": [
            {
              "internalType": "uint256",
              "name": "asn",
              "type": "uint256"
            },
            {
              "internalType": "string",
              "name": "acs_addr",
              "type": "string"
            }
          ],
          "internalType": "struct SMARegister.ASNAddr[]",
          "name": "",
          "type": "tuple[]"
        }
      ],
      "payable": false,
      "stateMutability": "view",
      "type": "function"
    }
  ],
  "bytecode": "0x608060405234801561001057600080fd5b50336000806101000a81548173ffffffffffffffffffffffffffffffffffffffff021916908373ffffffffffffffffffffffffffffffffffffffff1602179055506126bc806100606000396000f3fe608060405234801561001057600080fd5b506004361061007d5760003560e01c8063b91586f01161005b578063b91586f0146100da578063d063cb541461010a578063e828a56914610126578063f49a4f69146101425761007d565b80637727387b146100825780638da5cb5b1461009e57806395f30c4e146100bc575b600080fd5b61009c60048036036100979190810190611da2565b610172565b005b6100a661020e565b6040516100b39190612336565b60405180910390f35b6100c4610233565b6040516100d19190612373565b60405180910390f35b6100f460048036036100ef9190810190611e46565b61046d565b6040516101019190612351565b60405180910390f35b610124600480360361011f9190810190611da2565b6108e6565b005b610140600480360361013b9190810190611dcb565b610d87565b005b61015c60048036036101579190810190611e6f565b611061565b6040516101699190612395565b60405180910390f35b6000809054906101000a900473ffffffffffffffffffffffffffffffffffffffff1673ffffffffffffffffffffffffffffffffffffffff163373ffffffffffffffffffffffffffffffffffffffff1614610201576040517f08c379a00000000000000000000000000000000000000000000000000000000081526004016101f8906123d7565b60405180910390fd5b61020a816113a9565b5050565b6000809054906101000a900473ffffffffffffffffffffffffffffffffffffffff1681565b606060038054905060405190808252806020026020018201604052801561027457816020015b610261611ae8565b8152602001906001900390816102595790505b50905060008090505b60038054905081101561046657600160006003838154811061029b57fe5b9060005260206000200160009054906101000a900473ffffffffffffffffffffffffffffffffffffffff1673ffffffffffffffffffffffffffffffffffffffff1673ffffffffffffffffffffffffffffffffffffffff1681526020019081526020016000206040518060a00160405290816000820160009054906101000a900473ffffffffffffffffffffffffffffffffffffffff1673ffffffffffffffffffffffffffffffffffffffff1673ffffffffffffffffffffffffffffffffffffffff1681526020016000820160149054906101000a900460ff16600181111561037f57fe5b600181111561038a57fe5b815260200160018201548152602001600282018054600181600116156101000203166002900480601f0160208091040260200160405190810160405280929190818152602001828054600181600116156101000203166002900480156104315780601f1061040657610100808354040283529160200191610431565b820191906000526020600020905b81548152906001019060200180831161041457829003601f168201915b5050505050815260200160038201548152505082828151811061045057fe5b602002602001018190525080600101905061027d565b5080905090565b6060806004805490506040519080825280602002602001820160405280156104af57816020015b61049c611b38565b8152602001906001900390816104945790505b50905060008090505b6004805490508110156108dc576000600482815481106104d457fe5b9060005260206000200160009054906101000a900473ffffffffffffffffffffffffffffffffffffffff169050600660008273ffffffffffffffffffffffffffffffffffffffff1673ffffffffffffffffffffffffffffffffffffffff1681526020019081526020016000205483838151811061054d57fe5b602002602001015160000181815250506000600260008373ffffffffffffffffffffffffffffffffffffffff1673ffffffffffffffffffffffffffffffffffffffff1681526020019081526020016000209050600073ffffffffffffffffffffffffffffffffffffffff168160000160009054906101000a900473ffffffffffffffffffffffffffffffffffffffff1673ffffffffffffffffffffffffffffffffffffffff161415610634576040517f08c379a000000000000000000000000000000000000000000000000000000000815260040161062b90612417565b60405180910390fd5b858160020160008154811061064557fe5b906000526020600020906002020160010154111561068d576040518060200160405280600081525084848151811061067957fe5b6020026020010151602001819052506108cf565b600081600201805490509050600080905060008090505b600183038110156107ee57888460020182815481106106bf57fe5b906000526020600020906002020160010154111580156107015750888460020160018301815481106106ed57fe5b906000526020600020906002020160010154115b156107e35783600201818154811061071557fe5b90600052602060002090600202016000018054600181600116156101000203166002900480601f0160208091040260200160405190810160405280929190818152602001828054600181600116156101000203166002900480156107ba5780601f1061078f576101008083540402835291602001916107ba565b820191906000526020600020905b81548152906001019060200180831161079d57829003601f168201915b50505050508787815181106107cb57fe5b602002602001015160200181905250600191506107ee565b8060010190506106a4565b50806108cc5782600201600183038154811061080657fe5b90600052602060002090600202016000018054600181600116156101000203166002900480601f0160208091040260200160405190810160405280929190818152602001828054600181600116156101000203166002900480156108ab5780601f10610880576101008083540402835291602001916108ab565b820191906000526020600020905b81548152906001019060200180831161088e57829003601f168201915b50505050508686815181106108bc57fe5b6020026020010151602001819052505b50505b50508060010190506104b8565b5080915050919050565b6000809054906101000a900473ffffffffffffffffffffffffffffffffffffffff1673ffffffffffffffffffffffffffffffffffffffff163373ffffffffffffffffffffffffffffffffffffffff1614610975576040517f08c379a000000000000000000000000000000000000000000000000000000000815260040161096c906123d7565b60405180910390fd5b61097d611b52565b610986826113a9565b90506000600260008473ffffffffffffffffffffffffffffffffffffffff1673ffffffffffffffffffffffffffffffffffffffff1681526020019081526020016000209050600073ffffffffffffffffffffffffffffffffffffffff168160000160009054906101000a900473ffffffffffffffffffffffffffffffffffffffff1673ffffffffffffffffffffffffffffffffffffffff1614610b8d57600180811115610a2f57fe5b82602001516001811115610a3f57fe5b1415610a5357610a4e836117e1565b610b88565b6000816002019050600081805490509050600081905060008090505b82811015610abb578560800151848281548110610a8857fe5b9060005260206000209060020201600101541015610aab57600181019150610ab0565b610abb565b806001019050610a6f565b5060008190505b82811015610b105783805480610ad457fe5b600190038181906000526020600020906002020160008082016000610af99190611ba2565b600182016000905550509055806001019050610ac2565b50826040518060400160405280876060015181526020018760800151815250908060018154018082558091505090600182039060005260206000209060020201600090919290919091506000820151816000019080519060200190610b76929190611bea565b50602082015181600101555050505050505b610d81565b600180811115610b9957fe5b82602001516001811115610ba957fe5b1415610bb6575050610d84565b828160000160006101000a81548173ffffffffffffffffffffffffffffffffffffffff021916908373ffffffffffffffffffffffffffffffffffffffff16021790555081604001518160010181905550806002016040518060400160405280846060015181526020018460800151815250908060018154018082558091505090600182039060005260206000209060020201600090919290919091506000820151816000019080519060200190610c6e929190611bea565b506020820151816001015550505060048390806001815401808255809150509060018203906000526020600020016000909192909190916101000a81548173ffffffffffffffffffffffffffffffffffffffff021916908373ffffffffffffffffffffffffffffffffffffffff1602179055505082600560008360010154815260200190815260200160002060006101000a81548173ffffffffffffffffffffffffffffffffffffffff021916908373ffffffffffffffffffffffffffffffffffffffff1602179055508060010154600660008573ffffffffffffffffffffffffffffffffffffffff1673ffffffffffffffffffffffffffffffffffffffff168152602001908152602001600020819055505b50505b50565b60003390506000600660008373ffffffffffffffffffffffffffffffffffffffff1673ffffffffffffffffffffffffffffffffffffffff1681526020019081526020016000205490506000600160008473ffffffffffffffffffffffffffffffffffffffff1673ffffffffffffffffffffffffffffffffffffffff168152602001908152602001600020905060008214610e6257818614610e5d576040517f08c379a0000000000000000000000000000000000000000000000000000000008152600401610e54906123b7565b60405180910390fd5b610f05565b600073ffffffffffffffffffffffffffffffffffffffff166005600088815260200190815260200160002060009054906101000a900473ffffffffffffffffffffffffffffffffffffffff1673ffffffffffffffffffffffffffffffffffffffff1614610f04576040517f08c379a0000000000000000000000000000000000000000000000000000000008152600401610efb90612437565b60405180910390fd5b5b600073ffffffffffffffffffffffffffffffffffffffff168160000160009054906101000a900473ffffffffffffffffffffffffffffffffffffffff1673ffffffffffffffffffffffffffffffffffffffff161415610fc55760038390806001815401808255809150509060018203906000526020600020016000909192909190916101000a81548173ffffffffffffffffffffffffffffffffffffffff021916908373ffffffffffffffffffffffffffffffffffffffff160217905550505b828160000160006101000a81548173ffffffffffffffffffffffffffffffffffffffff021916908373ffffffffffffffffffffffffffffffffffffffff160217905550868160000160146101000a81548160ff0219169083600181111561102857fe5b02179055508581600101819055508481600201908051906020019061104e929190611c6a565b5083816003018190555050505050505050565b606060006005600085815260200190815260200160002060009054906101000a900473ffffffffffffffffffffffffffffffffffffffff169050600073ffffffffffffffffffffffffffffffffffffffff168173ffffffffffffffffffffffffffffffffffffffff1614156110e857604051806020016040528060008152509150506113a3565b6000600260008373ffffffffffffffffffffffffffffffffffffffff1673ffffffffffffffffffffffffffffffffffffffff1681526020019081526020016000209050600073ffffffffffffffffffffffffffffffffffffffff168160000160009054906101000a900473ffffffffffffffffffffffffffffffffffffffff1673ffffffffffffffffffffffffffffffffffffffff16141561119d5760405180602001604052806000815250925050506113a3565b60008160020180549050905060008090505b600182038110156112e057858360020182815481106111ca57fe5b9060005260206000209060020201600101541115801561120c5750858360020160018301815481106111f857fe5b906000526020600020906002020160010154115b156112d55782600201818154811061122057fe5b90600052602060002090600202016000018054600181600116156101000203166002900480601f0160208091040260200160405190810160405280929190818152602001828054600181600116156101000203166002900480156112c55780601f1061129a576101008083540402835291602001916112c5565b820191906000526020600020905b8154815290600101906020018083116112a857829003601f168201915b50505050509450505050506113a3565b8060010190506111af565b508160020160018203815481106112f357fe5b90600052602060002090600202016000018054600181600116156101000203166002900480601f0160208091040260200160405190810160405280929190818152602001828054600181600116156101000203166002900480156113985780601f1061136d57610100808354040283529160200191611398565b820191906000526020600020905b81548152906001019060200180831161137b57829003601f168201915b505050505093505050505b92915050565b6113b1611b52565b600160008373ffffffffffffffffffffffffffffffffffffffff1673ffffffffffffffffffffffffffffffffffffffff1681526020019081526020016000206040518060a00160405290816000820160009054906101000a900473ffffffffffffffffffffffffffffffffffffffff1673ffffffffffffffffffffffffffffffffffffffff1673ffffffffffffffffffffffffffffffffffffffff1681526020016000820160149054906101000a900460ff16600181111561146f57fe5b600181111561147a57fe5b815260200160018201548152602001600282018054600181600116156101000203166002900480601f0160208091040260200160405190810160405280929190818152602001828054600181600116156101000203166002900480156115215780601f106114f657610100808354040283529160200191611521565b820191906000526020600020905b81548152906001019060200180831161150457829003601f168201915b505050505081526020016003820154815250509050600073ffffffffffffffffffffffffffffffffffffffff16816000015173ffffffffffffffffffffffffffffffffffffffff1614156115aa576040517f08c379a00000000000000000000000000000000000000000000000000000000081526004016115a1906123f7565b60405180910390fd5b6000600160008473ffffffffffffffffffffffffffffffffffffffff1673ffffffffffffffffffffffffffffffffffffffff16815260200190815260200160002060000160006101000a81548173ffffffffffffffffffffffffffffffffffffffff021916908373ffffffffffffffffffffffffffffffffffffffff16021790555060006003805490509050600081905060008090505b828110156116c7578473ffffffffffffffffffffffffffffffffffffffff166003828154811061166d57fe5b9060005260206000200160009054906101000a900473ffffffffffffffffffffffffffffffffffffffff1673ffffffffffffffffffffffffffffffffffffffff1614156116bc578091506116c7565b806001019050611641565b5081811061170a576040517f08c379a000000000000000000000000000000000000000000000000000000000815260040161170190612417565b60405180910390fd5b6003600183038154811061171a57fe5b9060005260206000200160009054906101000a900473ffffffffffffffffffffffffffffffffffffffff166003828154811061175257fe5b9060005260206000200160006101000a81548173ffffffffffffffffffffffffffffffffffffffff021916908373ffffffffffffffffffffffffffffffffffffffff16021790555060038054806117a557fe5b6001900381819060005260206000200160006101000a81549073ffffffffffffffffffffffffffffffffffffffff021916905590555050919050565b600073ffffffffffffffffffffffffffffffffffffffff16600260008373ffffffffffffffffffffffffffffffffffffffff1673ffffffffffffffffffffffffffffffffffffffff16815260200190815260200160002060000160009054906101000a900473ffffffffffffffffffffffffffffffffffffffff1673ffffffffffffffffffffffffffffffffffffffff1614156118b3576040517f08c379a00000000000000000000000000000000000000000000000000000000081526004016118aa90612457565b60405180910390fd5b6000600260008373ffffffffffffffffffffffffffffffffffffffff1673ffffffffffffffffffffffffffffffffffffffff16815260200190815260200160002060000160006101000a81548173ffffffffffffffffffffffffffffffffffffffff021916908373ffffffffffffffffffffffffffffffffffffffff16021790555060006004805490509050600081905060008090505b828110156119d0578373ffffffffffffffffffffffffffffffffffffffff166004828154811061197657fe5b9060005260206000200160009054906101000a900473ffffffffffffffffffffffffffffffffffffffff1673ffffffffffffffffffffffffffffffffffffffff1614156119c5578091506119d0565b80600101905061194a565b50818110611a13576040517f08c379a0000000000000000000000000000000000000000000000000000000008152600401611a0a90612417565b60405180910390fd5b60046001830381548110611a2357fe5b9060005260206000200160009054906101000a900473ffffffffffffffffffffffffffffffffffffffff1660048281548110611a5b57fe5b9060005260206000200160006101000a81548173ffffffffffffffffffffffffffffffffffffffff021916908373ffffffffffffffffffffffffffffffffffffffff1602179055506004805480611aae57fe5b6001900381819060005260206000200160006101000a81549073ffffffffffffffffffffffffffffffffffffffff02191690559055505050565b6040518060a00160405280600073ffffffffffffffffffffffffffffffffffffffff16815260200160006001811115611b1d57fe5b81526020016000815260200160608152602001600081525090565b604051806040016040528060008152602001606081525090565b6040518060a00160405280600073ffffffffffffffffffffffffffffffffffffffff16815260200160006001811115611b8757fe5b81526020016000815260200160608152602001600081525090565b50805460018160011615610100020316600290046000825580601f10611bc85750611be7565b601f016020900490600052602060002090810190611be69190611cea565b5b50565b828054600181600116156101000203166002900490600052602060002090601f016020900481019282601f10611c2b57805160ff1916838001178555611c59565b82800160010185558215611c59579182015b82811115611c58578251825591602001919060010190611c3d565b5b509050611c669190611cea565b5090565b828054600181600116156101000203166002900490600052602060002090601f016020900481019282601f10611cab57805160ff1916838001178555611cd9565b82800160010185558215611cd9579182015b82811115611cd8578251825591602001919060010190611cbd565b5b509050611ce69190611cea565b5090565b611d0c91905b80821115611d08576000816000905550600101611cf0565b5090565b90565b600081359050611d1e8161263b565b92915050565b600081359050611d3381612652565b92915050565b600082601f830112611d4a57600080fd5b8135611d5d611d58826124a4565b612477565b91508082526020830160208301858383011115611d7957600080fd5b611d848382846125db565b50505092915050565b600081359050611d9c81612662565b92915050565b600060208284031215611db457600080fd5b6000611dc284828501611d0f565b91505092915050565b60008060008060808587031215611de157600080fd5b6000611def87828801611d24565b9450506020611e0087828801611d8d565b935050604085013567ffffffffffffffff811115611e1d57600080fd5b611e2987828801611d39565b9250506060611e3a87828801611d8d565b91505092959194509250565b600060208284031215611e5857600080fd5b6000611e6684828501611d8d565b91505092915050565b60008060408385031215611e8257600080fd5b6000611e9085828601611d8d565b9250506020611ea185828601611d8d565b9150509250929050565b6000611eb78383612274565b905092915050565b6000611ecb83836122b1565b905092915050565b611edc8161257a565b82525050565b611eeb8161257a565b82525050565b6000611efc826124f0565b611f068185612536565b935083602082028501611f18856124d0565b8060005b85811015611f545784840389528151611f358582611eab565b9450611f408361251c565b925060208a01995050600181019050611f1c565b50829750879550505050505092915050565b6000611f71826124fb565b611f7b8185612547565b935083602082028501611f8d856124e0565b8060005b85811015611fc95784840389528151611faa8582611ebf565b9450611fb583612529565b925060208a01995050600181019050611f91565b50829750879550505050505092915050565b611fe4816125c9565b82525050565b6000611ff582612511565b611fff8185612569565b935061200f8185602086016125ea565b6120188161261d565b840191505092915050565b600061202e82612506565b6120388185612558565b93506120488185602086016125ea565b6120518161261d565b840191505092915050565b6000612069601783612569565b91507f4153206e756d6265722073686f756c64206d61746368210000000000000000006000830152602082019050919050565b60006120a9601983612569565b91507f4f6e6c79206f776e65722063616e2063616c6c20746869732e000000000000006000830152602082019050919050565b60006120e9602283612569565b91507f54686520757064617465206170706c69636174696f6e20697320696e76616c6960008301527f64210000000000000000000000000000000000000000000000000000000000006020830152604082019050919050565b600061214f602583612569565b91507f54686520636f6e7472616374207374617465206973206e6f7420636f6e73697360008301527f74656e74210000000000000000000000000000000000000000000000000000006020830152604082019050919050565b60006121b5602383612569565b91507f4153206e756d6265722073686f756c64206e6f7420626520726567697374657260008301527f65642100000000000000000000000000000000000000000000000000000000006020830152604082019050919050565b600061221b602283612569565b91507f5468657265206973206e6f207375636820415320746f2062652072656d6f766560008301527f64210000000000000000000000000000000000000000000000000000000000006020830152604082019050919050565b600060408301600083015161228c6000860182612327565b50602083015184820360208601526122a48282612023565b9150508091505092915050565b600060a0830160008301516122c96000860182611ed3565b5060208301516122dc6020860182611fdb565b5060408301516122ef6040860182612327565b50606083015184820360608601526123078282612023565b915050608083015161231c6080860182612327565b508091505092915050565b612330816125bf565b82525050565b600060208201905061234b6000830184611ee2565b92915050565b6000602082019050818103600083015261236b8184611ef1565b905092915050565b6000602082019050818103600083015261238d8184611f66565b905092915050565b600060208201905081810360008301526123af8184611fea565b905092915050565b600060208201905081810360008301526123d08161205c565b9050919050565b600060208201905081810360008301526123f08161209c565b9050919050565b60006020820190508181036000830152612410816120dc565b9050919050565b6000602082019050818103600083015261243081612142565b9050919050565b60006020820190508181036000830152612450816121a8565b9050919050565b600060208201905081810360008301526124708161220e565b9050919050565b6000604051905081810181811067ffffffffffffffff8211171561249a57600080fd5b8060405250919050565b600067ffffffffffffffff8211156124bb57600080fd5b601f19601f8301169050602081019050919050565b6000819050602082019050919050565b6000819050602082019050919050565b600081519050919050565b600081519050919050565b600081519050919050565b600081519050919050565b6000602082019050919050565b6000602082019050919050565b600082825260208201905092915050565b600082825260208201905092915050565b600082825260208201905092915050565b600082825260208201905092915050565b60006125858261259f565b9050919050565b600081905061259a8261262e565b919050565b600073ffffffffffffffffffffffffffffffffffffffff82169050919050565b6000819050919050565b60006125d48261258c565b9050919050565b82818337600083830152505050565b60005b838110156126085780820151818401526020810190506125ed565b83811115612617576000848401525b50505050565b6000601f19601f8301169050919050565b6002811061263857fe5b50565b6126448161257a565b811461264f57600080fd5b50565b6002811061265f57600080fd5b50565b61266b816125bf565b811461267657600080fd5b5056fea365627a7a723158208e30cc6bb7266885820cc19bcc5fdef113e4828278d78c3a537e112f7c08dea26c6578706572696d656e74616cf564736f6c63430005100040",
  "source": "pragma solidity >=0.4.21 <0.7.0;\npragma experimental ABIEncoderV2;\n\ncontract SMARegister {\n    enum UpdateType { Update, Delete }\n    struct AddrTimePair {\n        string acs_addr;\n        uint256 effect_time;\n    }\n    struct ASUpdateMsg {\n        address id;\n        UpdateType update_type;\n        uint256 asn;\n        string acs_addr;\n        uint256 effect_time;\n    }\n    struct ASInfo {\n        address id;\n        uint256 asn;\n        AddrTimePair[] acs_list;\n    }\n    struct ASNAddr{\n        uint256 asn;\n        string acs_addr;\n    }\n\n    modifier onlyOwner {\n        require(\n            msg.sender == owner,\n            \"Only owner can call this.\"\n        );\n        _;\n    }\n\n    string constant NONEXISTENT_ACS_ADDR = \"\";\n\n    // const used for AS existence check\n    address constant UNSET_ID = address(0);\n    uint256 constant UNSET_ASN = 0;\n\n    // administrator address of security aliance\n    address public owner;\n    // AS update application map\n    mapping(address => ASUpdateMsg) private app_queue;\n    // AS Info map\n    mapping(address => ASInfo) private as_queue;\n    // id list of current ASes in application map\n    address[] app_queue_ids;\n    // id list of current ASes in security aliance\n    address[] as_queue_ids;\n\n    // binding relations from asn to id, once added, never deleted\n    mapping(uint256 => address) asn2id;\n    // binding relations from id to asn, once added, never deleted\n    mapping(address => uint256) id2asn;\n\n    constructor() public {\n        owner = msg.sender;\n    }\n\n    function ASUpdate(UpdateType _update_type, uint256 _asn, string memory _acs_addr, uint256 _effect_time) public {\n        address id = msg.sender;\n        uint256 expected_asn = id2asn[id];\n        ASUpdateMsg storage as_update_msg = app_queue[id];\n        // check if this address has registered a AS number\n        if (expected_asn != UNSET_ASN) {\n            require(_asn == expected_asn, \"AS number should match!\");\n        } else {\n            require(asn2id[_asn] == UNSET_ID, \"AS number should not be registered!\");\n        }\n        // This address has not proposed an application\n        if (as_update_msg.id == UNSET_ID) {\n            app_queue_ids.push(id);\n        }\n        as_update_msg.id = id;\n        as_update_msg.update_type = _update_type;\n        as_update_msg.asn = _asn;\n        as_update_msg.acs_addr = _acs_addr;\n        as_update_msg.effect_time = _effect_time;\n    }\n\n    function UpdateQuery() public view returns (ASUpdateMsg[] memory apps) {\n        apps = new ASUpdateMsg[](app_queue_ids.length);\n        for (uint i = 0; i < app_queue_ids.length; ++i) {\n            apps[i] = app_queue[app_queue_ids[i]];\n        }\n        return apps;\n    }\n\n    function UpdateApprove(address id) public onlyOwner {\n        ASUpdateMsg memory as_update_msg = RemoveFromAppQueue(id);\n        ASInfo storage as_info = as_queue[id];\n        // check if the AS is in the security aliance now\n        if (as_info.id != UNSET_ID) {\n            if (as_update_msg.update_type == UpdateType.Delete) {\n                RemoveFromASQueue(id);\n            } else {\n                AddrTimePair[] storage acs_list = as_info.acs_list;\n                uint n = acs_list.length;\n                uint index = n;\n                for (uint i = 0; i < n; ++i) {\n                    if (acs_list[i].effect_time < as_update_msg.effect_time) {\n                        index = i + 1;\n                    } else {\n                        break;\n                    }\n                }\n                for (uint i = index; i < n; ++i) {\n                    acs_list.pop();\n                }\n                acs_list.push(AddrTimePair(as_update_msg.acs_addr, as_update_msg.effect_time));\n            }\n        } else {\n            if (as_update_msg.update_type == UpdateType.Delete) {\n                return;\n            }\n            as_info.id = id;\n            as_info.asn = as_update_msg.asn;\n            as_info.acs_list.push(AddrTimePair(as_update_msg.acs_addr, as_update_msg.effect_time));\n            as_queue_ids.push(id);\n            asn2id[as_info.asn] = id;\n            id2asn[id] = as_info.asn;\n        }\n    }\n\n    function UpdateReject(address id) public onlyOwner {\n        RemoveFromAppQueue(id);\n    }\n\n    function SingleACSQuery(uint256 asn, uint256 time) public view returns(string memory) {\n        address id = asn2id[asn];\n        if (id == UNSET_ID) {\n            return NONEXISTENT_ACS_ADDR;\n        }\n        ASInfo storage as_info = as_queue[id];\n        if (as_info.id == UNSET_ID) {\n            return NONEXISTENT_ACS_ADDR;\n        }\n        uint n = as_info.acs_list.length;\n        for (uint i = 0; i < n - 1; ++i) {\n            if (as_info.acs_list[i].effect_time <= time && as_info.acs_list[i + 1].effect_time > time) {\n                return as_info.acs_list[i].acs_addr;\n            }\n        }\n        return as_info.acs_list[n - 1].acs_addr;\n    }\n\n    function AllACSQuery(uint256 time) public view returns(ASNAddr[] memory) {\n        ASNAddr[] memory addrs = new ASNAddr[](as_queue_ids.length);\n        for (uint i = 0; i < as_queue_ids.length; ++i) {\n            address id = as_queue_ids[i];\n            addrs[i].asn = id2asn[id];\n            ASInfo storage as_info = as_queue[id];\n            require(as_info.id != UNSET_ID, \"The contract state is not consistent!\");\n            if (as_info.acs_list[0].effect_time > time) {\n                addrs[i].acs_addr = NONEXISTENT_ACS_ADDR;\n            } else {\n                uint n = as_info.acs_list.length;\n                bool found = false;\n                for (uint j = 0; j < n - 1; ++j) {\n                    if (as_info.acs_list[j].effect_time <= time && as_info.acs_list[j + 1].effect_time > time) {\n                        addrs[i].acs_addr = as_info.acs_list[j].acs_addr;\n                        found = true;\n                        break;\n                    }\n                }\n                if (!found) {\n                    addrs[i].acs_addr = as_info.acs_list[n - 1].acs_addr;\n                }\n            }\n        }\n        return addrs;\n    }\n\n\n    function RemoveFromAppQueue(address id) private returns (ASUpdateMsg memory as_update_msg){\n        as_update_msg = app_queue[id];\n        require(as_update_msg.id != UNSET_ID, \"The update application is invalid!\");\n        app_queue[id].id = UNSET_ID;\n        uint n = app_queue_ids.length;\n        uint index = n;\n        for (uint i = 0; i < n; ++i) {\n            if (app_queue_ids[i] == id) {\n                index = i;\n                break;\n            }\n        }\n        require(index < n, \"The contract state is not consistent!\");\n        app_queue_ids[index] = app_queue_ids[n - 1];\n        app_queue_ids.pop();\n    }\n\n    function RemoveFromASQueue(address id) private {\n        require(as_queue[id].id != UNSET_ID, \"There is no such AS to be removed!\");\n        as_queue[id].id = UNSET_ID;\n        uint n = as_queue_ids.length;\n        uint index = n;\n        for (uint i = 0; i < n; ++i) {\n            if (as_queue_ids[i] == id) {\n                index = i;\n                break;\n            }\n        }\n        require(index < n, \"The contract state is not consistent!\");\n        as_queue_ids[index] = as_queue_ids[n - 1];\n        as_queue_ids.pop();\n    }\n}",
  "sourcePath": "/Users/bragcat/Code/RegChain/contracts/SMARegister.sol",
  "compiler": {
    "name": "solc",
    "version": "0.5.16+commit.9c3226ce.Emscripten.clang"
  },
  "schemaVersion": "3.0.23",
  "updatedAt": "2020-05-08T14:07:44.935Z",
  "networkType": "ethereum",
  "devdoc": {
    "methods": {}
  },
  "userdoc": {
    "methods": {}
  }
}