{
  "contractName": "SMARegister",
  "abi": [
    {
      "inputs": [],
      "payable": false,
      "stateMutability": "nonpayable",
      "type": "constructor"
    },
    {
      "constant": true,
      "inputs": [],
      "name": "owner",
      "outputs": [
        {
          "internalType": "address",
          "name": "",
          "type": "address"
        }
      ],
      "payable": false,
      "stateMutability": "view",
      "type": "function"
    },
    {
      "constant": false,
      "inputs": [
        {
          "internalType": "enum SMARegister.UpdateType",
          "name": "_update_type",
          "type": "uint8"
        },
        {
          "internalType": "uint256",
          "name": "_asn",
          "type": "uint256"
        },
        {
          "internalType": "string",
          "name": "_acs_addr",
          "type": "string"
        },
        {
          "internalType": "uint256",
          "name": "_effect_time",
          "type": "uint256"
        }
      ],
      "name": "ASUpdate",
      "outputs": [],
      "payable": false,
      "stateMutability": "nonpayable",
      "type": "function"
    },
    {
      "constant": true,
      "inputs": [],
      "name": "UpdateQuery",
      "outputs": [
        {
          "components": [
            {
              "internalType": "enum SMARegister.UpdateType",
              "name": "update_type",
              "type": "uint8"
            },
            {
              "internalType": "uint256",
              "name": "asn",
              "type": "uint256"
            },
            {
              "internalType": "string",
              "name": "acs_addr",
              "type": "string"
            },
            {
              "internalType": "uint256",
              "name": "effect_time",
              "type": "uint256"
            }
          ],
          "internalType": "struct SMARegister.ASUpdateMsg[]",
          "name": "apps",
          "type": "tuple[]"
        }
      ],
      "payable": false,
      "stateMutability": "view",
      "type": "function"
    },
    {
      "constant": false,
      "inputs": [
        {
          "internalType": "address",
          "name": "id",
          "type": "address"
        }
      ],
      "name": "UpdateApprove",
      "outputs": [],
      "payable": false,
      "stateMutability": "nonpayable",
      "type": "function"
    },
    {
      "constant": false,
      "inputs": [
        {
          "internalType": "address",
          "name": "id",
          "type": "address"
        }
      ],
      "name": "UpdateReject",
      "outputs": [],
      "payable": false,
      "stateMutability": "nonpayable",
      "type": "function"
    },
    {
      "constant": true,
      "inputs": [
        {
          "internalType": "uint256",
          "name": "asn",
          "type": "uint256"
        },
        {
          "internalType": "uint256",
          "name": "time",
          "type": "uint256"
        }
      ],
      "name": "QueryAS",
      "outputs": [
        {
          "internalType": "string",
          "name": "",
          "type": "string"
        }
      ],
      "payable": false,
      "stateMutability": "view",
      "type": "function"
    },
    {
      "constant": true,
      "inputs": [
        {
          "internalType": "uint256",
          "name": "time",
          "type": "uint256"
        }
      ],
      "name": "QueryAllAS",
      "outputs": [
        {
          "components": [
            {
              "internalType": "uint256",
              "name": "asn",
              "type": "uint256"
            },
            {
              "internalType": "string",
              "name": "acs_addr",
              "type": "string"
            }
          ],
          "internalType": "struct SMARegister.ASNAddr[]",
          "name": "",
          "type": "tuple[]"
        }
      ],
      "payable": false,
      "stateMutability": "view",
      "type": "function"
    }
  ],
  "bytecode": "0x608060405234801561001057600080fd5b50336000806101000a81548173ffffffffffffffffffffffffffffffffffffffff021916908373ffffffffffffffffffffffffffffffffffffffff1602179055506120fb806100606000396000f3fe608060405234801561001057600080fd5b506004361061007d5760003560e01c806395f30c4e1161005b57806395f30c4e146100ec578063d063cb541461010a578063e828a56914610126578063f27e864c146101425761007d565b80632b1d2afc146100825780637727387b146100b25780638da5cb5b146100ce575b600080fd5b61009c60048036036100979190810190611979565b610172565b6040516100a99190611db0565b60405180910390f35b6100cc60048036036100c791908101906118d5565b61054d565b005b6100d66105e9565b6040516100e39190611d95565b60405180910390f35b6100f461060e565b6040516101019190611dd2565b60405180910390f35b610124600480360361011f91908101906118d5565b6107f2565b005b610140600480360361013b91908101906118fe565b610bbc565b005b61015c600480360361015791908101906119a2565b610da5565b6040516101699190611df4565b60405180910390f35b6060806004805490506040519080825280602002602001820160405280156101b457816020015b6101a1611655565b8152602001906001900390816101995790505b50905060008090505b600480549050811015610543576000600482815481106101d957fe5b9060005260206000200160009054906101000a900473ffffffffffffffffffffffffffffffffffffffff1690506000600260008373ffffffffffffffffffffffffffffffffffffffff1673ffffffffffffffffffffffffffffffffffffffff1681526020019081526020016000209050600081600001541415610291576040517f08c379a000000000000000000000000000000000000000000000000000000000815260040161028890611e76565b60405180910390fd5b85816001016000815481106102a257fe5b90600052602060002090600202016001015411156102f5576040517f08c379a00000000000000000000000000000000000000000000000000000000081526004016102ec90611e96565b60405180910390fd5b600081600101805490509050600080905060008090505b60018303811015610456578884600101828154811061032757fe5b9060005260206000209060020201600101541115801561036957508884600101600183018154811061035557fe5b906000526020600020906002020160010154115b1561044b5783600101818154811061037d57fe5b90600052602060002090600202016000018054600181600116156101000203166002900480601f0160208091040260200160405190810160405280929190818152602001828054600181600116156101000203166002900480156104225780601f106103f757610100808354040283529160200191610422565b820191906000526020600020905b81548152906001019060200180831161040557829003601f168201915b505050505087878151811061043357fe5b60200260200101516020018190525060019150610456565b80600101905061030c565b50806105345782600101600183038154811061046e57fe5b90600052602060002090600202016000018054600181600116156101000203166002900480601f0160208091040260200160405190810160405280929190818152602001828054600181600116156101000203166002900480156105135780601f106104e857610100808354040283529160200191610513565b820191906000526020600020905b8154815290600101906020018083116104f657829003601f168201915b505050505086868151811061052457fe5b6020026020010151602001819052505b505050508060010190506101bd565b5080915050919050565b6000809054906101000a900473ffffffffffffffffffffffffffffffffffffffff1673ffffffffffffffffffffffffffffffffffffffff163373ffffffffffffffffffffffffffffffffffffffff16146105dc576040517f08c379a00000000000000000000000000000000000000000000000000000000081526004016105d390611e36565b60405180910390fd5b6105e5816110c3565b5050565b6000809054906101000a900473ffffffffffffffffffffffffffffffffffffffff1681565b606060038054905060405190808252806020026020018201604052801561064f57816020015b61063c61166f565b8152602001906001900390816106345790505b50905060008090505b6003805490508110156107eb57600160006003838154811061067657fe5b9060005260206000200160009054906101000a900473ffffffffffffffffffffffffffffffffffffffff1673ffffffffffffffffffffffffffffffffffffffff1673ffffffffffffffffffffffffffffffffffffffff1681526020019081526020016000206040518060800160405290816000820160009054906101000a900460ff16600181111561070457fe5b600181111561070f57fe5b815260200160018201548152602001600282018054600181600116156101000203166002900480601f0160208091040260200160405190810160405280929190818152602001828054600181600116156101000203166002900480156107b65780601f1061078b576101008083540402835291602001916107b6565b820191906000526020600020905b81548152906001019060200180831161079957829003601f168201915b505050505081526020016003820154815250508282815181106107d557fe5b6020026020010181905250806001019050610658565b5080905090565b6000809054906101000a900473ffffffffffffffffffffffffffffffffffffffff1673ffffffffffffffffffffffffffffffffffffffff163373ffffffffffffffffffffffffffffffffffffffff1614610881576040517f08c379a000000000000000000000000000000000000000000000000000000000815260040161087890611e36565b60405180910390fd5b6108896116a2565b610892826110c3565b90506000600260008473ffffffffffffffffffffffffffffffffffffffff1673ffffffffffffffffffffffffffffffffffffffff16815260200190815260200160002090506000816000015414610a4d576001808111156108ef57fe5b826000015160018111156108ff57fe5b14156109135761090e836113db565b610a48565b6000816001019050600081805490509050600081905060008090505b8281101561097b57856060015184828154811061094857fe5b906000526020600020906002020160010154101561096b57600181019150610970565b61097b565b80600101905061092f565b5060008190505b828110156109d0578380548061099457fe5b6001900381819060005260206000209060020201600080820160006109b991906116d5565b600182016000905550509055806001019050610982565b50826040518060400160405280876040015181526020018760600151815250908060018154018082558091505090600182039060005260206000209060020201600090919290919091506000820151816000019080519060200190610a3692919061171d565b50602082015181600101555050505050505b610bb6565b600180811115610a5957fe5b82600001516001811115610a6957fe5b1415610a76575050610bb9565b81602001518160000181905550806001016040518060400160405280846040015181526020018460600151815250908060018154018082558091505090600182039060005260206000209060020201600090919290919091506000820151816000019080519060200190610aeb92919061171d565b506020820151816001015550505060048390806001815401808255809150509060018203906000526020600020016000909192909190916101000a81548173ffffffffffffffffffffffffffffffffffffffff021916908373ffffffffffffffffffffffffffffffffffffffff1602179055505082600560008360000154815260200190815260200160002060006101000a81548173ffffffffffffffffffffffffffffffffffffffff021916908373ffffffffffffffffffffffffffffffffffffffff1602179055505b50505b50565b6000831415610c00576040517f08c379a0000000000000000000000000000000000000000000000000000000008152600401610bf790611e56565b60405180910390fd5b6000600260003373ffffffffffffffffffffffffffffffffffffffff1673ffffffffffffffffffffffffffffffffffffffff16815260200190815260200160002090506000600160003373ffffffffffffffffffffffffffffffffffffffff1673ffffffffffffffffffffffffffffffffffffffff16815260200190815260200160002090506000826000015414610cd95781600001548514610cd8576040517f08c379a0000000000000000000000000000000000000000000000000000000008152600401610ccf90611e16565b60405180910390fd5b5b600081600101541415610d4d5760033390806001815401808255809150509060018203906000526020600020016000909192909190916101000a81548173ffffffffffffffffffffffffffffffffffffffff021916908373ffffffffffffffffffffffffffffffffffffffff160217905550505b858160000160006101000a81548160ff02191690836001811115610d6d57fe5b021790555084816001018190555083816002019080519060200190610d9392919061179d565b50828160030181905550505050505050565b606060006005600085815260200190815260200160002060009054906101000a900473ffffffffffffffffffffffffffffffffffffffff169050600073ffffffffffffffffffffffffffffffffffffffff168173ffffffffffffffffffffffffffffffffffffffff161415610e2c57604051806020016040528060008152509150506110bd565b6000600260008373ffffffffffffffffffffffffffffffffffffffff1673ffffffffffffffffffffffffffffffffffffffff1681526020019081526020016000209050600081600001541415610eb7576040517f08c379a0000000000000000000000000000000000000000000000000000000008152600401610eae90611e76565b60405180910390fd5b60008160010180549050905060008090505b60018203811015610ffa5785836001018281548110610ee457fe5b90600052602060002090600202016001015411158015610f26575085836001016001830181548110610f1257fe5b906000526020600020906002020160010154115b15610fef57826001018181548110610f3a57fe5b90600052602060002090600202016000018054600181600116156101000203166002900480601f016020809104026020016040519081016040528092919081815260200182805460018160011615610100020316600290048015610fdf5780601f10610fb457610100808354040283529160200191610fdf565b820191906000526020600020905b815481529060010190602001808311610fc257829003601f168201915b50505050509450505050506110bd565b806001019050610ec9565b5081600101600182038154811061100d57fe5b90600052602060002090600202016000018054600181600116156101000203166002900480601f0160208091040260200160405190810160405280929190818152602001828054600181600116156101000203166002900480156110b25780601f10611087576101008083540402835291602001916110b2565b820191906000526020600020905b81548152906001019060200180831161109557829003601f168201915b505050505093505050505b92915050565b6110cb6116a2565b600160008373ffffffffffffffffffffffffffffffffffffffff1673ffffffffffffffffffffffffffffffffffffffff1681526020019081526020016000206040518060800160405290816000820160009054906101000a900460ff16600181111561113357fe5b600181111561113e57fe5b815260200160018201548152602001600282018054600181600116156101000203166002900480601f0160208091040260200160405190810160405280929190818152602001828054600181600116156101000203166002900480156111e55780601f106111ba576101008083540402835291602001916111e5565b820191906000526020600020905b8154815290600101906020018083116111c857829003601f168201915b5050505050815260200160038201548152505090506000600160008473ffffffffffffffffffffffffffffffffffffffff1673ffffffffffffffffffffffffffffffffffffffff1681526020019081526020016000206001018190555060006003805490509050600081905060008090505b828110156112dd578473ffffffffffffffffffffffffffffffffffffffff166003828154811061128357fe5b9060005260206000200160009054906101000a900473ffffffffffffffffffffffffffffffffffffffff1673ffffffffffffffffffffffffffffffffffffffff1614156112d2578091506112dd565b806001019050611257565b508181106112e757fe5b60008190505b60018303811015611393576003600182018154811061130857fe5b9060005260206000200160009054906101000a900473ffffffffffffffffffffffffffffffffffffffff166003828154811061134057fe5b9060005260206000200160006101000a81548173ffffffffffffffffffffffffffffffffffffffff021916908373ffffffffffffffffffffffffffffffffffffffff1602179055508060010190506112ed565b50600380548061139f57fe5b6001900381819060005260206000200160006101000a81549073ffffffffffffffffffffffffffffffffffffffff021916905590555050919050565b6000600260008373ffffffffffffffffffffffffffffffffffffffff1673ffffffffffffffffffffffffffffffffffffffff16815260200190815260200160002060000154905060006005600083815260200190815260200160002060006101000a81548173ffffffffffffffffffffffffffffffffffffffff021916908373ffffffffffffffffffffffffffffffffffffffff1602179055506000600260008473ffffffffffffffffffffffffffffffffffffffff1673ffffffffffffffffffffffffffffffffffffffff1681526020019081526020016000206000018190555060006004805490509050600081905060008090505b82811015611558578473ffffffffffffffffffffffffffffffffffffffff16600482815481106114fe57fe5b9060005260206000200160009054906101000a900473ffffffffffffffffffffffffffffffffffffffff1673ffffffffffffffffffffffffffffffffffffffff16141561154d57809150611558565b8060010190506114d2565b5081811061156257fe5b60008190505b6001830381101561160e576004600182018154811061158357fe5b9060005260206000200160009054906101000a900473ffffffffffffffffffffffffffffffffffffffff16600482815481106115bb57fe5b9060005260206000200160006101000a81548173ffffffffffffffffffffffffffffffffffffffff021916908373ffffffffffffffffffffffffffffffffffffffff160217905550806001019050611568565b50600480548061161a57fe5b6001900381819060005260206000200160006101000a81549073ffffffffffffffffffffffffffffffffffffffff0219169055905550505050565b604051806040016040528060008152602001606081525090565b60405180608001604052806000600181111561168757fe5b81526020016000815260200160608152602001600081525090565b6040518060800160405280600060018111156116ba57fe5b81526020016000815260200160608152602001600081525090565b50805460018160011615610100020316600290046000825580601f106116fb575061171a565b601f016020900490600052602060002090810190611719919061181d565b5b50565b828054600181600116156101000203166002900490600052602060002090601f016020900481019282601f1061175e57805160ff191683800117855561178c565b8280016001018555821561178c579182015b8281111561178b578251825591602001919060010190611770565b5b509050611799919061181d565b5090565b828054600181600116156101000203166002900490600052602060002090601f016020900481019282601f106117de57805160ff191683800117855561180c565b8280016001018555821561180c579182015b8281111561180b5782518255916020019190600101906117f0565b5b509050611819919061181d565b5090565b61183f91905b8082111561183b576000816000905550600101611823565b5090565b90565b6000813590506118518161207a565b92915050565b60008135905061186681612091565b92915050565b600082601f83011261187d57600080fd5b813561189061188b82611ee3565b611eb6565b915080825260208301602083018583830111156118ac57600080fd5b6118b783828461201a565b50505092915050565b6000813590506118cf816120a1565b92915050565b6000602082840312156118e757600080fd5b60006118f584828501611842565b91505092915050565b6000806000806080858703121561191457600080fd5b600061192287828801611857565b9450506020611933878288016118c0565b935050604085013567ffffffffffffffff81111561195057600080fd5b61195c8782880161186c565b925050606061196d878288016118c0565b91505092959194509250565b60006020828403121561198b57600080fd5b6000611999848285016118c0565b91505092915050565b600080604083850312156119b557600080fd5b60006119c3858286016118c0565b92505060206119d4858286016118c0565b9150509250929050565b60006119ea8383611ce6565b905092915050565b60006119fe8383611d23565b905092915050565b611a0f81611fb9565b82525050565b6000611a2082611f2f565b611a2a8185611f75565b935083602082028501611a3c85611f0f565b8060005b85811015611a785784840389528151611a5985826119de565b9450611a6483611f5b565b925060208a01995050600181019050611a40565b50829750879550505050505092915050565b6000611a9582611f3a565b611a9f8185611f86565b935083602082028501611ab185611f1f565b8060005b85811015611aed5784840389528151611ace85826119f2565b9450611ad983611f68565b925060208a01995050600181019050611ab5565b50829750879550505050505092915050565b611b0881612008565b82525050565b6000611b1982611f50565b611b238185611fa8565b9350611b33818560208601612029565b611b3c8161205c565b840191505092915050565b6000611b5282611f45565b611b5c8185611f97565b9350611b6c818560208601612029565b611b758161205c565b840191505092915050565b6000611b8d601783611fa8565b91507f4153206e756d6265722073686f756c64206d61746368210000000000000000006000830152602082019050919050565b6000611bcd601983611fa8565b91507f4f6e6c79206f776e65722063616e2063616c6c20746869732e000000000000006000830152602082019050919050565b6000611c0d601a83611fa8565b91507f4153206e756d6265722073686f756c64206e6f742062652030210000000000006000830152602082019050919050565b6000611c4d601d83611fa8565b91507f5468657265206973206e6f2073756368204153207265636f726465642e0000006000830152602082019050919050565b6000611c8d602e83611fa8565b91507f5468652074696d65206973207072696f7220746f20746865206561726c69657360008301527f74206566666563742074696d652e0000000000000000000000000000000000006020830152604082019050919050565b6000604083016000830151611cfe6000860182611d86565b5060208301518482036020860152611d168282611b47565b9150508091505092915050565b6000608083016000830151611d3b6000860182611aff565b506020830151611d4e6020860182611d86565b5060408301518482036040860152611d668282611b47565b9150506060830151611d7b6060860182611d86565b508091505092915050565b611d8f81611ffe565b82525050565b6000602082019050611daa6000830184611a06565b92915050565b60006020820190508181036000830152611dca8184611a15565b905092915050565b60006020820190508181036000830152611dec8184611a8a565b905092915050565b60006020820190508181036000830152611e0e8184611b0e565b905092915050565b60006020820190508181036000830152611e2f81611b80565b9050919050565b60006020820190508181036000830152611e4f81611bc0565b9050919050565b60006020820190508181036000830152611e6f81611c00565b9050919050565b60006020820190508181036000830152611e8f81611c40565b9050919050565b60006020820190508181036000830152611eaf81611c80565b9050919050565b6000604051905081810181811067ffffffffffffffff82111715611ed957600080fd5b8060405250919050565b600067ffffffffffffffff821115611efa57600080fd5b601f19601f8301169050602081019050919050565b6000819050602082019050919050565b6000819050602082019050919050565b600081519050919050565b600081519050919050565b600081519050919050565b600081519050919050565b6000602082019050919050565b6000602082019050919050565b600082825260208201905092915050565b600082825260208201905092915050565b600082825260208201905092915050565b600082825260208201905092915050565b6000611fc482611fde565b9050919050565b6000819050611fd98261206d565b919050565b600073ffffffffffffffffffffffffffffffffffffffff82169050919050565b6000819050919050565b600061201382611fcb565b9050919050565b82818337600083830152505050565b60005b8381101561204757808201518184015260208101905061202c565b83811115612056576000848401525b50505050565b6000601f19601f8301169050919050565b6002811061207757fe5b50565b61208381611fb9565b811461208e57600080fd5b50565b6002811061209e57600080fd5b50565b6120aa81611ffe565b81146120b557600080fd5b5056fea365627a7a72315820b68e4d224381194f75f22db2e08e2158d45bb4fe2c36e74c6ec026e82a3f282c6c6578706572696d656e74616cf564736f6c63430005100040",
  "source": "pragma solidity >=0.4.21 <0.7.0;\npragma experimental ABIEncoderV2;\n\ncontract SMARegister {\n    enum UpdateType { Update, Delete }\n    struct AddrTimePair {\n        string acs_addr;\n        uint256 effect_time;\n    }\n    struct ASUpdateMsg {\n        UpdateType update_type;\n        uint256 asn;\n        string acs_addr;\n        uint256 effect_time;\n    }\n    struct ASInfo {\n        uint256 asn;\n        AddrTimePair[] acs_list;\n    }\n    struct ASNAddr{\n        uint256 asn;\n        string acs_addr;\n    }\n\n    modifier onlyOwner {\n        require(\n            msg.sender == owner,\n            \"Only owner can call this.\"\n        );\n        _;\n    }\n\n    address public owner;\n    mapping(address => ASUpdateMsg) private app_queue;\n    mapping(address => ASInfo) private as_queue;\n    address[] app_queue_ids;\n    address[] as_queue_ids;\n    mapping(uint256 => address) asn2id;\n\n    constructor() public {\n        owner = msg.sender;\n    }\n\n    function ASUpdate(UpdateType _update_type, uint256 _asn, string memory _acs_addr, uint256 _effect_time) public {\n        require(_asn != 0, \"AS number should not be 0!\");\n        ASInfo storage as_info = as_queue[msg.sender];\n        ASUpdateMsg storage as_update_msg = app_queue[msg.sender];\n        // This address has registered a AS number\n        if (as_info.asn != 0) {\n            require(_asn == as_info.asn, \"AS number should match!\");\n        }\n        // This address has not propose an application\n        if (as_update_msg.asn == 0) {\n            app_queue_ids.push(msg.sender);\n        }\n        as_update_msg.update_type = _update_type;\n        as_update_msg.asn = _asn;\n        as_update_msg.acs_addr = _acs_addr;\n        as_update_msg.effect_time = _effect_time;\n    }\n\n    function UpdateQuery() public view returns (ASUpdateMsg[] memory apps) {\n        apps = new ASUpdateMsg[](app_queue_ids.length);\n        for (uint i = 0; i < app_queue_ids.length; ++i) {\n            apps[i] = app_queue[app_queue_ids[i]];\n        }\n        return apps;\n    }\n\n    function UpdateApprove(address id) public onlyOwner {\n        ASUpdateMsg memory as_update_msg = RemoveFromAppQueue(id);\n        ASInfo storage as_info = as_queue[id];\n        if (as_info.asn != 0) {\n            if (as_update_msg.update_type == UpdateType.Delete) {\n                RemoveFromASQueue(id);\n            } else {\n                AddrTimePair[] storage acs_list = as_info.acs_list;\n                uint n = acs_list.length;\n                uint index = n;\n                for (uint i = 0; i < n; ++i) {\n                    if (acs_list[i].effect_time < as_update_msg.effect_time) {\n                        index = i + 1;\n                    } else {\n                        break;\n                    }\n                }\n                for (uint i = index; i < n; ++i) {\n                    acs_list.pop();\n                }\n                acs_list.push(AddrTimePair(as_update_msg.acs_addr, as_update_msg.effect_time));\n            }\n        } else {\n            if (as_update_msg.update_type == UpdateType.Delete) {\n                return;\n            }\n            as_info.asn = as_update_msg.asn;\n            as_info.acs_list.push(AddrTimePair(as_update_msg.acs_addr, as_update_msg.effect_time));\n            as_queue_ids.push(id);\n            asn2id[as_info.asn] = id;\n        }\n    }\n\n    function UpdateReject(address id) public onlyOwner {\n        RemoveFromAppQueue(id);\n    }\n\n    function QueryAS(uint256 asn, uint256 time) public view returns(string memory) {\n        address id = asn2id[asn];\n        if (id == address(0)) {\n            return \"\";\n        }\n        ASInfo storage as_info = as_queue[id];\n        require(as_info.asn != 0, \"There is no such AS recorded.\");\n        uint n = as_info.acs_list.length;\n        for (uint i = 0; i < n - 1; ++i) {\n            if (as_info.acs_list[i].effect_time <= time && as_info.acs_list[i + 1].effect_time > time) {\n                return as_info.acs_list[i].acs_addr;\n            }\n        }\n        return as_info.acs_list[n - 1].acs_addr;\n    }\n\n    function QueryAllAS(uint256 time) public view returns(ASNAddr[] memory) {\n        ASNAddr[] memory addrs = new ASNAddr[](as_queue_ids.length);\n        for (uint i = 0; i < as_queue_ids.length; ++i) {\n            address id = as_queue_ids[i];\n            ASInfo storage as_info = as_queue[id];\n            require(as_info.asn != 0, \"There is no such AS recorded.\");\n            require(as_info.acs_list[0].effect_time <= time, \"The time is prior to the earliest effect time.\");\n            uint n = as_info.acs_list.length;\n            bool found = false;\n            for (uint j = 0; j < n - 1; ++j) {\n                if (as_info.acs_list[j].effect_time <= time && as_info.acs_list[j + 1].effect_time > time) {\n                    addrs[i].acs_addr = as_info.acs_list[j].acs_addr;\n                    found = true;\n                    break;\n                }\n            }\n            if (!found) {\n                addrs[i].acs_addr = as_info.acs_list[n - 1].acs_addr;\n            }\n        }\n        return addrs;\n    }\n\n\n    function RemoveFromAppQueue(address id) private returns (ASUpdateMsg memory as_update_msg){\n        as_update_msg = app_queue[id];\n        app_queue[id].asn = 0;\n        uint n = app_queue_ids.length;\n        uint index = n;\n        for (uint i = 0; i < n; ++i) {\n            if (app_queue_ids[i] == id) {\n                index = i;\n                break;\n            }\n        }\n        assert(index < n);\n        for (uint i = index; i < n - 1; ++i) {\n            app_queue_ids[i] = app_queue_ids[i + 1];\n        }\n        app_queue_ids.pop();\n    }\n\n    function RemoveFromASQueue(address id) private {\n        uint256 asn = as_queue[id].asn;\n        asn2id[asn] = address(0);\n        as_queue[id].asn = 0;\n        uint n = as_queue_ids.length;\n        uint index = n;\n        for (uint i = 0; i < n; ++i) {\n            if (as_queue_ids[i] == id) {\n                index = i;\n                break;\n            }\n        }\n        assert(index < n);\n        for (uint i = index; i < n - 1; ++i) {\n            as_queue_ids[i] = as_queue_ids[i + 1];\n        }\n        as_queue_ids.pop();\n    }\n}",
  "sourcePath": "/Users/bragcat/Code/RegChain/contracts/SMARegister.sol",
  "compiler": {
    "name": "solc",
    "version": "0.5.16+commit.9c3226ce.Emscripten.clang"
  },
  "schemaVersion": "3.0.23",
  "updatedAt": "2020-04-28T13:27:51.889Z",
  "devdoc": {
    "methods": {}
  },
  "userdoc": {
    "methods": {}
  }
}