{
  "contractName": "SMARegister",
  "abi": [
    {
      "inputs": [],
      "payable": false,
      "stateMutability": "nonpayable",
      "type": "constructor"
    },
    {
      "constant": true,
      "inputs": [],
      "name": "owner",
      "outputs": [
        {
          "internalType": "address",
          "name": "",
          "type": "address"
        }
      ],
      "payable": false,
      "stateMutability": "view",
      "type": "function"
    },
    {
      "constant": false,
      "inputs": [
        {
          "internalType": "enum SMARegister.UpdateType",
          "name": "_update_type",
          "type": "uint8"
        },
        {
          "internalType": "uint256",
          "name": "_asn",
          "type": "uint256"
        },
        {
          "internalType": "string",
          "name": "_acs_addr",
          "type": "string"
        },
        {
          "internalType": "uint256",
          "name": "_effect_time",
          "type": "uint256"
        }
      ],
      "name": "ASUpdate",
      "outputs": [],
      "payable": false,
      "stateMutability": "nonpayable",
      "type": "function"
    },
    {
      "constant": true,
      "inputs": [],
      "name": "GetUpdateApply",
      "outputs": [
        {
          "components": [
            {
              "internalType": "enum SMARegister.UpdateType",
              "name": "update_type",
              "type": "uint8"
            },
            {
              "internalType": "uint256",
              "name": "asn",
              "type": "uint256"
            },
            {
              "internalType": "string",
              "name": "acs_addr",
              "type": "string"
            },
            {
              "internalType": "uint256",
              "name": "effect_time",
              "type": "uint256"
            }
          ],
          "internalType": "struct SMARegister.ASUpdateMsg[]",
          "name": "apps",
          "type": "tuple[]"
        }
      ],
      "payable": false,
      "stateMutability": "view",
      "type": "function"
    },
    {
      "constant": false,
      "inputs": [
        {
          "internalType": "uint256",
          "name": "asn",
          "type": "uint256"
        }
      ],
      "name": "UpdateApprove",
      "outputs": [],
      "payable": false,
      "stateMutability": "nonpayable",
      "type": "function"
    },
    {
      "constant": false,
      "inputs": [
        {
          "internalType": "uint256",
          "name": "asn",
          "type": "uint256"
        }
      ],
      "name": "UpdateReject",
      "outputs": [],
      "payable": false,
      "stateMutability": "nonpayable",
      "type": "function"
    },
    {
      "constant": true,
      "inputs": [
        {
          "internalType": "uint256",
          "name": "asn",
          "type": "uint256"
        },
        {
          "internalType": "uint256",
          "name": "time",
          "type": "uint256"
        }
      ],
      "name": "QueryAS",
      "outputs": [
        {
          "internalType": "string",
          "name": "",
          "type": "string"
        }
      ],
      "payable": false,
      "stateMutability": "view",
      "type": "function"
    },
    {
      "constant": true,
      "inputs": [
        {
          "internalType": "uint256",
          "name": "time",
          "type": "uint256"
        }
      ],
      "name": "QueryAllAS",
      "outputs": [
        {
          "components": [
            {
              "internalType": "uint256",
              "name": "asn",
              "type": "uint256"
            },
            {
              "internalType": "string",
              "name": "acs_addr",
              "type": "string"
            }
          ],
          "internalType": "struct SMARegister.ASNAddr[]",
          "name": "",
          "type": "tuple[]"
        }
      ],
      "payable": false,
      "stateMutability": "view",
      "type": "function"
    }
  ],
  "bytecode": "0x608060405234801561001057600080fd5b50336000806101000a81548173ffffffffffffffffffffffffffffffffffffffff021916908373ffffffffffffffffffffffffffffffffffffffff160217905550611a50806100606000396000f3fe608060405234801561001057600080fd5b506004361061007d5760003560e01c8063d39c661a1161005b578063d39c661a146100ee578063d865456d1461010a578063e828a56914610126578063f27e864c146101425761007d565b80632b1d2afc146100825780637b5f5f0b146100b25780638da5cb5b146100d0575b600080fd5b61009c600480360361009791908101906113a5565b610172565b6040516100a9919061175c565b60405180910390f35b6100ba61052f565b6040516100c7919061177e565b60405180910390f35b6100d8610671565b6040516100e59190611741565b60405180910390f35b610108600480360361010391908101906113a5565b610696565b005b610124600480360361011f91908101906113a5565b610732565b005b610140600480360361013b919081019061132a565b610a4a565b005b61015c600480360361015791908101906113ce565b610b12565b60405161016991906117a0565b60405180910390f35b6060806003805490506040519080825280602002602001820160405280156101b457816020015b6101a16110eb565b8152602001906001900390816101995790505b50905060008090505b60038054905081101561052557600381815481106101d757fe5b90600052602060002001548282815181106101ee57fe5b602002602001015160000181815250506000600260006003848154811061021157fe5b906000526020600020015481526020019081526020016000209050600081600001541415610274576040517f08c379a000000000000000000000000000000000000000000000000000000000815260040161026b906117e2565b60405180910390fd5b848160010160008154811061028557fe5b90600052602060002090600202016001015411156102d8576040517f08c379a00000000000000000000000000000000000000000000000000000000081526004016102cf90611802565b60405180910390fd5b600081600101805490509050600080905060008090505b60018303811015610439578784600101828154811061030a57fe5b9060005260206000209060020201600101541115801561034c57508784600101600183018154811061033857fe5b906000526020600020906002020160010154115b1561042e5783600101818154811061036057fe5b90600052602060002090600202016000018054600181600116156101000203166002900480601f0160208091040260200160405190810160405280929190818152602001828054600181600116156101000203166002900480156104055780601f106103da57610100808354040283529160200191610405565b820191906000526020600020905b8154815290600101906020018083116103e857829003601f168201915b505050505086868151811061041657fe5b60200260200101516020018190525060019150610439565b8060010190506102ef565b50806105175782600101600183038154811061045157fe5b90600052602060002090600202016000018054600181600116156101000203166002900480601f0160208091040260200160405190810160405280929190818152602001828054600181600116156101000203166002900480156104f65780601f106104cb576101008083540402835291602001916104f6565b820191906000526020600020905b8154815290600101906020018083116104d957829003601f168201915b505050505085858151811061050757fe5b6020026020010151602001819052505b5050508060010190506101bd565b5080915050919050565b60606001805480602002602001604051908101604052809291908181526020016000905b8282101561066857838290600052602060002090600402016040518060800160405290816000820160009054906101000a900460ff16600181111561059457fe5b600181111561059f57fe5b815260200160018201548152602001600282018054600181600116156101000203166002900480601f0160208091040260200160405190810160405280929190818152602001828054600181600116156101000203166002900480156106465780601f1061061b57610100808354040283529160200191610646565b820191906000526020600020905b81548152906001019060200180831161062957829003601f168201915b5050505050815260200160038201548152505081526020019060010190610553565b50505050905090565b6000809054906101000a900473ffffffffffffffffffffffffffffffffffffffff1681565b6000809054906101000a900473ffffffffffffffffffffffffffffffffffffffff1673ffffffffffffffffffffffffffffffffffffffff163373ffffffffffffffffffffffffffffffffffffffff1614610725576040517f08c379a000000000000000000000000000000000000000000000000000000000815260040161071c906117c2565b60405180910390fd5b61072e81610d7d565b5050565b6000809054906101000a900473ffffffffffffffffffffffffffffffffffffffff1673ffffffffffffffffffffffffffffffffffffffff163373ffffffffffffffffffffffffffffffffffffffff16146107c1576040517f08c379a00000000000000000000000000000000000000000000000000000000081526004016107b8906117c2565b60405180910390fd5b6107c9611105565b6107d282610d7d565b9050600060026000836020015181526020019081526020016000209050828160000154141561096f5760018081111561080757fe5b8260000151600181111561081757fe5b1415610835576000816000018190555061083083611019565b61096a565b6000816001019050600081805490509050600081905060008090505b8281101561089d57856060015184828154811061086a57fe5b906000526020600020906002020160010154101561088d57600181019150610892565b61089d565b806001019050610851565b5060008190505b828110156108f257838054806108b657fe5b6001900381819060005260206000209060020201600080820160006108db9190611138565b6001820160009055505090558060010190506108a4565b50826040518060400160405280876040015181526020018760600151815250908060018154018082558091505090600182039060005260206000209060020201600090919290919091506000820151816000019080519060200190610958929190611180565b50602082015181600101555050505050505b610a44565b60018081111561097b57fe5b8260000151600181111561098b57fe5b1415610998575050610a47565b828160000181905550806001016040518060400160405280846040015181526020018460600151815250908060018154018082558091505090600182039060005260206000209060020201600090919290919091506000820151816000019080519060200190610a09929190611180565b506020820151816001015550505060038390806001815401808255809150509060018203906000526020600020016000909192909190915055505b50505b50565b610a52611105565b6040518060800160405280866001811115610a6957fe5b81526020018581526020018481526020018381525090506001819080600181540180825580915050906001820390600052602060002090600402016000909192909190915060008201518160000160006101000a81548160ff02191690836001811115610ad257fe5b0217905550602082015181600101556040820151816002019080519060200190610afd929190611180565b50606082015181600301555050505050505050565b60606000600260008581526020019081526020016000209050600081600001541415610b73576040517f08c379a0000000000000000000000000000000000000000000000000000000008152600401610b6a906117e2565b60405180910390fd5b60008160010180549050905060008090505b60018203811015610cb55784836001018281548110610ba057fe5b90600052602060002090600202016001015411158015610be2575084836001016001830181548110610bce57fe5b906000526020600020906002020160010154115b15610caa57826001018181548110610bf657fe5b90600052602060002090600202016000018054600181600116156101000203166002900480601f016020809104026020016040519081016040528092919081815260200182805460018160011615610100020316600290048015610c9b5780601f10610c7057610100808354040283529160200191610c9b565b820191906000526020600020905b815481529060010190602001808311610c7e57829003601f168201915b50505050509350505050610d77565b806001019050610b85565b50816001016001820381548110610cc857fe5b90600052602060002090600202016000018054600181600116156101000203166002900480601f016020809104026020016040519081016040528092919081815260200182805460018160011615610100020316600290048015610d6d5780601f10610d4257610100808354040283529160200191610d6d565b820191906000526020600020905b815481529060010190602001808311610d5057829003601f168201915b5050505050925050505b92915050565b610d85611105565b60006001805490509050600081905060008090505b82811015610ddb578460018281548110610db057fe5b9060005260206000209060040201600101541415610dd057809150610ddb565b806001019050610d9a565b50818110610de557fe5b60018181548110610df257fe5b90600052602060002090600402016040518060800160405290816000820160009054906101000a900460ff166001811115610e2957fe5b6001811115610e3457fe5b815260200160018201548152602001600282018054600181600116156101000203166002900480601f016020809104026020016040519081016040528092919081815260200182805460018160011615610100020316600290048015610edb5780601f10610eb057610100808354040283529160200191610edb565b820191906000526020600020905b815481529060010190602001808311610ebe57829003601f168201915b50505050508152602001600382015481525050925060008190505b60018303811015610fb957600180820181548110610f1057fe5b906000526020600020906004020160018281548110610f2b57fe5b90600052602060002090600402016000820160009054906101000a900460ff168160000160006101000a81548160ff02191690836001811115610f6a57fe5b02179055506001820154816001015560028201816002019080546001816001161561010002031660029004610fa0929190611200565b5060038201548160030155905050806001019050610ef6565b506001805480610fc557fe5b6001900381819060005260206000209060040201600080820160006101000a81549060ff021916905560018201600090556002820160006110069190611138565b6003820160009055505090555050919050565b60006003805490509050600081905060008090505b8281101561106857836003828154811061104457fe5b9060005260206000200154141561105d57809150611068565b80600101905061102e565b5081811061107257fe5b60008190505b600183038110156110c4576003600182018154811061109357fe5b9060005260206000200154600382815481106110ab57fe5b9060005260206000200181905550806001019050611078565b5060038054806110d057fe5b60019003818190600052602060002001600090559055505050565b604051806040016040528060008152602001606081525090565b60405180608001604052806000600181111561111d57fe5b81526020016000815260200160608152602001600081525090565b50805460018160011615610100020316600290046000825580601f1061115e575061117d565b601f01602090049060005260206000209081019061117c9190611287565b5b50565b828054600181600116156101000203166002900490600052602060002090601f016020900481019282601f106111c157805160ff19168380011785556111ef565b828001600101855582156111ef579182015b828111156111ee5782518255916020019190600101906111d3565b5b5090506111fc9190611287565b5090565b828054600181600116156101000203166002900490600052602060002090601f016020900481019282601f106112395780548555611276565b8280016001018555821561127657600052602060002091601f016020900482015b8281111561127557825482559160010191906001019061125a565b5b5090506112839190611287565b5090565b6112a991905b808211156112a557600081600090555060010161128d565b5090565b90565b6000813590506112bb816119e6565b92915050565b600082601f8301126112d257600080fd5b81356112e56112e08261184f565b611822565b9150808252602083016020830185838301111561130157600080fd5b61130c838284611986565b50505092915050565b600081359050611324816119f6565b92915050565b6000806000806080858703121561134057600080fd5b600061134e878288016112ac565b945050602061135f87828801611315565b935050604085013567ffffffffffffffff81111561137c57600080fd5b611388878288016112c1565b925050606061139987828801611315565b91505092959194509250565b6000602082840312156113b757600080fd5b60006113c584828501611315565b91505092915050565b600080604083850312156113e157600080fd5b60006113ef85828601611315565b925050602061140085828601611315565b9150509250929050565b60006114168383611692565b905092915050565b600061142a83836116cf565b905092915050565b61143b81611925565b82525050565b600061144c8261189b565b61145681856118e1565b9350836020820285016114688561187b565b8060005b858110156114a45784840389528151611485858261140a565b9450611490836118c7565b925060208a0199505060018101905061146c565b50829750879550505050505092915050565b60006114c1826118a6565b6114cb81856118f2565b9350836020820285016114dd8561188b565b8060005b8581101561151957848403895281516114fa858261141e565b9450611505836118d4565b925060208a019950506001810190506114e1565b50829750879550505050505092915050565b61153481611974565b82525050565b6000611545826118bc565b61154f8185611914565b935061155f818560208601611995565b611568816119c8565b840191505092915050565b600061157e826118b1565b6115888185611903565b9350611598818560208601611995565b6115a1816119c8565b840191505092915050565b60006115b9601983611914565b91507f4f6e6c79206f776e65722063616e2063616c6c20746869732e000000000000006000830152602082019050919050565b60006115f9601d83611914565b91507f5468657265206973206e6f2073756368204153207265636f726465642e0000006000830152602082019050919050565b6000611639602e83611914565b91507f5468652074696d65206973207072696f7220746f20746865206561726c69657360008301527f74206566666563742074696d652e0000000000000000000000000000000000006020830152604082019050919050565b60006040830160008301516116aa6000860182611732565b50602083015184820360208601526116c28282611573565b9150508091505092915050565b60006080830160008301516116e7600086018261152b565b5060208301516116fa6020860182611732565b50604083015184820360408601526117128282611573565b91505060608301516117276060860182611732565b508091505092915050565b61173b8161196a565b82525050565b60006020820190506117566000830184611432565b92915050565b600060208201905081810360008301526117768184611441565b905092915050565b6000602082019050818103600083015261179881846114b6565b905092915050565b600060208201905081810360008301526117ba818461153a565b905092915050565b600060208201905081810360008301526117db816115ac565b9050919050565b600060208201905081810360008301526117fb816115ec565b9050919050565b6000602082019050818103600083015261181b8161162c565b9050919050565b6000604051905081810181811067ffffffffffffffff8211171561184557600080fd5b8060405250919050565b600067ffffffffffffffff82111561186657600080fd5b601f19601f8301169050602081019050919050565b6000819050602082019050919050565b6000819050602082019050919050565b600081519050919050565b600081519050919050565b600081519050919050565b600081519050919050565b6000602082019050919050565b6000602082019050919050565b600082825260208201905092915050565b600082825260208201905092915050565b600082825260208201905092915050565b600082825260208201905092915050565b60006119308261194a565b9050919050565b6000819050611945826119d9565b919050565b600073ffffffffffffffffffffffffffffffffffffffff82169050919050565b6000819050919050565b600061197f82611937565b9050919050565b82818337600083830152505050565b60005b838110156119b3578082015181840152602081019050611998565b838111156119c2576000848401525b50505050565b6000601f19601f8301169050919050565b600281106119e357fe5b50565b600281106119f357600080fd5b50565b6119ff8161196a565b8114611a0a57600080fd5b5056fea365627a7a7231582026cd30b8d5e3792b48c1d0cdafd7f9c07a523f6c29cb8216fe52467cb8c1e73f6c6578706572696d656e74616cf564736f6c63430005100040",
  "source": "pragma solidity >=0.4.21 <0.7.0;\npragma experimental ABIEncoderV2;\n\ncontract SMARegister {\n    enum UpdateType { Update, Delete }\n    struct AddrTimePair {\n        string acs_addr;\n        uint256 effect_time;\n    }\n    struct ASUpdateMsg {\n        UpdateType update_type;\n        uint256 asn;\n        string acs_addr;\n        uint256 effect_time;\n    }\n    struct ASInfo {\n        uint256 asn;\n        AddrTimePair[] acs_list;\n    }\n    struct ASNAddr{\n        uint256 asn;\n        string acs_addr;\n    }\n\n    modifier onlyOwner {\n        require(\n            msg.sender == owner,\n            \"Only owner can call this.\"\n        );\n        _;\n    }\n\n    address public owner;\n    ASUpdateMsg[] private app_queue;\n    mapping (uint256 => ASInfo) private as_queue;\n    uint256[] asn_queue;\n\n    constructor() public {\n        owner = msg.sender;\n    }\n\n    function ASUpdate(UpdateType _update_type, uint256 _asn, string memory _acs_addr, uint256 _effect_time) public {\n        ASUpdateMsg memory as_update_msg = ASUpdateMsg(_update_type, _asn, _acs_addr, _effect_time);\n        app_queue.push(as_update_msg);\n    }\n    function GetUpdateApply() public view returns (ASUpdateMsg[] memory apps) {\n        return app_queue;\n    }\n    function UpdateApprove(uint256 asn) public onlyOwner {\n        ASUpdateMsg memory as_update_msg = RemoveFromAppQueue(asn);\n        ASInfo storage as_info = as_queue[as_update_msg.asn];\n        if (as_info.asn == asn) {\n            if (as_update_msg.update_type == UpdateType.Delete) {\n                as_info.asn = 0;\n                RemoveFromASNQueue(asn);\n            } else {\n                AddrTimePair[] storage acs_list = as_info.acs_list;\n                uint n = acs_list.length;\n                uint index = n;\n                for (uint i = 0; i < n; ++i) {\n                    if (acs_list[i].effect_time < as_update_msg.effect_time) {\n                        index = i + 1;\n                    } else {\n                        break;\n                    }\n                }\n                for (uint i = index; i < n; ++i) {\n                    acs_list.pop();\n                }\n                acs_list.push(AddrTimePair(as_update_msg.acs_addr, as_update_msg.effect_time));\n            }\n        } else {\n            if (as_update_msg.update_type == UpdateType.Delete) {\n                return;\n            }\n            as_info.asn = asn;\n            as_info.acs_list.push(AddrTimePair(as_update_msg.acs_addr, as_update_msg.effect_time));\n            asn_queue.push(asn);\n        }\n    }\n    function UpdateReject(uint256 asn) public onlyOwner {\n        RemoveFromAppQueue(asn);\n    }\n    function QueryAS(uint256 asn, uint256 time) public view returns(string memory) {\n        ASInfo storage as_info = as_queue[asn];\n        require(as_info.asn != 0, \"There is no such AS recorded.\");\n        uint n = as_info.acs_list.length;\n        for (uint i = 0; i < n - 1; ++i) {\n            if (as_info.acs_list[i].effect_time <= time && as_info.acs_list[i + 1].effect_time > time) {\n                return as_info.acs_list[i].acs_addr;\n            }\n        }\n        return as_info.acs_list[n - 1].acs_addr;\n    }\n    function QueryAllAS(uint256 time) public view returns(ASNAddr[] memory) {\n        ASNAddr[] memory addrs = new ASNAddr[](asn_queue.length);\n        for (uint i = 0; i < asn_queue.length; ++i) {\n            addrs[i].asn = asn_queue[i];\n            ASInfo storage as_info = as_queue[asn_queue[i]];\n            require(as_info.asn != 0, \"There is no such AS recorded.\");\n            require(as_info.acs_list[0].effect_time <= time, \"The time is prior to the earliest effect time.\");\n            uint n = as_info.acs_list.length;\n            bool found = false;\n            for (uint j = 0; j < n - 1; ++j) {\n                if (as_info.acs_list[j].effect_time <= time && as_info.acs_list[j + 1].effect_time > time) {\n                    addrs[i].acs_addr = as_info.acs_list[j].acs_addr;\n                    found = true;\n                    break;\n                }\n            }\n            if (!found) {\n                addrs[i].acs_addr = as_info.acs_list[n - 1].acs_addr;\n            }\n        }\n        return addrs;\n    }\n\n\n    function RemoveFromAppQueue(uint256 asn) private returns (ASUpdateMsg memory as_update_msg){\n        uint n = app_queue.length;\n        uint index = n;\n        for (uint i = 0; i < n; ++i) {\n            if (app_queue[i].asn == asn) {\n                index = i;\n                break;\n            }\n        }\n        assert(index < n);\n        as_update_msg = app_queue[index];\n        for (uint i = index; i < n - 1; ++i) {\n            app_queue[i] = app_queue[i + 1];\n        }\n        app_queue.pop();\n    }\n    function RemoveFromASNQueue(uint256 asn) private {\n        uint n = asn_queue.length;\n        uint index = n;\n        for (uint i = 0; i < n; ++i) {\n            if (asn_queue[i] == asn) {\n                index = i;\n                break;\n            }\n        }\n        assert(index < n);\n        for (uint i = index; i < n - 1; ++i) {\n            asn_queue[i] = asn_queue[i + 1];\n        }\n        asn_queue.pop();\n    }\n}",
  "sourcePath": "/Users/bragcat/Code/RegChain/contracts/SMARegister.sol",
  "compiler": {
    "name": "solc",
    "version": "0.5.16+commit.9c3226ce.Emscripten.clang"
  },
  "schemaVersion": "3.0.23",
  "updatedAt": "2020-04-28T02:23:33.656Z",
  "devdoc": {
    "methods": {}
  },
  "userdoc": {
    "methods": {}
  }
}