{
  "contractName": "SMARegister",
  "abi": [
    {
      "inputs": [],
      "payable": false,
      "stateMutability": "nonpayable",
      "type": "constructor"
    },
    {
      "anonymous": false,
      "inputs": [
        {
          "indexed": true,
          "internalType": "contract ASInfo",
          "name": "asInfo",
          "type": "address"
        },
        {
          "indexed": true,
          "internalType": "address",
          "name": "id",
          "type": "address"
        }
      ],
      "name": "ASCreated",
      "type": "event"
    },
    {
      "anonymous": false,
      "inputs": [
        {
          "indexed": true,
          "internalType": "contract ASInfo",
          "name": "asInfo",
          "type": "address"
        },
        {
          "indexed": true,
          "internalType": "address",
          "name": "id",
          "type": "address"
        }
      ],
      "name": "ASDeleted",
      "type": "event"
    },
    {
      "anonymous": false,
      "inputs": [
        {
          "indexed": true,
          "internalType": "uint256",
          "name": "reqType",
          "type": "uint256"
        },
        {
          "indexed": true,
          "internalType": "uint256",
          "name": "asn",
          "type": "uint256"
        },
        {
          "indexed": true,
          "internalType": "address",
          "name": "id",
          "type": "address"
        }
      ],
      "name": "ASRequestApproved",
      "type": "event"
    },
    {
      "anonymous": false,
      "inputs": [
        {
          "indexed": true,
          "internalType": "uint256",
          "name": "reqType",
          "type": "uint256"
        },
        {
          "indexed": true,
          "internalType": "uint256",
          "name": "asn",
          "type": "uint256"
        },
        {
          "indexed": true,
          "internalType": "address",
          "name": "id",
          "type": "address"
        }
      ],
      "name": "ASRequestRejected",
      "type": "event"
    },
    {
      "anonymous": false,
      "inputs": [
        {
          "indexed": true,
          "internalType": "uint256",
          "name": "reqType",
          "type": "uint256"
        },
        {
          "indexed": true,
          "internalType": "uint256",
          "name": "asn",
          "type": "uint256"
        },
        {
          "indexed": true,
          "internalType": "address",
          "name": "id",
          "type": "address"
        }
      ],
      "name": "ASRequestSubmitted",
      "type": "event"
    },
    {
      "constant": true,
      "inputs": [],
      "name": "owner",
      "outputs": [
        {
          "internalType": "address",
          "name": "",
          "type": "address"
        }
      ],
      "payable": false,
      "stateMutability": "view",
      "type": "function"
    },
    {
      "constant": true,
      "inputs": [
        {
          "internalType": "address",
          "name": "x",
          "type": "address"
        }
      ],
      "name": "toBytes",
      "outputs": [
        {
          "internalType": "bytes20",
          "name": "",
          "type": "bytes20"
        }
      ],
      "payable": false,
      "stateMutability": "pure",
      "type": "function"
    },
    {
      "constant": false,
      "inputs": [
        {
          "internalType": "uint256",
          "name": "_reqType",
          "type": "uint256"
        },
        {
          "internalType": "uint256",
          "name": "_asn",
          "type": "uint256"
        },
        {
          "internalType": "string",
          "name": "_name",
          "type": "string"
        },
        {
          "internalType": "string",
          "name": "_description",
          "type": "string"
        }
      ],
      "name": "createASRequest",
      "outputs": [],
      "payable": false,
      "stateMutability": "nonpayable",
      "type": "function"
    },
    {
      "constant": true,
      "inputs": [
        {
          "internalType": "bytes20",
          "name": "id",
          "type": "bytes20"
        }
      ],
      "name": "requestDetailQuery",
      "outputs": [
        {
          "internalType": "uint256",
          "name": "reqType",
          "type": "uint256"
        },
        {
          "internalType": "uint256",
          "name": "asn",
          "type": "uint256"
        },
        {
          "internalType": "string",
          "name": "name",
          "type": "string"
        },
        {
          "internalType": "string",
          "name": "description",
          "type": "string"
        }
      ],
      "payable": false,
      "stateMutability": "view",
      "type": "function"
    },
    {
      "constant": true,
      "inputs": [],
      "name": "requestIdQuery",
      "outputs": [
        {
          "internalType": "bytes20[]",
          "name": "ids",
          "type": "bytes20[]"
        }
      ],
      "payable": false,
      "stateMutability": "view",
      "type": "function"
    },
    {
      "constant": true,
      "inputs": [],
      "name": "requestCount",
      "outputs": [
        {
          "internalType": "uint256",
          "name": "",
          "type": "uint256"
        }
      ],
      "payable": false,
      "stateMutability": "view",
      "type": "function"
    },
    {
      "constant": true,
      "inputs": [],
      "name": "asQuery",
      "outputs": [
        {
          "internalType": "contract ASInfo[]",
          "name": "",
          "type": "address[]"
        }
      ],
      "payable": false,
      "stateMutability": "view",
      "type": "function"
    },
    {
      "constant": true,
      "inputs": [],
      "name": "asCount",
      "outputs": [
        {
          "internalType": "uint256",
          "name": "",
          "type": "uint256"
        }
      ],
      "payable": false,
      "stateMutability": "view",
      "type": "function"
    },
    {
      "constant": false,
      "inputs": [
        {
          "internalType": "bytes20",
          "name": "id",
          "type": "bytes20"
        }
      ],
      "name": "requestApprove",
      "outputs": [],
      "payable": false,
      "stateMutability": "nonpayable",
      "type": "function"
    },
    {
      "constant": false,
      "inputs": [
        {
          "internalType": "bytes20",
          "name": "id",
          "type": "bytes20"
        }
      ],
      "name": "requestReject",
      "outputs": [],
      "payable": false,
      "stateMutability": "nonpayable",
      "type": "function"
    },
    {
      "constant": true,
      "inputs": [
        {
          "internalType": "uint256",
          "name": "asn",
          "type": "uint256"
        },
        {
          "internalType": "uint256",
          "name": "time",
          "type": "uint256"
        }
      ],
      "name": "singleACSQuery",
      "outputs": [
        {
          "internalType": "string",
          "name": "",
          "type": "string"
        }
      ],
      "payable": false,
      "stateMutability": "view",
      "type": "function"
    }
  ],
  "bytecode": "0x608060405234801561001057600080fd5b50336000806101000a81548173ffffffffffffffffffffffffffffffffffffffff021916908373ffffffffffffffffffffffffffffffffffffffff160217905550612ee2806100606000396000f3fe60806040523480156200001157600080fd5b5060043610620000b85760003560e01c806368829a33116200007b57806368829a3314620003bc5780638da5cb5b14620003fc578063a0e818b01462000448578063e47837b41462000468578063eddbe4a914620004cb578063f79e6d27146200052e57620000b8565b80630905003114620000bd578063276a8f31146200022c57806339eb375e146200026c578063593b79fe14620003235780635badbe4c146200039c575b600080fd5b6200022a60048036036080811015620000d557600080fd5b810190808035906020019092919080359060200190929190803590602001906401000000008111156200010757600080fd5b8201836020820111156200011a57600080fd5b803590602001918460018302840111640100000000831117156200013d57600080fd5b91908080601f016020809104026020016040519081016040528093929190818152602001838380828437600081840152601f19601f82011690508083019250505050505050919291929080359060200190640100000000811115620001a157600080fd5b820183602082011115620001b457600080fd5b80359060200191846001830284011164010000000083111715620001d757600080fd5b91908080601f016020809104026020016040519081016040528093929190818152602001838380828437600081840152601f19601f82011690508083019250505050505050919291929050505062000667565b005b6200026a600480360360208110156200024457600080fd5b8101908080356bffffffffffffffffffffffff1916906020019092919050505062000997565b005b620002a5600480360360408110156200028457600080fd5b81019080803590602001909291908035906020019092919050505062001003565b6040518080602001828103825283818151815260200191508051906020019080838360005b83811015620002e7578082015181840152602081019050620002ca565b50505050905090810190601f168015620003155780820380516001836020036101000a031916815260200191505b509250505060405180910390f35b62000368600480360360208110156200033b57600080fd5b81019080803573ffffffffffffffffffffffffffffffffffffffff1690602001909291905050506200128e565b60405180826bffffffffffffffffffffffff19166bffffffffffffffffffffffff1916815260200191505060405180910390f35b620003a662001327565b6040518082815260200191505060405180910390f35b620003fa60048036036020811015620003d457600080fd5b8101908080356bffffffffffffffffffffffff1916906020019092919050505062001334565b005b6200040662001685565b604051808273ffffffffffffffffffffffffffffffffffffffff1673ffffffffffffffffffffffffffffffffffffffff16815260200191505060405180910390f35b62000452620016aa565b6040518082815260200191505060405180910390f35b62000472620016b7565b6040518080602001828103825283818151815260200191508051906020019060200280838360005b83811015620004b75780820151818401526020810190506200049a565b505050509050019250505060405180910390f35b620004d56200177e565b6040518080602001828103825283818151815260200191508051906020019060200280838360005b838110156200051a578082015181840152602081019050620004fd565b505050509050019250505060405180910390f35b6200056c600480360360208110156200054657600080fd5b8101908080356bffffffffffffffffffffffff191690602001909291905050506200180e565b604051808581526020018481526020018060200180602001838103835285818151815260200191508051906020019080838360005b83811015620005be578082015181840152602081019050620005a1565b50505050905090810190601f168015620005ec5780820380516001836020036101000a031916815260200191505b50838103825284818151815260200191508051906020019080838360005b83811015620006275780820151818401526020810190506200060a565b50505050905090810190601f168015620006555780820380516001836020036101000a031916815260200191505b50965050505050505060405180910390f35b600062000674336200128e565b90506200068062001f28565b6040518060c001604052803373ffffffffffffffffffffffffffffffffffffffff168152602001836bffffffffffffffffffffffff19168152602001878152602001868152602001858152602001848152509050600080905060008090505b6001805490508110156200084357836bffffffffffffffffffffffff1916600182815481106200070b57fe5b906000526020600020906006020160010160009054906101000a900460601b6bffffffffffffffffffffffff19161415620008375782600182815481106200074f57fe5b906000526020600020906006020160008201518160000160006101000a81548173ffffffffffffffffffffffffffffffffffffffff021916908373ffffffffffffffffffffffffffffffffffffffff16021790555060208201518160010160006101000a81548173ffffffffffffffffffffffffffffffffffffffff021916908360601c0217905550604082015181600201556060820151816003015560808201518160040190805190602001906200080a92919062001f83565b5060a08201518160050190805190602001906200082992919062001f83565b509050506001915062000843565b806001019050620006df565b508062000949576001829080600181540180825580915050906001820390600052602060002090600602016000909192909190915060008201518160000160006101000a81548173ffffffffffffffffffffffffffffffffffffffff021916908373ffffffffffffffffffffffffffffffffffffffff16021790555060208201518160010160006101000a81548173ffffffffffffffffffffffffffffffffffffffff021916908360601c0217905550604082015181600201556060820151816003015560808201518160040190805190602001906200092592919062001f83565b5060a08201518160050190805190602001906200094492919062001f83565b505050505b3373ffffffffffffffffffffffffffffffffffffffff1686887f25b07fd4d2a78120b73b482d708bc282c483d65ce51ddb0d1de7012be5619a5c60405160405180910390a450505050505050565b6000809054906101000a900473ffffffffffffffffffffffffffffffffffffffff1673ffffffffffffffffffffffffffffffffffffffff163373ffffffffffffffffffffffffffffffffffffffff161462000a5a576040517f08c379a00000000000000000000000000000000000000000000000000000000081526004018080602001828103825260198152602001807f4f6e6c79206f776e65722063616e2063616c6c20746869732e0000000000000081525060200191505060405180910390fd5b600062000a678262001a66565b905062000a7362001f28565b6001828154811062000a8157fe5b90600052602060002090600602016040518060c00160405290816000820160009054906101000a900473ffffffffffffffffffffffffffffffffffffffff1673ffffffffffffffffffffffffffffffffffffffff1673ffffffffffffffffffffffffffffffffffffffff1681526020016001820160009054906101000a900460601b6bffffffffffffffffffffffff19166bffffffffffffffffffffffff191681526020016002820154815260200160038201548152602001600482018054600181600116156101000203166002900480601f01602080910402602001604051908101604052809291908181526020018280546001816001161561010002031660029004801562000bd65780601f1062000baa5761010080835404028352916020019162000bd6565b820191906000526020600020905b81548152906001019060200180831162000bb857829003601f168201915b50505050508152602001600582018054600181600116156101000203166002900480601f01602080910402602001604051908101604052809291908181526020018280546001816001161561010002031660029004801562000c7c5780601f1062000c505761010080835404028352916020019162000c7c565b820191906000526020600020905b81548152906001019060200180831162000c5e57829003601f168201915b505050505081525050905062000c928262001af5565b60008160400151141562000ef457600081600001518260200151836060015184608001518560a0015160405162000cc9906200200a565b808673ffffffffffffffffffffffffffffffffffffffff1673ffffffffffffffffffffffffffffffffffffffff168152602001856bffffffffffffffffffffffff19166bffffffffffffffffffffffff191681526020018481526020018060200180602001838103835285818151815260200191508051906020019080838360005b8381101562000d6857808201518184015260208101905062000d4b565b50505050905090810190601f16801562000d965780820380516001836020036101000a031916815260200191505b50838103825284818151815260200191508051906020019080838360005b8381101562000dd157808201518184015260208101905062000db4565b50505050905090810190601f16801562000dff5780820380516001836020036101000a031916815260200191505b50975050505050505050604051809103906000f08015801562000e26573d6000803e3d6000fd5b50905060028190806001815401808255809150509060018203906000526020600020016000909192909190916101000a81548173ffffffffffffffffffffffffffffffffffffffff021916908373ffffffffffffffffffffffffffffffffffffffff16021790555050816000015173ffffffffffffffffffffffffffffffffffffffff168173ffffffffffffffffffffffffffffffffffffffff167f729054d7aa2466aaa5a9f8c236074bbead8f217ee02b07119436c3df0dc1790f60405160405180910390a35062000fad565b62000f03816020015162001d10565b915060006002838154811062000f1557fe5b9060005260206000200160009054906101000a900473ffffffffffffffffffffffffffffffffffffffff16905062000f4d8362001e2e565b816000015173ffffffffffffffffffffffffffffffffffffffff168173ffffffffffffffffffffffffffffffffffffffff167fa5c2d2029cb3c60daac6e0e95ec341a4e00cd215d8dfac371740a7eb38600d5960405160405180910390a3505b806000015173ffffffffffffffffffffffffffffffffffffffff16816060015182604001517fef2a3e5a146b6e39b044d3cf7f592f464a0e9cf2d11762172e87e7333edcae9f60405160405180910390a4505050565b606060008090505b6002805490508110156200127d5783600282815481106200102857fe5b9060005260206000200160009054906101000a900473ffffffffffffffffffffffffffffffffffffffff1673ffffffffffffffffffffffffffffffffffffffff1663bb412a086040518163ffffffff1660e01b815260040160206040518083038186803b1580156200109957600080fd5b505afa158015620010ae573d6000803e3d6000fd5b505050506040513d6020811015620010c557600080fd5b81019080805190602001909291905050501415620012715760028181548110620010eb57fe5b9060005260206000200160009054906101000a900473ffffffffffffffffffffffffffffffffffffffff1673ffffffffffffffffffffffffffffffffffffffff16630d82502b846040518263ffffffff1660e01b81526004018082815260200191505060006040518083038186803b1580156200116757600080fd5b505afa1580156200117c573d6000803e3d6000fd5b505050506040513d6000823e3d601f19601f820116820180604052506020811015620011a757600080fd5b8101908080516040519392919084640100000000821115620011c857600080fd5b83820191506020820185811115620011df57600080fd5b8251866001820283011164010000000082111715620011fd57600080fd5b8083526020830192505050908051906020019080838360005b838110156200123357808201518184015260208101905062001216565b50505050905090810190601f168015620012615780820380516001836020036101000a031916815260200191505b5060405250505091505062001288565b8060010190506200100b565b5060006200128757fe5b5b92915050565b60008060008090505b60148110156200131d576008810260ff60f81b8260130360080260020a8673ffffffffffffffffffffffffffffffffffffffff1681620012d357fe5b0460f81b167effffffffffffffffffffffffffffffffffffffffffffffffffffffffffffff19166bffffffffffffffffffffffff1916901c82179150808060010191505062001297565b5080915050919050565b6000600180549050905090565b6000809054906101000a900473ffffffffffffffffffffffffffffffffffffffff1673ffffffffffffffffffffffffffffffffffffffff163373ffffffffffffffffffffffffffffffffffffffff1614620013f7576040517f08c379a00000000000000000000000000000000000000000000000000000000081526004018080602001828103825260198152602001807f4f6e6c79206f776e65722063616e2063616c6c20746869732e0000000000000081525060200191505060405180910390fd5b6000620014048262001a66565b90506200141062001f28565b600182815481106200141e57fe5b90600052602060002090600602016040518060c00160405290816000820160009054906101000a900473ffffffffffffffffffffffffffffffffffffffff1673ffffffffffffffffffffffffffffffffffffffff1673ffffffffffffffffffffffffffffffffffffffff1681526020016001820160009054906101000a900460601b6bffffffffffffffffffffffff19166bffffffffffffffffffffffff191681526020016002820154815260200160038201548152602001600482018054600181600116156101000203166002900480601f016020809104026020016040519081016040528092919081815260200182805460018160011615610100020316600290048015620015735780601f10620015475761010080835404028352916020019162001573565b820191906000526020600020905b8154815290600101906020018083116200155557829003601f168201915b50505050508152602001600582018054600181600116156101000203166002900480601f016020809104026020016040519081016040528092919081815260200182805460018160011615610100020316600290048015620016195780601f10620015ed5761010080835404028352916020019162001619565b820191906000526020600020905b815481529060010190602001808311620015fb57829003601f168201915b50505050508152505090506200162f8262001af5565b806000015173ffffffffffffffffffffffffffffffffffffffff16816060015182604001517faa2121944425e43f2297f381f23a092fed43a5488ef0fecd53e14c50aba19db460405160405180910390a4505050565b6000809054906101000a900473ffffffffffffffffffffffffffffffffffffffff1681565b6000600280549050905090565b6060600180549050604051908082528060200260200182016040528015620016ee5781602001602082028038833980820191505090505b50905060008090505b6001805490508110156200177757600181815481106200171357fe5b906000526020600020906006020160010160009054906101000a900460601b8282815181106200173f57fe5b60200260200101906bffffffffffffffffffffffff191690816bffffffffffffffffffffffff191681525050806001019050620016f7565b5080905090565b606060028054806020026020016040519081016040528092919081815260200182805480156200180457602002820191906000526020600020905b8160009054906101000a900473ffffffffffffffffffffffffffffffffffffffff1673ffffffffffffffffffffffffffffffffffffffff1681526020019060010190808311620017b9575b5050505050905090565b60008060608060008090505b60018054905081101562001a5457856bffffffffffffffffffffffff1916600182815481106200184657fe5b906000526020600020906006020160010160009054906101000a900460601b6bffffffffffffffffffffffff1916141562001a4857600181815481106200188957fe5b90600052602060002090600602016002015460018281548110620018a957fe5b90600052602060002090600602016003015460018381548110620018c957fe5b906000526020600020906006020160040160018481548110620018e857fe5b9060005260206000209060060201600501818054600181600116156101000203166002900480601f016020809104026020016040519081016040528092919081815260200182805460018160011615610100020316600290048015620019925780601f10620019665761010080835404028352916020019162001992565b820191906000526020600020905b8154815290600101906020018083116200197457829003601f168201915b50505050509150808054600181600116156101000203166002900480601f01602080910402602001604051908101604052809291908181526020018280546001816001161561010002031660029004801562001a325780601f1062001a065761010080835404028352916020019162001a32565b820191906000526020600020905b81548152906001019060200180831162001a1457829003601f168201915b5050505050905094509450945094505062001a5f565b8060010190506200181a565b50600062001a5e57fe5b5b9193509193565b600080600090505b60018054905081101562001ae557826bffffffffffffffffffffffff19166001828154811062001a9a57fe5b906000526020600020906006020160010160009054906101000a900460601b6bffffffffffffffffffffffff1916141562001ad9578091505062001af0565b80600101905062001a6e565b50600062001aef57fe5b5b919050565b60008190505b60018054905060018201101562001c655760018082018154811062001b1c57fe5b90600052602060002090600602016001828154811062001b3857fe5b90600052602060002090600602016000820160009054906101000a900473ffffffffffffffffffffffffffffffffffffffff168160000160006101000a81548173ffffffffffffffffffffffffffffffffffffffff021916908373ffffffffffffffffffffffffffffffffffffffff1602179055506001820160009054906101000a900460601b8160010160006101000a81548173ffffffffffffffffffffffffffffffffffffffff021916908360601c021790555060028201548160020155600382015481600301556004820181600401908054600181600116156101000203166002900462001c2b92919062002018565b506005820181600501908054600181600116156101000203166002900462001c5592919062002018565b5090505080600101905062001afb565b50600180548062001c7257fe5b6001900381819060005260206000209060060201600080820160006101000a81549073ffffffffffffffffffffffffffffffffffffffff02191690556001820160006101000a81549073ffffffffffffffffffffffffffffffffffffffff02191690556002820160009055600382016000905560048201600062001cf79190620020a6565b60058201600062001d099190620020a6565b5050905550565b600080600090505b60028054905081101562001e1e57826bffffffffffffffffffffffff19166002828154811062001d4457fe5b9060005260206000200160009054906101000a900473ffffffffffffffffffffffffffffffffffffffff1673ffffffffffffffffffffffffffffffffffffffff1663af640d0f6040518163ffffffff1660e01b815260040160206040518083038186803b15801562001db557600080fd5b505afa15801562001dca573d6000803e3d6000fd5b505050506040513d602081101562001de157600080fd5b81019080805190602001909291905050506bffffffffffffffffffffffff1916141562001e12578091505062001e29565b80600101905062001d18565b50600062001e2857fe5b5b919050565b60008190505b60028054905060018201101562001ee3576002600182018154811062001e5657fe5b9060005260206000200160009054906101000a900473ffffffffffffffffffffffffffffffffffffffff166002828154811062001e8f57fe5b9060005260206000200160006101000a81548173ffffffffffffffffffffffffffffffffffffffff021916908373ffffffffffffffffffffffffffffffffffffffff16021790555080600101905062001e34565b50600280548062001ef057fe5b6001900381819060005260206000200160006101000a81549073ffffffffffffffffffffffffffffffffffffffff0219169055905550565b6040518060c00160405280600073ffffffffffffffffffffffffffffffffffffffff16815260200160006bffffffffffffffffffffffff19168152602001600081526020016000815260200160608152602001606081525090565b828054600181600116156101000203166002900490600052602060002090601f016020900481019282601f1062001fc657805160ff191683800117855562001ff7565b8280016001018555821562001ff7579182015b8281111562001ff657825182559160200191906001019062001fd9565b5b509050620020069190620020f2565b5090565b610d93806200211b83390190565b828054600181600116156101000203166002900490600052602060002090601f016020900481019282601f1062002053578054855562002093565b828001600101855582156200209357600052602060002091601f016020900482015b828111156200209257825482559160010191906001019062002075565b5b509050620020a29190620020f2565b5090565b50805460018160011615610100020316600290046000825580601f10620020ce5750620020ef565b601f016020900490600052602060002090810190620020ee9190620020f2565b5b50565b6200211791905b8082111562002113576000816000905550600101620020f9565b5090565b9056fe60806040523480156200001157600080fd5b5060405162000d9338038062000d93833981810160405260a08110156200003757600080fd5b81019080805190602001909291908051906020019092919080519060200190929190805160405193929190846401000000008211156200007657600080fd5b838201915060208201858111156200008d57600080fd5b8251866001820283011164010000000082111715620000ab57600080fd5b8083526020830192505050908051906020019080838360005b83811015620000e1578082015181840152602081019050620000c4565b50505050905090810190601f1680156200010f5780820380516001836020036101000a031916815260200191505b50604052602001805160405193929190846401000000008211156200013357600080fd5b838201915060208201858111156200014a57600080fd5b82518660018202830111640100000000821117156200016857600080fd5b8083526020830192505050908051906020019080838360005b838110156200019e57808201518184015260208101905062000181565b50505050905090810190601f168015620001cc5780820380516001836020036101000a031916815260200191505b50604052505050846000806101000a81548173ffffffffffffffffffffffffffffffffffffffff021916908373ffffffffffffffffffffffffffffffffffffffff16021790555083600160006101000a81548173ffffffffffffffffffffffffffffffffffffffff021916908360601c02179055508260028190555081600390805190602001906200026092919062000285565b5080600490805190602001906200027992919062000285565b50505050505062000334565b828054600181600116156101000203166002900490600052602060002090601f016020900481019282601f10620002c857805160ff1916838001178555620002f9565b82800160010185558215620002f9579182015b82811115620002f8578251825591602001919060010190620002db565b5b5090506200030891906200030c565b5090565b6200033191905b808211156200032d57600081600090555060010162000313565b5090565b90565b610a4f80620003446000396000f3fe608060405234801561001057600080fd5b506004361061007d5760003560e01c80638da5cb5b1161005b5780638da5cb5b1461022f578063a72249f814610279578063af640d0f1461033e578063bb412a081461037a5761007d565b806306fdde03146100825780630d82502b146101055780637284e416146101ac575b600080fd5b61008a610398565b6040518080602001828103825283818151815260200191508051906020019080838360005b838110156100ca5780820151818401526020810190506100af565b50505050905090810190601f1680156100f75780820380516001836020036101000a031916815260200191505b509250505060405180910390f35b6101316004803603602081101561011b57600080fd5b8101908080359060200190929190505050610436565b6040518080602001828103825283818151815260200191508051906020019080838360005b83811015610171578082015181840152602081019050610156565b50505050905090810190601f16801561019e5780820380516001836020036101000a031916815260200191505b509250505060405180910390f35b6101b4610682565b6040518080602001828103825283818151815260200191508051906020019080838360005b838110156101f45780820151818401526020810190506101d9565b50505050905090810190601f1680156102215780820380516001836020036101000a031916815260200191505b509250505060405180910390f35b610237610720565b604051808273ffffffffffffffffffffffffffffffffffffffff1673ffffffffffffffffffffffffffffffffffffffff16815260200191505060405180910390f35b61033c6004803603604081101561028f57600080fd5b81019080803590602001906401000000008111156102ac57600080fd5b8201836020820111156102be57600080fd5b803590602001918460018302840111640100000000831117156102e057600080fd5b91908080601f016020809104026020016040519081016040528093929190818152602001838380828437600081840152601f19601f82011690508083019250505050505050919291929080359060200190929190505050610745565b005b610346610914565b60405180826bffffffffffffffffffffffff19166bffffffffffffffffffffffff1916815260200191505060405180910390f35b610382610927565b6040518082815260200191505060405180910390f35b60038054600181600116156101000203166002900480601f01602080910402602001604051908101604052809291908181526020018280546001816001161561010002031660029004801561042e5780601f106104035761010080835404028352916020019161042e565b820191906000526020600020905b81548152906001019060200180831161041157829003601f168201915b505050505081565b60606000600580549050148061046a5750600560008154811061045557fe5b90600052602060002090600202016001015482105b156104865760405180602001604052806000815250905061067d565b6000600190505b6005805490508110156105ba5782600560018303815481106104ab57fe5b906000526020600020906002020160010154111580156104e8575082600582815481106104d457fe5b906000526020600020906002020160010154115b156105af57600560018203815481106104fd57fe5b90600052602060002090600202016000018054600181600116156101000203166002900480601f0160208091040260200160405190810160405280929190818152602001828054600181600116156101000203166002900480156105a25780601f10610577576101008083540402835291602001916105a2565b820191906000526020600020905b81548152906001019060200180831161058557829003601f168201915b505050505091505061067d565b80600101905061048d565b506005600160058054905003815481106105d057fe5b90600052602060002090600202016000018054600181600116156101000203166002900480601f0160208091040260200160405190810160405280929190818152602001828054600181600116156101000203166002900480156106755780601f1061064a57610100808354040283529160200191610675565b820191906000526020600020905b81548152906001019060200180831161065857829003601f168201915b505050505090505b919050565b60048054600181600116156101000203166002900480601f0160208091040260200160405190810160405280929190818152602001828054600181600116156101000203166002900480156107185780601f106106ed57610100808354040283529160200191610718565b820191906000526020600020905b8154815290600101906020018083116106fb57829003601f168201915b505050505081565b6000809054906101000a900473ffffffffffffffffffffffffffffffffffffffff1681565b6000809054906101000a900473ffffffffffffffffffffffffffffffffffffffff1673ffffffffffffffffffffffffffffffffffffffff163373ffffffffffffffffffffffffffffffffffffffff1614610807576040517f08c379a00000000000000000000000000000000000000000000000000000000081526004018080602001828103825260198152602001807f4f6e6c79206f776e65722063616e2063616c6c20746869732e0000000000000081525060200191505060405180910390fd5b600060058054905090505b6000811180156108435750816005600183038154811061082e57fe5b90600052602060002090600202016001015410155b156108545780600190039050610812565b5b8060058054905011156108a357600580548061086d57fe5b600190038181906000526020600020906002020160008082016000610892919061092d565b600182016000905550509055610855565b6005604051806040016040528085815260200184815250908060018154018082558091505090600182039060005260206000209060020201600090919290919091506000820151816000019080519060200190610901929190610975565b5060208201518160010155505050505050565b600160009054906101000a900460601b81565b60025481565b50805460018160011615610100020316600290046000825580601f106109535750610972565b601f01602090049060005260206000209081019061097191906109f5565b5b50565b828054600181600116156101000203166002900490600052602060002090601f016020900481019282601f106109b657805160ff19168380011785556109e4565b828001600101855582156109e4579182015b828111156109e35782518255916020019190600101906109c8565b5b5090506109f191906109f5565b5090565b610a1791905b80821115610a135760008160009055506001016109fb565b5090565b9056fea265627a7a72315820de06be888a79f3f14c23e2f7620bd6f3e998d697bcdb9d35b444878b86433b6b64736f6c63430005100032a265627a7a72315820a6d4b3fc7ce1f5cce547557c2399c752d38349d7ba83f18851cb0a2cad6a2ce764736f6c63430005100032",
  "source": "pragma solidity >=0.4.21 <0.7.0;\n\nimport \"./ASInfo.sol\";\n\ncontract SMARegister {\n\n    modifier onlyOwner {\n        require(\n            msg.sender == owner,\n            \"Only owner can call this.\"\n        );\n        _;\n    }\n\n    struct ASRequest {\n        address owner;\n        bytes20 id;\n        uint256 reqType;\n        uint256 asn;\n        string name;\n        string description;\n    }\n\n    // administrator address of security aliance\n    address public owner;\n\n    // AS join request queue\n    ASRequest[] private _reqs;\n\n    // AS queue\n    ASInfo[] private _ases;\n\n\n    // events\n    event ASRequestSubmitted(uint256 indexed reqType, uint256 indexed asn, address indexed id);\n    event ASRequestApproved(uint256 indexed reqType, uint256 indexed asn, address indexed id);\n    event ASRequestRejected(uint256 indexed reqType, uint256 indexed asn, address indexed id);\n    event ASCreated(ASInfo indexed asInfo, address indexed id);\n    event ASDeleted(ASInfo indexed asInfo, address indexed id);\n\n    constructor() public {\n        owner = msg.sender;\n    }\n\n    function toBytes(address x) public pure returns (bytes20) {\n        bytes20 b;\n        for (uint i = 0; i < 20; i++) {\n            b |= bytes20(byte(uint8(uint256(x) / (2 ** (8 * (19 - i))))) & 0xFF) >> (i * 8);\n        }\n        return b;\n    }\n\n    function createASRequest(\n        uint256 _reqType,\n        uint256 _asn,\n        string memory _name,\n        string memory _description\n    )\n        public\n    {\n        bytes20 id = toBytes(msg.sender);\n        ASRequest memory req = ASRequest(\n            msg.sender,\n            id,\n            _reqType,\n            _asn,\n            _name,\n            _description\n        );\n        bool applied = false;\n        for (uint256 i = 0; i < _reqs.length; ++i) {\n            if (_reqs[i].id == id) {\n                _reqs[i] = req;\n                applied = true;\n                break;\n            }\n        }\n        if (!applied) {\n            _reqs.push(req);\n        }\n        emit ASRequestSubmitted(_reqType, _asn, msg.sender);\n    }\n\n    function requestDetailQuery(bytes20 id) public view returns (\n        uint256 reqType,\n        uint256 asn,\n        string memory name,\n        string memory description\n    ) {\n        for (uint256 i = 0; i < _reqs.length; ++i) {\n            if (_reqs[i].id == id) {\n                return (\n                    _reqs[i].reqType,\n                    _reqs[i].asn,\n                    _reqs[i].name,\n                    _reqs[i].description\n                );\n            }\n        }\n        assert(false);\n    }\n\n    function requestIdQuery() public view returns (bytes20[] memory ids) {\n        ids = new bytes20[](_reqs.length);\n        for (uint256 i = 0; i < _reqs.length; ++i) {\n            ids[i] = _reqs[i].id;\n        }\n        return ids;\n    }\n\n    function requestCount() public view returns (uint256) {\n        return _reqs.length;\n    }\n\n    function asQuery() public view returns (ASInfo[] memory) {\n        return _ases;\n    }\n\n    function asCount() public view returns (uint256) {\n        return _ases.length;\n    }\n\n    function findIndexFromReqs(bytes20 id) private view returns (uint256){\n        for (uint256 i = 0; i < _reqs.length; ++i) {\n            if (_reqs[i].id == id) {\n                return i;\n            }\n        }\n        assert(false);\n    }\n\n    function removeFromReqs(uint256 index) private {\n        for (uint256 i = index; i + 1 < _reqs.length; ++i) {\n            _reqs[i] = _reqs[i + 1];\n        }\n        _reqs.pop();\n    }\n\n    function findIndexFromAses(bytes20 id) private view returns (uint256){\n        for (uint256 i = 0; i < _ases.length; ++i) {\n            if (_ases[i].id() == id) {\n                return i;\n            }\n        }\n        assert(false);\n    }\n\n    function removeFromAses(uint256 index) private {\n        for (uint256 i = index; i + 1 < _ases.length; ++i) {\n            _ases[i] = _ases[i + 1];\n        }\n        _ases.pop();\n    }\n\n    function requestApprove(bytes20 id) public onlyOwner {\n        uint256 index = findIndexFromReqs(id);\n        ASRequest memory req = _reqs[index];\n        removeFromReqs(index);\n        if (req.reqType == 0) {\n            ASInfo asInfo = new ASInfo(\n                req.owner,\n                req.id,\n                req.asn,\n                req.name,\n                req.description\n            );\n            _ases.push(asInfo);\n            emit ASCreated(asInfo, req.owner);\n        } else {\n            index = findIndexFromAses(req.id);\n            ASInfo asInfo = _ases[index];\n            removeFromAses(index);\n            emit ASDeleted(asInfo, req.owner);\n        }\n        emit ASRequestApproved(req.reqType, req.asn, req.owner);\n    }\n\n    function requestReject(bytes20 id) public onlyOwner {\n        uint256 index = findIndexFromReqs(id);\n        ASRequest memory req = _reqs[index];\n        removeFromReqs(index);\n        emit ASRequestRejected(req.reqType, req.asn, req.owner);\n    }\n\n    function singleACSQuery(uint256 asn, uint256 time) public view returns(string memory) {\n        for (uint256 i = 0; i < _ases.length; ++i) {\n            if (_ases[i].asn() == asn) {\n                return _ases[i].getCurrentACS(time);\n            }\n        }\n        assert(false);\n    }\n\n    /*\n    function allACSQuery(uint256 time) public view returns(uint256[] memory asns, string[] memory addrs) {\n        asns = new uint256[](_ases.length);\n        addrs = new string[](_ases.length);\n        for (uint256 i = 0; i < _ases.length; ++i) {\n            asns[i] = _ases[i].asn();\n            addrs[i] = _ases[i].getCurrentACS(time);\n        }\n        return (asns, addrs);\n    }\n    */\n}\n",
  "sourcePath": "/Users/bragcat/Code/RegChain/contracts/SMARegister.sol",
  "compiler": {
    "name": "solc",
    "version": "0.5.16+commit.9c3226ce.Emscripten.clang"
  },
  "schemaVersion": "3.0.23",
  "updatedAt": "2020-05-16T04:07:02.695Z",
  "networkType": "ethereum",
  "devdoc": {
    "methods": {}
  },
  "userdoc": {
    "methods": {}
  }
}